{
	"contracts/MyToken.sol": {
		"ScamPump": {
			"abi": [
				{
					"inputs": [],
					"stateMutability": "nonpayable",
					"type": "constructor"
				},
				{
					"anonymous": false,
					"inputs": [
						{
							"indexed": true,
							"internalType": "address",
							"name": "owner",
							"type": "address"
						},
						{
							"indexed": true,
							"internalType": "address",
							"name": "spender",
							"type": "address"
						},
						{
							"indexed": false,
							"internalType": "uint256",
							"name": "value",
							"type": "uint256"
						}
					],
					"name": "Approval",
					"type": "event"
				},
				{
					"anonymous": false,
					"inputs": [
						{
							"indexed": true,
							"internalType": "address",
							"name": "from",
							"type": "address"
						},
						{
							"indexed": true,
							"internalType": "address",
							"name": "to",
							"type": "address"
						},
						{
							"indexed": false,
							"internalType": "uint256",
							"name": "value",
							"type": "uint256"
						}
					],
					"name": "Transfer",
					"type": "event"
				},
				{
					"inputs": [
						{
							"internalType": "address",
							"name": "owner",
							"type": "address"
						},
						{
							"internalType": "address",
							"name": "spender",
							"type": "address"
						}
					],
					"name": "allowance",
					"outputs": [
						{
							"internalType": "uint256",
							"name": "",
							"type": "uint256"
						}
					],
					"stateMutability": "view",
					"type": "function"
				},
				{
					"inputs": [
						{
							"internalType": "address",
							"name": "spender",
							"type": "address"
						},
						{
							"internalType": "uint256",
							"name": "amount",
							"type": "uint256"
						}
					],
					"name": "approve",
					"outputs": [
						{
							"internalType": "bool",
							"name": "",
							"type": "bool"
						}
					],
					"stateMutability": "nonpayable",
					"type": "function"
				},
				{
					"inputs": [
						{
							"internalType": "address",
							"name": "account",
							"type": "address"
						}
					],
					"name": "balanceOf",
					"outputs": [
						{
							"internalType": "uint256",
							"name": "",
							"type": "uint256"
						}
					],
					"stateMutability": "view",
					"type": "function"
				},
				{
					"inputs": [],
					"name": "burnThreshold",
					"outputs": [
						{
							"internalType": "uint256",
							"name": "",
							"type": "uint256"
						}
					],
					"stateMutability": "view",
					"type": "function"
				},
				{
					"inputs": [],
					"name": "decimals",
					"outputs": [
						{
							"internalType": "uint8",
							"name": "",
							"type": "uint8"
						}
					],
					"stateMutability": "view",
					"type": "function"
				},
				{
					"inputs": [
						{
							"internalType": "address",
							"name": "spender",
							"type": "address"
						},
						{
							"internalType": "uint256",
							"name": "subtractedValue",
							"type": "uint256"
						}
					],
					"name": "decreaseAllowance",
					"outputs": [
						{
							"internalType": "bool",
							"name": "",
							"type": "bool"
						}
					],
					"stateMutability": "nonpayable",
					"type": "function"
				},
				{
					"inputs": [],
					"name": "developer",
					"outputs": [
						{
							"internalType": "address",
							"name": "",
							"type": "address"
						}
					],
					"stateMutability": "view",
					"type": "function"
				},
				{
					"inputs": [
						{
							"internalType": "address",
							"name": "spender",
							"type": "address"
						},
						{
							"internalType": "uint256",
							"name": "addedValue",
							"type": "uint256"
						}
					],
					"name": "increaseAllowance",
					"outputs": [
						{
							"internalType": "bool",
							"name": "",
							"type": "bool"
						}
					],
					"stateMutability": "nonpayable",
					"type": "function"
				},
				{
					"inputs": [],
					"name": "initialPurchaseActive",
					"outputs": [
						{
							"internalType": "bool",
							"name": "",
							"type": "bool"
						}
					],
					"stateMutability": "view",
					"type": "function"
				},
				{
					"inputs": [],
					"name": "initialPurchaseTime",
					"outputs": [
						{
							"internalType": "uint256",
							"name": "",
							"type": "uint256"
						}
					],
					"stateMutability": "view",
					"type": "function"
				},
				{
					"inputs": [],
					"name": "maxSupply",
					"outputs": [
						{
							"internalType": "uint256",
							"name": "",
							"type": "uint256"
						}
					],
					"stateMutability": "view",
					"type": "function"
				},
				{
					"inputs": [],
					"name": "name",
					"outputs": [
						{
							"internalType": "string",
							"name": "",
							"type": "string"
						}
					],
					"stateMutability": "view",
					"type": "function"
				},
				{
					"inputs": [],
					"name": "owner",
					"outputs": [
						{
							"internalType": "address",
							"name": "",
							"type": "address"
						}
					],
					"stateMutability": "view",
					"type": "function"
				},
				{
					"inputs": [
						{
							"internalType": "bool",
							"name": "_initialPurchaseActive",
							"type": "bool"
						}
					],
					"name": "setInitialPurchaseActive",
					"outputs": [],
					"stateMutability": "nonpayable",
					"type": "function"
				},
				{
					"inputs": [
						{
							"internalType": "uint256",
							"name": "_initialPurchaseTime",
							"type": "uint256"
						}
					],
					"name": "setInitialPurchaseTime",
					"outputs": [],
					"stateMutability": "nonpayable",
					"type": "function"
				},
				{
					"inputs": [
						{
							"internalType": "uint256",
							"name": "_transactionFee",
							"type": "uint256"
						}
					],
					"name": "setTransactionFee",
					"outputs": [],
					"stateMutability": "nonpayable",
					"type": "function"
				},
				{
					"inputs": [],
					"name": "symbol",
					"outputs": [
						{
							"internalType": "string",
							"name": "",
							"type": "string"
						}
					],
					"stateMutability": "view",
					"type": "function"
				},
				{
					"inputs": [],
					"name": "totalSupply",
					"outputs": [
						{
							"internalType": "uint256",
							"name": "",
							"type": "uint256"
						}
					],
					"stateMutability": "view",
					"type": "function"
				},
				{
					"inputs": [],
					"name": "transactionFee",
					"outputs": [
						{
							"internalType": "uint256",
							"name": "",
							"type": "uint256"
						}
					],
					"stateMutability": "view",
					"type": "function"
				},
				{
					"inputs": [
						{
							"internalType": "address",
							"name": "recipient",
							"type": "address"
						},
						{
							"internalType": "uint256",
							"name": "amount",
							"type": "uint256"
						}
					],
					"name": "transfer",
					"outputs": [
						{
							"internalType": "bool",
							"name": "",
							"type": "bool"
						}
					],
					"stateMutability": "nonpayable",
					"type": "function"
				},
				{
					"inputs": [
						{
							"internalType": "address",
							"name": "from",
							"type": "address"
						},
						{
							"internalType": "address",
							"name": "to",
							"type": "address"
						},
						{
							"internalType": "uint256",
							"name": "amount",
							"type": "uint256"
						}
					],
					"name": "transferFrom",
					"outputs": [
						{
							"internalType": "bool",
							"name": "",
							"type": "bool"
						}
					],
					"stateMutability": "nonpayable",
					"type": "function"
				}
			],
			"devdoc": {
				"kind": "dev",
				"methods": {
					"allowance(address,address)": {
						"details": "See {IERC20-allowance}."
					},
					"approve(address,uint256)": {
						"details": "See {IERC20-approve}. NOTE: If `amount` is the maximum `uint256`, the allowance is not updated on `transferFrom`. This is semantically equivalent to an infinite approval. Requirements: - `spender` cannot be the zero address."
					},
					"balanceOf(address)": {
						"details": "See {IERC20-balanceOf}."
					},
					"decimals()": {
						"details": "Returns the number of decimals used to get its user representation. For example, if `decimals` equals `2`, a balance of `505` tokens should be displayed to a user as `5.05` (`505 / 10 ** 2`). Tokens usually opt for a value of 18, imitating the relationship between Ether and Wei. This is the default value returned by this function, unless it's overridden. NOTE: This information is only used for _display_ purposes: it in no way affects any of the arithmetic of the contract, including {IERC20-balanceOf} and {IERC20-transfer}."
					},
					"decreaseAllowance(address,uint256)": {
						"details": "Atomically decreases the allowance granted to `spender` by the caller. This is an alternative to {approve} that can be used as a mitigation for problems described in {IERC20-approve}. Emits an {Approval} event indicating the updated allowance. Requirements: - `spender` cannot be the zero address. - `spender` must have allowance for the caller of at least `subtractedValue`."
					},
					"increaseAllowance(address,uint256)": {
						"details": "Atomically increases the allowance granted to `spender` by the caller. This is an alternative to {approve} that can be used as a mitigation for problems described in {IERC20-approve}. Emits an {Approval} event indicating the updated allowance. Requirements: - `spender` cannot be the zero address."
					},
					"name()": {
						"details": "Returns the name of the token."
					},
					"symbol()": {
						"details": "Returns the symbol of the token, usually a shorter version of the name."
					},
					"totalSupply()": {
						"details": "See {IERC20-totalSupply}."
					},
					"transferFrom(address,address,uint256)": {
						"details": "See {IERC20-transferFrom}. Emits an {Approval} event indicating the updated allowance. This is not required by the EIP. See the note at the beginning of {ERC20}. NOTE: Does not update the allowance if the current allowance is the maximum `uint256`. Requirements: - `from` and `to` cannot be the zero address. - `from` must have a balance of at least `amount`. - the caller must have allowance for ``from``'s tokens of at least `amount`."
					}
				},
				"version": 1
			},
			"evm": {
				"assembly": "    /* \"contracts/MyToken.sol\":168:2594  contract ScamPump is ERC20 {... */\n  mstore(0x40, 0x80)\n    /* \"contracts/MyToken.sol\":437:838  constructor() ERC20(\"ScamPump\", \"SCAM\") {... */\n  callvalue\n  dup1\n  iszero\n  tag_1\n  jumpi\n  0x00\n  dup1\n  revert\ntag_1:\n  pop\n    /* \"https://github.com/OpenZeppelin/openzeppelin-contracts/blob/master/contracts/token/ERC20/ERC20.sol\":1980:2093  constructor(string memory name_, string memory symbol_) {... */\n  mload(0x40)\n  dup1\n  0x40\n  add\n  0x40\n  mstore\n  dup1\n  0x08\n  dup2\n  mstore\n  0x20\n  add\n  0x5363616d50756d70000000000000000000000000000000000000000000000000\n  dup2\n  mstore\n  pop\n  mload(0x40)\n  dup1\n  0x40\n  add\n  0x40\n  mstore\n  dup1\n  0x04\n  dup2\n  mstore\n  0x20\n  add\n  0x5343414d00000000000000000000000000000000000000000000000000000000\n  dup2\n  mstore\n  pop\n    /* \"https://github.com/OpenZeppelin/openzeppelin-contracts/blob/master/contracts/token/ERC20/ERC20.sol\":2054:2059  name_ */\n  dup2\n    /* \"https://github.com/OpenZeppelin/openzeppelin-contracts/blob/master/contracts/token/ERC20/ERC20.sol\":2046:2051  _name */\n  0x03\n    /* \"https://github.com/OpenZeppelin/openzeppelin-contracts/blob/master/contracts/token/ERC20/ERC20.sol\":2046:2059  _name = name_ */\n  swap1\n  dup1\n  mload\n  swap1\n  0x20\n  add\n  swap1\n  tag_5\n  swap3\n  swap2\n  swap1\n  tag_6\n  jump\t// in\ntag_5:\n  pop\n    /* \"https://github.com/OpenZeppelin/openzeppelin-contracts/blob/master/contracts/token/ERC20/ERC20.sol\":2079:2086  symbol_ */\n  dup1\n    /* \"https://github.com/OpenZeppelin/openzeppelin-contracts/blob/master/contracts/token/ERC20/ERC20.sol\":2069:2076  _symbol */\n  0x04\n    /* \"https://github.com/OpenZeppelin/openzeppelin-contracts/blob/master/contracts/token/ERC20/ERC20.sol\":2069:2086  _symbol = symbol_ */\n  swap1\n  dup1\n  mload\n  swap1\n  0x20\n  add\n  swap1\n  tag_7\n  swap3\n  swap2\n  swap1\n  tag_6\n  jump\t// in\ntag_7:\n  pop\n    /* \"https://github.com/OpenZeppelin/openzeppelin-contracts/blob/master/contracts/token/ERC20/ERC20.sol\":1980:2093  constructor(string memory name_, string memory symbol_) {... */\n  pop\n  pop\n    /* \"contracts/MyToken.sol\":495:505  msg.sender */\n  caller\n    /* \"contracts/MyToken.sol\":487:492  owner */\n  0x05\n  0x00\n    /* \"contracts/MyToken.sol\":487:505  owner = msg.sender */\n  0x0100\n  exp\n  dup2\n  sload\n  dup2\n  0xffffffffffffffffffffffffffffffffffffffff\n  mul\n  not\n  and\n  swap1\n  dup4\n  0xffffffffffffffffffffffffffffffffffffffff\n  and\n  mul\n  or\n  swap1\n  sstore\n  pop\n    /* \"contracts/MyToken.sol\":527:569  0x10044472aDD5856dbe1ca09a4c236d382a80966B */\n  0x10044472add5856dbe1ca09a4c236d382a80966b\n    /* \"contracts/MyToken.sol\":515:524  developer */\n  0x06\n  0x00\n    /* \"contracts/MyToken.sol\":515:569  developer = 0x10044472aDD5856dbe1ca09a4c236d382a80966B */\n  0x0100\n  exp\n  dup2\n  sload\n  dup2\n  0xffffffffffffffffffffffffffffffffffffffff\n  mul\n  not\n  and\n  swap1\n  dup4\n  0xffffffffffffffffffffffffffffffffffffffff\n  and\n  mul\n  or\n  swap1\n  sstore\n  pop\n    /* \"contracts/MyToken.sol\":608:618  decimals() */\n  tag_9\n    /* \"contracts/MyToken.sol\":608:616  decimals */\n  shl(0x20, tag_10)\n    /* \"contracts/MyToken.sol\":608:618  decimals() */\n  0x20\n  shr\n  jump\t// in\ntag_9:\n    /* \"contracts/MyToken.sol\":602:604  10 */\n  0x0a\n    /* \"contracts/MyToken.sol\":602:618  10 ** decimals() */\n  tag_11\n  swap2\n  swap1\n  tag_12\n  jump\t// in\ntag_11:\n    /* \"contracts/MyToken.sol\":591:599  69000000 */\n  0x041cdb40\n    /* \"contracts/MyToken.sol\":591:618  69000000 * 10 ** decimals() */\n  tag_13\n  swap2\n  swap1\n  tag_14\n  jump\t// in\ntag_13:\n    /* \"contracts/MyToken.sol\":579:588  maxSupply */\n  0x07\n    /* \"contracts/MyToken.sol\":579:618  maxSupply = 69000000 * 10 ** decimals() */\n  dup2\n  swap1\n  sstore\n  pop\n    /* \"contracts/MyToken.sol\":661:671  decimals() */\n  tag_15\n    /* \"contracts/MyToken.sol\":661:669  decimals */\n  shl(0x20, tag_10)\n    /* \"contracts/MyToken.sol\":661:671  decimals() */\n  0x20\n  shr\n  jump\t// in\ntag_15:\n    /* \"contracts/MyToken.sol\":655:657  10 */\n  0x0a\n    /* \"contracts/MyToken.sol\":655:671  10 ** decimals() */\n  tag_16\n  swap2\n  swap1\n  tag_12\n  jump\t// in\ntag_16:\n    /* \"contracts/MyToken.sol\":644:652  42000000 */\n  0x0280de80\n    /* \"contracts/MyToken.sol\":644:671  42000000 * 10 ** decimals() */\n  tag_17\n  swap2\n  swap1\n  tag_14\n  jump\t// in\ntag_17:\n    /* \"contracts/MyToken.sol\":628:641  burnThreshold */\n  0x08\n    /* \"contracts/MyToken.sol\":628:671  burnThreshold = 42000000 * 10 ** decimals() */\n  dup2\n  swap1\n  sstore\n  pop\n    /* \"contracts/MyToken.sol\":698:699  5 */\n  0x05\n    /* \"contracts/MyToken.sol\":681:695  transactionFee */\n  0x09\n    /* \"contracts/MyToken.sol\":681:699  transactionFee = 5 */\n  dup2\n  swap1\n  sstore\n  pop\n    /* \"contracts/MyToken.sol\":749:759  60 minutes */\n  0x0e10\n    /* \"contracts/MyToken.sol\":731:746  block.timestamp */\n  timestamp\n    /* \"contracts/MyToken.sol\":731:759  block.timestamp + 60 minutes */\n  tag_18\n  swap2\n  swap1\n  tag_19\n  jump\t// in\ntag_18:\n    /* \"contracts/MyToken.sol\":709:728  initialPurchaseTime */\n  0x0a\n    /* \"contracts/MyToken.sol\":709:759  initialPurchaseTime = block.timestamp + 60 minutes */\n  dup2\n  swap1\n  sstore\n  pop\n    /* \"contracts/MyToken.sol\":793:797  true */\n  0x01\n    /* \"contracts/MyToken.sol\":769:790  initialPurchaseActive */\n  0x0b\n  0x00\n    /* \"contracts/MyToken.sol\":769:797  initialPurchaseActive = true */\n  0x0100\n  exp\n  dup2\n  sload\n  dup2\n  0xff\n  mul\n  not\n  and\n  swap1\n  dup4\n  iszero\n  iszero\n  mul\n  or\n  swap1\n  sstore\n  pop\n    /* \"contracts/MyToken.sol\":808:831  _mint(owner, maxSupply) */\n  tag_20\n    /* \"contracts/MyToken.sol\":814:819  owner */\n  0x05\n  0x00\n  swap1\n  sload\n  swap1\n  0x0100\n  exp\n  swap1\n  div\n  0xffffffffffffffffffffffffffffffffffffffff\n  and\n    /* \"contracts/MyToken.sol\":821:830  maxSupply */\n  sload(0x07)\n    /* \"contracts/MyToken.sol\":808:813  _mint */\n  shl(0x20, tag_21)\n    /* \"contracts/MyToken.sol\":808:831  _mint(owner, maxSupply) */\n  0x20\n  shr\n  jump\t// in\ntag_20:\n    /* \"contracts/MyToken.sol\":168:2594  contract ScamPump is ERC20 {... */\n  jump(tag_22)\n    /* \"https://github.com/OpenZeppelin/openzeppelin-contracts/blob/master/contracts/token/ERC20/ERC20.sol\":3104:3195  function decimals() public view virtual override returns (uint8) {... */\ntag_10:\n    /* \"https://github.com/OpenZeppelin/openzeppelin-contracts/blob/master/contracts/token/ERC20/ERC20.sol\":3162:3167  uint8 */\n  0x00\n    /* \"https://github.com/OpenZeppelin/openzeppelin-contracts/blob/master/contracts/token/ERC20/ERC20.sol\":3186:3188  18 */\n  0x12\n    /* \"https://github.com/OpenZeppelin/openzeppelin-contracts/blob/master/contracts/token/ERC20/ERC20.sol\":3179:3188  return 18 */\n  swap1\n  pop\n    /* \"https://github.com/OpenZeppelin/openzeppelin-contracts/blob/master/contracts/token/ERC20/ERC20.sol\":3104:3195  function decimals() public view virtual override returns (uint8) {... */\n  swap1\n  jump\t// out\n    /* \"https://github.com/OpenZeppelin/openzeppelin-contracts/blob/master/contracts/token/ERC20/ERC20.sol\":8520:9055  function _mint(address account, uint256 amount) internal virtual {... */\ntag_21:\n    /* \"https://github.com/OpenZeppelin/openzeppelin-contracts/blob/master/contracts/token/ERC20/ERC20.sol\":8622:8623  0 */\n  0x00\n    /* \"https://github.com/OpenZeppelin/openzeppelin-contracts/blob/master/contracts/token/ERC20/ERC20.sol\":8603:8624  account != address(0) */\n  0xffffffffffffffffffffffffffffffffffffffff\n  and\n    /* \"https://github.com/OpenZeppelin/openzeppelin-contracts/blob/master/contracts/token/ERC20/ERC20.sol\":8603:8610  account */\n  dup3\n    /* \"https://github.com/OpenZeppelin/openzeppelin-contracts/blob/master/contracts/token/ERC20/ERC20.sol\":8603:8624  account != address(0) */\n  0xffffffffffffffffffffffffffffffffffffffff\n  and\n  eq\n  iszero\n    /* \"https://github.com/OpenZeppelin/openzeppelin-contracts/blob/master/contracts/token/ERC20/ERC20.sol\":8595:8660  require(account != address(0), \"ERC20: mint to the zero address\") */\n  tag_25\n  jumpi\n  mload(0x40)\n  0x08c379a000000000000000000000000000000000000000000000000000000000\n  dup2\n  mstore\n  0x04\n  add\n  tag_26\n  swap1\n  tag_27\n  jump\t// in\ntag_26:\n  mload(0x40)\n  dup1\n  swap2\n  sub\n  swap1\n  revert\ntag_25:\n    /* \"https://github.com/OpenZeppelin/openzeppelin-contracts/blob/master/contracts/token/ERC20/ERC20.sol\":8671:8720  _beforeTokenTransfer(address(0), account, amount) */\n  tag_28\n    /* \"https://github.com/OpenZeppelin/openzeppelin-contracts/blob/master/contracts/token/ERC20/ERC20.sol\":8700:8701  0 */\n  0x00\n    /* \"https://github.com/OpenZeppelin/openzeppelin-contracts/blob/master/contracts/token/ERC20/ERC20.sol\":8704:8711  account */\n  dup4\n    /* \"https://github.com/OpenZeppelin/openzeppelin-contracts/blob/master/contracts/token/ERC20/ERC20.sol\":8713:8719  amount */\n  dup4\n    /* \"https://github.com/OpenZeppelin/openzeppelin-contracts/blob/master/contracts/token/ERC20/ERC20.sol\":8671:8691  _beforeTokenTransfer */\n  shl(0x20, tag_29)\n    /* \"https://github.com/OpenZeppelin/openzeppelin-contracts/blob/master/contracts/token/ERC20/ERC20.sol\":8671:8720  _beforeTokenTransfer(address(0), account, amount) */\n  0x20\n  shr\n  jump\t// in\ntag_28:\n    /* \"https://github.com/OpenZeppelin/openzeppelin-contracts/blob/master/contracts/token/ERC20/ERC20.sol\":8747:8753  amount */\n  dup1\n    /* \"https://github.com/OpenZeppelin/openzeppelin-contracts/blob/master/contracts/token/ERC20/ERC20.sol\":8731:8743  _totalSupply */\n  0x02\n  0x00\n    /* \"https://github.com/OpenZeppelin/openzeppelin-contracts/blob/master/contracts/token/ERC20/ERC20.sol\":8731:8753  _totalSupply += amount */\n  dup3\n  dup3\n  sload\n  tag_30\n  swap2\n  swap1\n  tag_19\n  jump\t// in\ntag_30:\n  swap3\n  pop\n  pop\n  dup2\n  swap1\n  sstore\n  pop\n    /* \"https://github.com/OpenZeppelin/openzeppelin-contracts/blob/master/contracts/token/ERC20/ERC20.sol\":8921:8927  amount */\n  dup1\n    /* \"https://github.com/OpenZeppelin/openzeppelin-contracts/blob/master/contracts/token/ERC20/ERC20.sol\":8899:8908  _balances */\n  0x00\n    /* \"https://github.com/OpenZeppelin/openzeppelin-contracts/blob/master/contracts/token/ERC20/ERC20.sol\":8899:8917  _balances[account] */\n  dup1\n    /* \"https://github.com/OpenZeppelin/openzeppelin-contracts/blob/master/contracts/token/ERC20/ERC20.sol\":8909:8916  account */\n  dup5\n    /* \"https://github.com/OpenZeppelin/openzeppelin-contracts/blob/master/contracts/token/ERC20/ERC20.sol\":8899:8917  _balances[account] */\n  0xffffffffffffffffffffffffffffffffffffffff\n  and\n  0xffffffffffffffffffffffffffffffffffffffff\n  and\n  dup2\n  mstore\n  0x20\n  add\n  swap1\n  dup2\n  mstore\n  0x20\n  add\n  0x00\n  keccak256\n  0x00\n    /* \"https://github.com/OpenZeppelin/openzeppelin-contracts/blob/master/contracts/token/ERC20/ERC20.sol\":8899:8927  _balances[account] += amount */\n  dup3\n  dup3\n  sload\n  add\n  swap3\n  pop\n  pop\n  dup2\n  swap1\n  sstore\n  pop\n    /* \"https://github.com/OpenZeppelin/openzeppelin-contracts/blob/master/contracts/token/ERC20/ERC20.sol\":8973:8980  account */\n  dup2\n    /* \"https://github.com/OpenZeppelin/openzeppelin-contracts/blob/master/contracts/token/ERC20/ERC20.sol\":8952:8989  Transfer(address(0), account, amount) */\n  0xffffffffffffffffffffffffffffffffffffffff\n  and\n    /* \"https://github.com/OpenZeppelin/openzeppelin-contracts/blob/master/contracts/token/ERC20/ERC20.sol\":8969:8970  0 */\n  0x00\n    /* \"https://github.com/OpenZeppelin/openzeppelin-contracts/blob/master/contracts/token/ERC20/ERC20.sol\":8952:8989  Transfer(address(0), account, amount) */\n  0xffffffffffffffffffffffffffffffffffffffff\n  and\n  0xddf252ad1be2c89b69c2b068fc378daa952ba7f163c4a11628f55a4df523b3ef\n    /* \"https://github.com/OpenZeppelin/openzeppelin-contracts/blob/master/contracts/token/ERC20/ERC20.sol\":8982:8988  amount */\n  dup4\n    /* \"https://github.com/OpenZeppelin/openzeppelin-contracts/blob/master/contracts/token/ERC20/ERC20.sol\":8952:8989  Transfer(address(0), account, amount) */\n  mload(0x40)\n  tag_31\n  swap2\n  swap1\n  tag_32\n  jump\t// in\ntag_31:\n  mload(0x40)\n  dup1\n  swap2\n  sub\n  swap1\n  log3\n    /* \"https://github.com/OpenZeppelin/openzeppelin-contracts/blob/master/contracts/token/ERC20/ERC20.sol\":9000:9048  _afterTokenTransfer(address(0), account, amount) */\n  tag_33\n    /* \"https://github.com/OpenZeppelin/openzeppelin-contracts/blob/master/contracts/token/ERC20/ERC20.sol\":9028:9029  0 */\n  0x00\n    /* \"https://github.com/OpenZeppelin/openzeppelin-contracts/blob/master/contracts/token/ERC20/ERC20.sol\":9032:9039  account */\n  dup4\n    /* \"https://github.com/OpenZeppelin/openzeppelin-contracts/blob/master/contracts/token/ERC20/ERC20.sol\":9041:9047  amount */\n  dup4\n    /* \"https://github.com/OpenZeppelin/openzeppelin-contracts/blob/master/contracts/token/ERC20/ERC20.sol\":9000:9019  _afterTokenTransfer */\n  shl(0x20, tag_34)\n    /* \"https://github.com/OpenZeppelin/openzeppelin-contracts/blob/master/contracts/token/ERC20/ERC20.sol\":9000:9048  _afterTokenTransfer(address(0), account, amount) */\n  0x20\n  shr\n  jump\t// in\ntag_33:\n    /* \"https://github.com/OpenZeppelin/openzeppelin-contracts/blob/master/contracts/token/ERC20/ERC20.sol\":8520:9055  function _mint(address account, uint256 amount) internal virtual {... */\n  pop\n  pop\n  jump\t// out\n    /* \"https://github.com/OpenZeppelin/openzeppelin-contracts/blob/master/contracts/token/ERC20/ERC20.sol\":12073:12164  function _beforeTokenTransfer(address from, address to, uint256 amount) internal virtual {} */\ntag_29:\n  pop\n  pop\n  pop\n  jump\t// out\n    /* \"https://github.com/OpenZeppelin/openzeppelin-contracts/blob/master/contracts/token/ERC20/ERC20.sol\":12752:12842  function _afterTokenTransfer(address from, address to, uint256 amount) internal virtual {} */\ntag_34:\n  pop\n  pop\n  pop\n  jump\t// out\n    /* \"contracts/MyToken.sol\":168:2594  contract ScamPump is ERC20 {... */\ntag_6:\n  dup3\n  dup1\n  sload\n  tag_37\n  swap1\n  tag_38\n  jump\t// in\ntag_37:\n  swap1\n  0x00\n  mstore\n  keccak256(0x00, 0x20)\n  swap1\n  0x1f\n  add\n  0x20\n  swap1\n  div\n  dup2\n  add\n  swap3\n  dup3\n  tag_40\n  jumpi\n  0x00\n  dup6\n  sstore\n  jump(tag_39)\ntag_40:\n  dup3\n  0x1f\n  lt\n  tag_41\n  jumpi\n  dup1\n  mload\n  not(0xff)\n  and\n  dup4\n  dup1\n  add\n  or\n  dup6\n  sstore\n  jump(tag_39)\ntag_41:\n  dup3\n  dup1\n  add\n  0x01\n  add\n  dup6\n  sstore\n  dup3\n  iszero\n  tag_39\n  jumpi\n  swap2\n  dup3\n  add\ntag_42:\n  dup3\n  dup2\n  gt\n  iszero\n  tag_43\n  jumpi\n  dup3\n  mload\n  dup3\n  sstore\n  swap2\n  0x20\n  add\n  swap2\n  swap1\n  0x01\n  add\n  swap1\n  jump(tag_42)\ntag_43:\ntag_39:\n  pop\n  swap1\n  pop\n  tag_44\n  swap2\n  swap1\n  tag_45\n  jump\t// in\ntag_44:\n  pop\n  swap1\n  jump\t// out\ntag_45:\ntag_46:\n  dup1\n  dup3\n  gt\n  iszero\n  tag_47\n  jumpi\n  0x00\n  dup2\n  0x00\n  swap1\n  sstore\n  pop\n  0x01\n  add\n  jump(tag_46)\ntag_47:\n  pop\n  swap1\n  jump\t// out\n    /* \"#utility.yul\":7:336   */\ntag_49:\n  0x00\n    /* \"#utility.yul\":170:237   */\n  tag_51\n    /* \"#utility.yul\":234:236   */\n  0x1f\n    /* \"#utility.yul\":229:232   */\n  dup4\n    /* \"#utility.yul\":170:237   */\n  tag_52\n  jump\t// in\ntag_51:\n    /* \"#utility.yul\":163:237   */\n  swap2\n  pop\n    /* \"#utility.yul\":267:300   */\n  0x45524332303a206d696e7420746f20746865207a65726f206164647265737300\n    /* \"#utility.yul\":263:264   */\n  0x00\n    /* \"#utility.yul\":258:261   */\n  dup4\n    /* \"#utility.yul\":254:265   */\n  add\n    /* \"#utility.yul\":247:301   */\n  mstore\n    /* \"#utility.yul\":327:329   */\n  0x20\n    /* \"#utility.yul\":322:325   */\n  dup3\n    /* \"#utility.yul\":318:330   */\n  add\n    /* \"#utility.yul\":311:330   */\n  swap1\n  pop\n    /* \"#utility.yul\":153:336   */\n  swap2\n  swap1\n  pop\n  jump\t// out\n    /* \"#utility.yul\":342:460   */\ntag_53:\n    /* \"#utility.yul\":429:453   */\n  tag_55\n    /* \"#utility.yul\":447:452   */\n  dup2\n    /* \"#utility.yul\":429:453   */\n  tag_56\n  jump\t// in\ntag_55:\n    /* \"#utility.yul\":424:427   */\n  dup3\n    /* \"#utility.yul\":417:454   */\n  mstore\n    /* \"#utility.yul\":407:460   */\n  pop\n  pop\n  jump\t// out\n    /* \"#utility.yul\":466:885   */\ntag_27:\n  0x00\n    /* \"#utility.yul\":670:672   */\n  0x20\n    /* \"#utility.yul\":659:668   */\n  dup3\n    /* \"#utility.yul\":655:673   */\n  add\n    /* \"#utility.yul\":647:673   */\n  swap1\n  pop\n    /* \"#utility.yul\":719:728   */\n  dup2\n    /* \"#utility.yul\":713:717   */\n  dup2\n    /* \"#utility.yul\":709:729   */\n  sub\n    /* \"#utility.yul\":705:706   */\n  0x00\n    /* \"#utility.yul\":694:703   */\n  dup4\n    /* \"#utility.yul\":690:707   */\n  add\n    /* \"#utility.yul\":683:730   */\n  mstore\n    /* \"#utility.yul\":747:878   */\n  tag_58\n    /* \"#utility.yul\":873:877   */\n  dup2\n    /* \"#utility.yul\":747:878   */\n  tag_49\n  jump\t// in\ntag_58:\n    /* \"#utility.yul\":739:878   */\n  swap1\n  pop\n    /* \"#utility.yul\":637:885   */\n  swap2\n  swap1\n  pop\n  jump\t// out\n    /* \"#utility.yul\":891:1113   */\ntag_32:\n  0x00\n    /* \"#utility.yul\":1022:1024   */\n  0x20\n    /* \"#utility.yul\":1011:1020   */\n  dup3\n    /* \"#utility.yul\":1007:1025   */\n  add\n    /* \"#utility.yul\":999:1025   */\n  swap1\n  pop\n    /* \"#utility.yul\":1035:1106   */\n  tag_60\n    /* \"#utility.yul\":1103:1104   */\n  0x00\n    /* \"#utility.yul\":1092:1101   */\n  dup4\n    /* \"#utility.yul\":1088:1105   */\n  add\n    /* \"#utility.yul\":1079:1085   */\n  dup5\n    /* \"#utility.yul\":1035:1106   */\n  tag_53\n  jump\t// in\ntag_60:\n    /* \"#utility.yul\":989:1113   */\n  swap3\n  swap2\n  pop\n  pop\n  jump\t// out\n    /* \"#utility.yul\":1119:1288   */\ntag_52:\n  0x00\n    /* \"#utility.yul\":1237:1243   */\n  dup3\n    /* \"#utility.yul\":1232:1235   */\n  dup3\n    /* \"#utility.yul\":1225:1244   */\n  mstore\n    /* \"#utility.yul\":1277:1281   */\n  0x20\n    /* \"#utility.yul\":1272:1275   */\n  dup3\n    /* \"#utility.yul\":1268:1282   */\n  add\n    /* \"#utility.yul\":1253:1282   */\n  swap1\n  pop\n    /* \"#utility.yul\":1215:1288   */\n  swap3\n  swap2\n  pop\n  pop\n  jump\t// out\n    /* \"#utility.yul\":1294:1599   */\ntag_19:\n  0x00\n    /* \"#utility.yul\":1353:1373   */\n  tag_63\n    /* \"#utility.yul\":1371:1372   */\n  dup3\n    /* \"#utility.yul\":1353:1373   */\n  tag_56\n  jump\t// in\ntag_63:\n    /* \"#utility.yul\":1348:1373   */\n  swap2\n  pop\n    /* \"#utility.yul\":1387:1407   */\n  tag_64\n    /* \"#utility.yul\":1405:1406   */\n  dup4\n    /* \"#utility.yul\":1387:1407   */\n  tag_56\n  jump\t// in\ntag_64:\n    /* \"#utility.yul\":1382:1407   */\n  swap3\n  pop\n    /* \"#utility.yul\":1541:1542   */\n  dup3\n    /* \"#utility.yul\":1473:1539   */\n  0xffffffffffffffffffffffffffffffffffffffffffffffffffffffffffffffff\n    /* \"#utility.yul\":1469:1543   */\n  sub\n    /* \"#utility.yul\":1466:1467   */\n  dup3\n    /* \"#utility.yul\":1463:1544   */\n  gt\n    /* \"#utility.yul\":1460:1462   */\n  iszero\n  tag_65\n  jumpi\n    /* \"#utility.yul\":1547:1565   */\n  tag_66\n  tag_67\n  jump\t// in\ntag_66:\n    /* \"#utility.yul\":1460:1462   */\ntag_65:\n    /* \"#utility.yul\":1591:1592   */\n  dup3\n    /* \"#utility.yul\":1588:1589   */\n  dup3\n    /* \"#utility.yul\":1584:1593   */\n  add\n    /* \"#utility.yul\":1577:1593   */\n  swap1\n  pop\n    /* \"#utility.yul\":1338:1599   */\n  swap3\n  swap2\n  pop\n  pop\n  jump\t// out\n    /* \"#utility.yul\":1605:2453   */\ntag_68:\n  0x00\n  dup1\n    /* \"#utility.yul\":1697:1703   */\n  dup3\n    /* \"#utility.yul\":1688:1703   */\n  swap2\n  pop\n    /* \"#utility.yul\":1721:1726   */\n  dup4\n    /* \"#utility.yul\":1712:1726   */\n  swap1\n  pop\n    /* \"#utility.yul\":1735:2447   */\ntag_70:\n    /* \"#utility.yul\":1756:1757   */\n  0x01\n    /* \"#utility.yul\":1746:1754   */\n  dup6\n    /* \"#utility.yul\":1743:1758   */\n  gt\n    /* \"#utility.yul\":1735:2447   */\n  iszero\n  tag_72\n  jumpi\n    /* \"#utility.yul\":1851:1855   */\n  dup1\n    /* \"#utility.yul\":1846:1849   */\n  dup7\n    /* \"#utility.yul\":1842:1856   */\n  div\n    /* \"#utility.yul\":1836:1840   */\n  dup2\n    /* \"#utility.yul\":1833:1857   */\n  gt\n    /* \"#utility.yul\":1830:1832   */\n  iszero\n  tag_73\n  jumpi\n    /* \"#utility.yul\":1860:1878   */\n  tag_74\n  tag_67\n  jump\t// in\ntag_74:\n    /* \"#utility.yul\":1830:1832   */\ntag_73:\n    /* \"#utility.yul\":1910:1911   */\n  0x01\n    /* \"#utility.yul\":1900:1908   */\n  dup6\n    /* \"#utility.yul\":1896:1912   */\n  and\n    /* \"#utility.yul\":1893:1895   */\n  iszero\n  tag_75\n  jumpi\n    /* \"#utility.yul\":2325:2329   */\n  dup1\n    /* \"#utility.yul\":2318:2323   */\n  dup3\n    /* \"#utility.yul\":2314:2330   */\n  mul\n    /* \"#utility.yul\":2305:2330   */\n  swap2\n  pop\n    /* \"#utility.yul\":1893:1895   */\ntag_75:\n    /* \"#utility.yul\":2375:2379   */\n  dup1\n    /* \"#utility.yul\":2369:2373   */\n  dup2\n    /* \"#utility.yul\":2365:2380   */\n  mul\n    /* \"#utility.yul\":2357:2380   */\n  swap1\n  pop\n    /* \"#utility.yul\":2405:2437   */\n  tag_76\n    /* \"#utility.yul\":2428:2436   */\n  dup6\n    /* \"#utility.yul\":2405:2437   */\n  tag_77\n  jump\t// in\ntag_76:\n    /* \"#utility.yul\":2393:2437   */\n  swap5\n  pop\n    /* \"#utility.yul\":1735:2447   */\n  jump(tag_70)\ntag_72:\n    /* \"#utility.yul\":1678:2453   */\n  swap5\n  pop\n  swap5\n  swap3\n  pop\n  pop\n  pop\n  jump\t// out\n    /* \"#utility.yul\":2459:2740   */\ntag_12:\n  0x00\n    /* \"#utility.yul\":2541:2564   */\n  tag_79\n    /* \"#utility.yul\":2559:2563   */\n  dup3\n    /* \"#utility.yul\":2541:2564   */\n  tag_56\n  jump\t// in\ntag_79:\n    /* \"#utility.yul\":2533:2564   */\n  swap2\n  pop\n    /* \"#utility.yul\":2585:2610   */\n  tag_80\n    /* \"#utility.yul\":2601:2609   */\n  dup4\n    /* \"#utility.yul\":2585:2610   */\n  tag_81\n  jump\t// in\ntag_80:\n    /* \"#utility.yul\":2573:2610   */\n  swap3\n  pop\n    /* \"#utility.yul\":2629:2733   */\n  tag_82\n    /* \"#utility.yul\":2666:2732   */\n  0xffffffffffffffffffffffffffffffffffffffffffffffffffffffffffffffff\n    /* \"#utility.yul\":2656:2664   */\n  dup5\n    /* \"#utility.yul\":2650:2654   */\n  dup5\n    /* \"#utility.yul\":2629:2733   */\n  tag_83\n  jump\t// in\ntag_82:\n    /* \"#utility.yul\":2620:2733   */\n  swap1\n  pop\n    /* \"#utility.yul\":2523:2740   */\n  swap3\n  swap2\n  pop\n  pop\n  jump\t// out\n    /* \"#utility.yul\":2746:3819   */\ntag_83:\n  0x00\n    /* \"#utility.yul\":2991:2999   */\n  dup3\n    /* \"#utility.yul\":2981:2983   */\n  tag_85\n  jumpi\n    /* \"#utility.yul\":3012:3013   */\n  0x01\n    /* \"#utility.yul\":3003:3013   */\n  swap1\n  pop\n    /* \"#utility.yul\":3014:3019   */\n  jump(tag_84)\n    /* \"#utility.yul\":2981:2983   */\ntag_85:\n    /* \"#utility.yul\":3040:3044   */\n  dup2\n    /* \"#utility.yul\":3030:3032   */\n  tag_86\n  jumpi\n    /* \"#utility.yul\":3057:3058   */\n  0x00\n    /* \"#utility.yul\":3048:3058   */\n  swap1\n  pop\n    /* \"#utility.yul\":3059:3064   */\n  jump(tag_84)\n    /* \"#utility.yul\":3030:3032   */\ntag_86:\n    /* \"#utility.yul\":3126:3130   */\n  dup2\n    /* \"#utility.yul\":3174:3175   */\n  0x01\n    /* \"#utility.yul\":3169:3196   */\n  dup2\n  eq\n  tag_88\n  jumpi\n    /* \"#utility.yul\":3210:3211   */\n  0x02\n    /* \"#utility.yul\":3205:3396   */\n  dup2\n  eq\n  tag_89\n  jumpi\n    /* \"#utility.yul\":3119:3396   */\n  jump(tag_87)\n    /* \"#utility.yul\":3169:3196   */\ntag_88:\n    /* \"#utility.yul\":3187:3188   */\n  0x01\n    /* \"#utility.yul\":3178:3188   */\n  swap2\n  pop\n    /* \"#utility.yul\":3189:3194   */\n  pop\n  jump(tag_84)\n    /* \"#utility.yul\":3205:3396   */\ntag_89:\n    /* \"#utility.yul\":3250:3253   */\n  0xff\n    /* \"#utility.yul\":3240:3248   */\n  dup5\n    /* \"#utility.yul\":3237:3254   */\n  gt\n    /* \"#utility.yul\":3234:3236   */\n  iszero\n  tag_90\n  jumpi\n    /* \"#utility.yul\":3257:3275   */\n  tag_91\n  tag_67\n  jump\t// in\ntag_91:\n    /* \"#utility.yul\":3234:3236   */\ntag_90:\n    /* \"#utility.yul\":3306:3314   */\n  dup4\n    /* \"#utility.yul\":3303:3304   */\n  0x02\n    /* \"#utility.yul\":3299:3315   */\n  exp\n    /* \"#utility.yul\":3290:3315   */\n  swap2\n  pop\n    /* \"#utility.yul\":3341:3344   */\n  dup5\n    /* \"#utility.yul\":3334:3339   */\n  dup3\n    /* \"#utility.yul\":3331:3345   */\n  gt\n    /* \"#utility.yul\":3328:3330   */\n  iszero\n  tag_92\n  jumpi\n    /* \"#utility.yul\":3348:3366   */\n  tag_93\n  tag_67\n  jump\t// in\ntag_93:\n    /* \"#utility.yul\":3328:3330   */\ntag_92:\n    /* \"#utility.yul\":3381:3386   */\n  pop\n  jump(tag_84)\n    /* \"#utility.yul\":3119:3396   */\ntag_87:\n  pop\n    /* \"#utility.yul\":3505:3507   */\n  0x20\n    /* \"#utility.yul\":3495:3503   */\n  dup4\n    /* \"#utility.yul\":3492:3508   */\n  lt\n    /* \"#utility.yul\":3486:3489   */\n  0x0133\n    /* \"#utility.yul\":3480:3484   */\n  dup4\n    /* \"#utility.yul\":3477:3490   */\n  lt\n    /* \"#utility.yul\":3473:3509   */\n  and\n    /* \"#utility.yul\":3455:3457   */\n  0x4e\n    /* \"#utility.yul\":3445:3453   */\n  dup5\n    /* \"#utility.yul\":3442:3458   */\n  lt\n    /* \"#utility.yul\":3437:3439   */\n  0x0b\n    /* \"#utility.yul\":3431:3435   */\n  dup5\n    /* \"#utility.yul\":3428:3440   */\n  lt\n    /* \"#utility.yul\":3424:3459   */\n  and\n    /* \"#utility.yul\":3408:3519   */\n  or\n    /* \"#utility.yul\":3405:3407   */\n  iszero\n  tag_94\n  jumpi\n    /* \"#utility.yul\":3561:3569   */\n  dup3\n    /* \"#utility.yul\":3555:3559   */\n  dup3\n    /* \"#utility.yul\":3551:3570   */\n  exp\n    /* \"#utility.yul\":3542:3570   */\n  swap1\n  pop\n    /* \"#utility.yul\":3596:3599   */\n  dup4\n    /* \"#utility.yul\":3589:3594   */\n  dup2\n    /* \"#utility.yul\":3586:3600   */\n  gt\n    /* \"#utility.yul\":3583:3585   */\n  iszero\n  tag_95\n  jumpi\n    /* \"#utility.yul\":3603:3621   */\n  tag_96\n  tag_67\n  jump\t// in\ntag_96:\n    /* \"#utility.yul\":3583:3585   */\ntag_95:\n    /* \"#utility.yul\":3636:3641   */\n  jump(tag_84)\n    /* \"#utility.yul\":3405:3407   */\ntag_94:\n    /* \"#utility.yul\":3676:3718   */\n  tag_97\n    /* \"#utility.yul\":3714:3717   */\n  dup5\n    /* \"#utility.yul\":3704:3712   */\n  dup5\n    /* \"#utility.yul\":3698:3702   */\n  dup5\n    /* \"#utility.yul\":3695:3696   */\n  0x01\n    /* \"#utility.yul\":3676:3718   */\n  tag_68\n  jump\t// in\ntag_97:\n    /* \"#utility.yul\":3661:3718   */\n  swap3\n  pop\n  swap1\n  pop\n    /* \"#utility.yul\":3750:3754   */\n  dup2\n    /* \"#utility.yul\":3745:3748   */\n  dup5\n    /* \"#utility.yul\":3741:3755   */\n  div\n    /* \"#utility.yul\":3734:3739   */\n  dup2\n    /* \"#utility.yul\":3731:3756   */\n  gt\n    /* \"#utility.yul\":3728:3730   */\n  iszero\n  tag_98\n  jumpi\n    /* \"#utility.yul\":3759:3777   */\n  tag_99\n  tag_67\n  jump\t// in\ntag_99:\n    /* \"#utility.yul\":3728:3730   */\ntag_98:\n    /* \"#utility.yul\":3808:3812   */\n  dup2\n    /* \"#utility.yul\":3801:3806   */\n  dup2\n    /* \"#utility.yul\":3797:3813   */\n  mul\n    /* \"#utility.yul\":3788:3813   */\n  swap1\n  pop\n    /* \"#utility.yul\":2806:3819   */\ntag_84:\n  swap4\n  swap3\n  pop\n  pop\n  pop\n  jump\t// out\n    /* \"#utility.yul\":3825:4173   */\ntag_14:\n  0x00\n    /* \"#utility.yul\":3888:3908   */\n  tag_101\n    /* \"#utility.yul\":3906:3907   */\n  dup3\n    /* \"#utility.yul\":3888:3908   */\n  tag_56\n  jump\t// in\ntag_101:\n    /* \"#utility.yul\":3883:3908   */\n  swap2\n  pop\n    /* \"#utility.yul\":3922:3942   */\n  tag_102\n    /* \"#utility.yul\":3940:3941   */\n  dup4\n    /* \"#utility.yul\":3922:3942   */\n  tag_56\n  jump\t// in\ntag_102:\n    /* \"#utility.yul\":3917:3942   */\n  swap3\n  pop\n    /* \"#utility.yul\":4110:4111   */\n  dup2\n    /* \"#utility.yul\":4042:4108   */\n  0xffffffffffffffffffffffffffffffffffffffffffffffffffffffffffffffff\n    /* \"#utility.yul\":4038:4112   */\n  div\n    /* \"#utility.yul\":4035:4036   */\n  dup4\n    /* \"#utility.yul\":4032:4113   */\n  gt\n    /* \"#utility.yul\":4027:4028   */\n  dup3\n    /* \"#utility.yul\":4020:4029   */\n  iszero\n    /* \"#utility.yul\":4013:4030   */\n  iszero\n    /* \"#utility.yul\":4009:4114   */\n  and\n    /* \"#utility.yul\":4006:4008   */\n  iszero\n  tag_103\n  jumpi\n    /* \"#utility.yul\":4117:4135   */\n  tag_104\n  tag_67\n  jump\t// in\ntag_104:\n    /* \"#utility.yul\":4006:4008   */\ntag_103:\n    /* \"#utility.yul\":4165:4166   */\n  dup3\n    /* \"#utility.yul\":4162:4163   */\n  dup3\n    /* \"#utility.yul\":4158:4167   */\n  mul\n    /* \"#utility.yul\":4147:4167   */\n  swap1\n  pop\n    /* \"#utility.yul\":3873:4173   */\n  swap3\n  swap2\n  pop\n  pop\n  jump\t// out\n    /* \"#utility.yul\":4179:4256   */\ntag_56:\n  0x00\n    /* \"#utility.yul\":4245:4250   */\n  dup2\n    /* \"#utility.yul\":4234:4250   */\n  swap1\n  pop\n    /* \"#utility.yul\":4224:4256   */\n  swap2\n  swap1\n  pop\n  jump\t// out\n    /* \"#utility.yul\":4262:4348   */\ntag_81:\n  0x00\n    /* \"#utility.yul\":4337:4341   */\n  0xff\n    /* \"#utility.yul\":4330:4335   */\n  dup3\n    /* \"#utility.yul\":4326:4342   */\n  and\n    /* \"#utility.yul\":4315:4342   */\n  swap1\n  pop\n    /* \"#utility.yul\":4305:4348   */\n  swap2\n  swap1\n  pop\n  jump\t// out\n    /* \"#utility.yul\":4354:4674   */\ntag_38:\n  0x00\n    /* \"#utility.yul\":4435:4436   */\n  0x02\n    /* \"#utility.yul\":4429:4433   */\n  dup3\n    /* \"#utility.yul\":4425:4437   */\n  div\n    /* \"#utility.yul\":4415:4437   */\n  swap1\n  pop\n    /* \"#utility.yul\":4482:4483   */\n  0x01\n    /* \"#utility.yul\":4476:4480   */\n  dup3\n    /* \"#utility.yul\":4472:4484   */\n  and\n    /* \"#utility.yul\":4503:4521   */\n  dup1\n    /* \"#utility.yul\":4493:4495   */\n  tag_108\n  jumpi\n    /* \"#utility.yul\":4559:4563   */\n  0x7f\n    /* \"#utility.yul\":4551:4557   */\n  dup3\n    /* \"#utility.yul\":4547:4564   */\n  and\n    /* \"#utility.yul\":4537:4564   */\n  swap2\n  pop\n    /* \"#utility.yul\":4493:4495   */\ntag_108:\n    /* \"#utility.yul\":4621:4623   */\n  0x20\n    /* \"#utility.yul\":4613:4619   */\n  dup3\n    /* \"#utility.yul\":4610:4624   */\n  lt\n    /* \"#utility.yul\":4590:4608   */\n  dup2\n    /* \"#utility.yul\":4587:4625   */\n  eq\n    /* \"#utility.yul\":4584:4586   */\n  iszero\n  tag_109\n  jumpi\n    /* \"#utility.yul\":4640:4658   */\n  tag_110\n  tag_111\n  jump\t// in\ntag_110:\n    /* \"#utility.yul\":4584:4586   */\ntag_109:\n    /* \"#utility.yul\":4405:4674   */\n  pop\n  swap2\n  swap1\n  pop\n  jump\t// out\n    /* \"#utility.yul\":4680:4860   */\ntag_67:\n    /* \"#utility.yul\":4728:4805   */\n  0x4e487b7100000000000000000000000000000000000000000000000000000000\n    /* \"#utility.yul\":4725:4726   */\n  0x00\n    /* \"#utility.yul\":4718:4806   */\n  mstore\n    /* \"#utility.yul\":4825:4829   */\n  0x11\n    /* \"#utility.yul\":4822:4823   */\n  0x04\n    /* \"#utility.yul\":4815:4830   */\n  mstore\n    /* \"#utility.yul\":4849:4853   */\n  0x24\n    /* \"#utility.yul\":4846:4847   */\n  0x00\n    /* \"#utility.yul\":4839:4854   */\n  revert\n    /* \"#utility.yul\":4866:5046   */\ntag_111:\n    /* \"#utility.yul\":4914:4991   */\n  0x4e487b7100000000000000000000000000000000000000000000000000000000\n    /* \"#utility.yul\":4911:4912   */\n  0x00\n    /* \"#utility.yul\":4904:4992   */\n  mstore\n    /* \"#utility.yul\":5011:5015   */\n  0x22\n    /* \"#utility.yul\":5008:5009   */\n  0x04\n    /* \"#utility.yul\":5001:5016   */\n  mstore\n    /* \"#utility.yul\":5035:5039   */\n  0x24\n    /* \"#utility.yul\":5032:5033   */\n  0x00\n    /* \"#utility.yul\":5025:5040   */\n  revert\n    /* \"#utility.yul\":5052:5154   */\ntag_77:\n  0x00\n    /* \"#utility.yul\":5141:5146   */\n  dup2\n    /* \"#utility.yul\":5138:5139   */\n  0x01\n    /* \"#utility.yul\":5134:5147   */\n  shr\n    /* \"#utility.yul\":5113:5147   */\n  swap1\n  pop\n    /* \"#utility.yul\":5103:5154   */\n  swap2\n  swap1\n  pop\n  jump\t// out\n    /* \"contracts/MyToken.sol\":168:2594  contract ScamPump is ERC20 {... */\ntag_22:\n  dataSize(sub_0)\n  dup1\n  dataOffset(sub_0)\n  0x00\n  codecopy\n  0x00\n  return\nstop\n\nsub_0: assembly {\n        /* \"contracts/MyToken.sol\":168:2594  contract ScamPump is ERC20 {... */\n      mstore(0x40, 0x80)\n      callvalue\n      dup1\n      iszero\n      tag_1\n      jumpi\n      0x00\n      dup1\n      revert\n    tag_1:\n      pop\n      jumpi(tag_2, lt(calldatasize, 0x04))\n      shr(0xe0, calldataload(0x00))\n      dup1\n      0x8da5cb5b\n      gt\n      tag_24\n      jumpi\n      dup1\n      0xca4b208b\n      gt\n      tag_25\n      jumpi\n      dup1\n      0xca4b208b\n      eq\n      tag_18\n      jumpi\n      dup1\n      0xcfff3e5a\n      eq\n      tag_19\n      jumpi\n      dup1\n      0xd13a0991\n      eq\n      tag_20\n      jumpi\n      dup1\n      0xd5abeb01\n      eq\n      tag_21\n      jumpi\n      dup1\n      0xdd62ed3e\n      eq\n      tag_22\n      jumpi\n      dup1\n      0xf847a11f\n      eq\n      tag_23\n      jumpi\n      jump(tag_2)\n    tag_25:\n      dup1\n      0x8da5cb5b\n      eq\n      tag_13\n      jumpi\n      dup1\n      0x95d89b41\n      eq\n      tag_14\n      jumpi\n      dup1\n      0x9ed3edf0\n      eq\n      tag_15\n      jumpi\n      dup1\n      0xa457c2d7\n      eq\n      tag_16\n      jumpi\n      dup1\n      0xa9059cbb\n      eq\n      tag_17\n      jumpi\n      jump(tag_2)\n    tag_24:\n      dup1\n      0x313ce567\n      gt\n      tag_26\n      jumpi\n      dup1\n      0x313ce567\n      eq\n      tag_8\n      jumpi\n      dup1\n      0x39509351\n      eq\n      tag_9\n      jumpi\n      dup1\n      0x4f6d38d0\n      eq\n      tag_10\n      jumpi\n      dup1\n      0x513bd601\n      eq\n      tag_11\n      jumpi\n      dup1\n      0x70a08231\n      eq\n      tag_12\n      jumpi\n      jump(tag_2)\n    tag_26:\n      dup1\n      0x06fdde03\n      eq\n      tag_3\n      jumpi\n      dup1\n      0x095ea7b3\n      eq\n      tag_4\n      jumpi\n      dup1\n      0x096a8ab7\n      eq\n      tag_5\n      jumpi\n      dup1\n      0x18160ddd\n      eq\n      tag_6\n      jumpi\n      dup1\n      0x23b872dd\n      eq\n      tag_7\n      jumpi\n    tag_2:\n      0x00\n      dup1\n      revert\n        /* \"https://github.com/OpenZeppelin/openzeppelin-contracts/blob/master/contracts/token/ERC20/ERC20.sol\":2158:2256  function name() public view virtual override returns (string memory) {... */\n    tag_3:\n      tag_27\n      tag_28\n      jump\t// in\n    tag_27:\n      mload(0x40)\n      tag_29\n      swap2\n      swap1\n      tag_30\n      jump\t// in\n    tag_29:\n      mload(0x40)\n      dup1\n      swap2\n      sub\n      swap1\n      return\n        /* \"https://github.com/OpenZeppelin/openzeppelin-contracts/blob/master/contracts/token/ERC20/ERC20.sol\":4444:4641  function approve(address spender, uint256 amount) public virtual override returns (bool) {... */\n    tag_4:\n      tag_31\n      0x04\n      dup1\n      calldatasize\n      sub\n      dup2\n      add\n      swap1\n      tag_32\n      swap2\n      swap1\n      tag_33\n      jump\t// in\n    tag_32:\n      tag_34\n      jump\t// in\n    tag_31:\n      mload(0x40)\n      tag_35\n      swap2\n      swap1\n      tag_36\n      jump\t// in\n    tag_35:\n      mload(0x40)\n      dup1\n      swap2\n      sub\n      swap1\n      return\n        /* \"contracts/MyToken.sol\":969:1089  function setTransactionFee(uint256 _transactionFee) external onlyOwner {... */\n    tag_5:\n      tag_37\n      0x04\n      dup1\n      calldatasize\n      sub\n      dup2\n      add\n      swap1\n      tag_38\n      swap2\n      swap1\n      tag_39\n      jump\t// in\n    tag_38:\n      tag_40\n      jump\t// in\n    tag_37:\n      stop\n        /* \"https://github.com/OpenZeppelin/openzeppelin-contracts/blob/master/contracts/token/ERC20/ERC20.sol\":3255:3361  function totalSupply() public view virtual override returns (uint256) {... */\n    tag_6:\n      tag_41\n      tag_42\n      jump\t// in\n    tag_41:\n      mload(0x40)\n      tag_43\n      swap2\n      swap1\n      tag_44\n      jump\t// in\n    tag_43:\n      mload(0x40)\n      dup1\n      swap2\n      sub\n      swap1\n      return\n        /* \"https://github.com/OpenZeppelin/openzeppelin-contracts/blob/master/contracts/token/ERC20/ERC20.sol\":5203:5459  function transferFrom(address from, address to, uint256 amount) public virtual override returns (bool) {... */\n    tag_7:\n      tag_45\n      0x04\n      dup1\n      calldatasize\n      sub\n      dup2\n      add\n      swap1\n      tag_46\n      swap2\n      swap1\n      tag_47\n      jump\t// in\n    tag_46:\n      tag_48\n      jump\t// in\n    tag_45:\n      mload(0x40)\n      tag_49\n      swap2\n      swap1\n      tag_36\n      jump\t// in\n    tag_49:\n      mload(0x40)\n      dup1\n      swap2\n      sub\n      swap1\n      return\n        /* \"https://github.com/OpenZeppelin/openzeppelin-contracts/blob/master/contracts/token/ERC20/ERC20.sol\":3104:3195  function decimals() public view virtual override returns (uint8) {... */\n    tag_8:\n      tag_50\n      tag_51\n      jump\t// in\n    tag_50:\n      mload(0x40)\n      tag_52\n      swap2\n      swap1\n      tag_53\n      jump\t// in\n    tag_52:\n      mload(0x40)\n      dup1\n      swap2\n      sub\n      swap1\n      return\n        /* \"https://github.com/OpenZeppelin/openzeppelin-contracts/blob/master/contracts/token/ERC20/ERC20.sol\":5854:6088  function increaseAllowance(address spender, uint256 addedValue) public virtual returns (bool) {... */\n    tag_9:\n      tag_54\n      0x04\n      dup1\n      calldatasize\n      sub\n      dup2\n      add\n      swap1\n      tag_55\n      swap2\n      swap1\n      tag_33\n      jump\t// in\n    tag_55:\n      tag_56\n      jump\t// in\n    tag_54:\n      mload(0x40)\n      tag_57\n      swap2\n      swap1\n      tag_36\n      jump\t// in\n    tag_57:\n      mload(0x40)\n      dup1\n      swap2\n      sub\n      swap1\n      return\n        /* \"contracts/MyToken.sol\":288:316  uint256 public burnThreshold */\n    tag_10:\n      tag_58\n      tag_59\n      jump\t// in\n    tag_58:\n      mload(0x40)\n      tag_60\n      swap2\n      swap1\n      tag_44\n      jump\t// in\n    tag_60:\n      mload(0x40)\n      dup1\n      swap2\n      sub\n      swap1\n      return\n        /* \"contracts/MyToken.sol\":397:430  bool public initialPurchaseActive */\n    tag_11:\n      tag_61\n      tag_62\n      jump\t// in\n    tag_61:\n      mload(0x40)\n      tag_63\n      swap2\n      swap1\n      tag_36\n      jump\t// in\n    tag_63:\n      mload(0x40)\n      dup1\n      swap2\n      sub\n      swap1\n      return\n        /* \"https://github.com/OpenZeppelin/openzeppelin-contracts/blob/master/contracts/token/ERC20/ERC20.sol\":3419:3544  function balanceOf(address account) public view virtual override returns (uint256) {... */\n    tag_12:\n      tag_64\n      0x04\n      dup1\n      calldatasize\n      sub\n      dup2\n      add\n      swap1\n      tag_65\n      swap2\n      swap1\n      tag_66\n      jump\t// in\n    tag_65:\n      tag_67\n      jump\t// in\n    tag_64:\n      mload(0x40)\n      tag_68\n      swap2\n      swap1\n      tag_44\n      jump\t// in\n    tag_68:\n      mload(0x40)\n      dup1\n      swap2\n      sub\n      swap1\n      return\n        /* \"contracts/MyToken.sol\":202:222  address public owner */\n    tag_13:\n      tag_69\n      tag_70\n      jump\t// in\n    tag_69:\n      mload(0x40)\n      tag_71\n      swap2\n      swap1\n      tag_72\n      jump\t// in\n    tag_71:\n      mload(0x40)\n      dup1\n      swap2\n      sub\n      swap1\n      return\n        /* \"https://github.com/OpenZeppelin/openzeppelin-contracts/blob/master/contracts/token/ERC20/ERC20.sol\":2369:2471  function symbol() public view virtual override returns (string memory) {... */\n    tag_14:\n      tag_73\n      tag_74\n      jump\t// in\n    tag_73:\n      mload(0x40)\n      tag_75\n      swap2\n      swap1\n      tag_30\n      jump\t// in\n    tag_75:\n      mload(0x40)\n      dup1\n      swap2\n      sub\n      swap1\n      return\n        /* \"contracts/MyToken.sol\":322:351  uint256 public transactionFee */\n    tag_15:\n      tag_76\n      tag_77\n      jump\t// in\n    tag_76:\n      mload(0x40)\n      tag_78\n      swap2\n      swap1\n      tag_44\n      jump\t// in\n    tag_78:\n      mload(0x40)\n      dup1\n      swap2\n      sub\n      swap1\n      return\n        /* \"https://github.com/OpenZeppelin/openzeppelin-contracts/blob/master/contracts/token/ERC20/ERC20.sol\":6575:7002  function decreaseAllowance(address spender, uint256 subtractedValue) public virtual returns (bool) {... */\n    tag_16:\n      tag_79\n      0x04\n      dup1\n      calldatasize\n      sub\n      dup2\n      add\n      swap1\n      tag_80\n      swap2\n      swap1\n      tag_33\n      jump\t// in\n    tag_80:\n      tag_81\n      jump\t// in\n    tag_79:\n      mload(0x40)\n      tag_82\n      swap2\n      swap1\n      tag_36\n      jump\t// in\n    tag_82:\n      mload(0x40)\n      dup1\n      swap2\n      sub\n      swap1\n      return\n        /* \"contracts/MyToken.sol\":1392:2591  function transfer(address recipient, uint256 amount) public virtual override returns (bool) {... */\n    tag_17:\n      tag_83\n      0x04\n      dup1\n      calldatasize\n      sub\n      dup2\n      add\n      swap1\n      tag_84\n      swap2\n      swap1\n      tag_33\n      jump\t// in\n    tag_84:\n      tag_85\n      jump\t// in\n    tag_83:\n      mload(0x40)\n      tag_86\n      swap2\n      swap1\n      tag_36\n      jump\t// in\n    tag_86:\n      mload(0x40)\n      dup1\n      swap2\n      sub\n      swap1\n      return\n        /* \"contracts/MyToken.sol\":228:252  address public developer */\n    tag_18:\n      tag_87\n      tag_88\n      jump\t// in\n    tag_87:\n      mload(0x40)\n      tag_89\n      swap2\n      swap1\n      tag_72\n      jump\t// in\n    tag_89:\n      mload(0x40)\n      dup1\n      swap2\n      sub\n      swap1\n      return\n        /* \"contracts/MyToken.sol\":1241:1386  function setInitialPurchaseActive(bool _initialPurchaseActive) external onlyOwner {... */\n    tag_19:\n      tag_90\n      0x04\n      dup1\n      calldatasize\n      sub\n      dup2\n      add\n      swap1\n      tag_91\n      swap2\n      swap1\n      tag_92\n      jump\t// in\n    tag_91:\n      tag_93\n      jump\t// in\n    tag_90:\n      stop\n        /* \"contracts/MyToken.sol\":1095:1235  function setInitialPurchaseTime(uint256 _initialPurchaseTime) external onlyOwner {... */\n    tag_20:\n      tag_94\n      0x04\n      dup1\n      calldatasize\n      sub\n      dup2\n      add\n      swap1\n      tag_95\n      swap2\n      swap1\n      tag_39\n      jump\t// in\n    tag_95:\n      tag_96\n      jump\t// in\n    tag_94:\n      stop\n        /* \"contracts/MyToken.sol\":258:282  uint256 public maxSupply */\n    tag_21:\n      tag_97\n      tag_98\n      jump\t// in\n    tag_97:\n      mload(0x40)\n      tag_99\n      swap2\n      swap1\n      tag_44\n      jump\t// in\n    tag_99:\n      mload(0x40)\n      dup1\n      swap2\n      sub\n      swap1\n      return\n        /* \"https://github.com/OpenZeppelin/openzeppelin-contracts/blob/master/contracts/token/ERC20/ERC20.sol\":3987:4136  function allowance(address owner, address spender) public view virtual override returns (uint256) {... */\n    tag_22:\n      tag_100\n      0x04\n      dup1\n      calldatasize\n      sub\n      dup2\n      add\n      swap1\n      tag_101\n      swap2\n      swap1\n      tag_102\n      jump\t// in\n    tag_101:\n      tag_103\n      jump\t// in\n    tag_100:\n      mload(0x40)\n      tag_104\n      swap2\n      swap1\n      tag_44\n      jump\t// in\n    tag_104:\n      mload(0x40)\n      dup1\n      swap2\n      sub\n      swap1\n      return\n        /* \"contracts/MyToken.sol\":357:391  uint256 public initialPurchaseTime */\n    tag_23:\n      tag_105\n      tag_106\n      jump\t// in\n    tag_105:\n      mload(0x40)\n      tag_107\n      swap2\n      swap1\n      tag_44\n      jump\t// in\n    tag_107:\n      mload(0x40)\n      dup1\n      swap2\n      sub\n      swap1\n      return\n        /* \"https://github.com/OpenZeppelin/openzeppelin-contracts/blob/master/contracts/token/ERC20/ERC20.sol\":2158:2256  function name() public view virtual override returns (string memory) {... */\n    tag_28:\n        /* \"https://github.com/OpenZeppelin/openzeppelin-contracts/blob/master/contracts/token/ERC20/ERC20.sol\":2212:2225  string memory */\n      0x60\n        /* \"https://github.com/OpenZeppelin/openzeppelin-contracts/blob/master/contracts/token/ERC20/ERC20.sol\":2244:2249  _name */\n      0x03\n        /* \"https://github.com/OpenZeppelin/openzeppelin-contracts/blob/master/contracts/token/ERC20/ERC20.sol\":2237:2249  return _name */\n      dup1\n      sload\n      tag_109\n      swap1\n      tag_110\n      jump\t// in\n    tag_109:\n      dup1\n      0x1f\n      add\n      0x20\n      dup1\n      swap2\n      div\n      mul\n      0x20\n      add\n      mload(0x40)\n      swap1\n      dup2\n      add\n      0x40\n      mstore\n      dup1\n      swap3\n      swap2\n      swap1\n      dup2\n      dup2\n      mstore\n      0x20\n      add\n      dup3\n      dup1\n      sload\n      tag_111\n      swap1\n      tag_110\n      jump\t// in\n    tag_111:\n      dup1\n      iszero\n      tag_112\n      jumpi\n      dup1\n      0x1f\n      lt\n      tag_113\n      jumpi\n      0x0100\n      dup1\n      dup4\n      sload\n      div\n      mul\n      dup4\n      mstore\n      swap2\n      0x20\n      add\n      swap2\n      jump(tag_112)\n    tag_113:\n      dup3\n      add\n      swap2\n      swap1\n      0x00\n      mstore\n      keccak256(0x00, 0x20)\n      swap1\n    tag_114:\n      dup2\n      sload\n      dup2\n      mstore\n      swap1\n      0x01\n      add\n      swap1\n      0x20\n      add\n      dup1\n      dup4\n      gt\n      tag_114\n      jumpi\n      dup3\n      swap1\n      sub\n      0x1f\n      and\n      dup3\n      add\n      swap2\n    tag_112:\n      pop\n      pop\n      pop\n      pop\n      pop\n      swap1\n      pop\n        /* \"https://github.com/OpenZeppelin/openzeppelin-contracts/blob/master/contracts/token/ERC20/ERC20.sol\":2158:2256  function name() public view virtual override returns (string memory) {... */\n      swap1\n      jump\t// out\n        /* \"https://github.com/OpenZeppelin/openzeppelin-contracts/blob/master/contracts/token/ERC20/ERC20.sol\":4444:4641  function approve(address spender, uint256 amount) public virtual override returns (bool) {... */\n    tag_34:\n        /* \"https://github.com/OpenZeppelin/openzeppelin-contracts/blob/master/contracts/token/ERC20/ERC20.sol\":4527:4531  bool */\n      0x00\n        /* \"https://github.com/OpenZeppelin/openzeppelin-contracts/blob/master/contracts/token/ERC20/ERC20.sol\":4543:4556  address owner */\n      dup1\n        /* \"https://github.com/OpenZeppelin/openzeppelin-contracts/blob/master/contracts/token/ERC20/ERC20.sol\":4559:4571  _msgSender() */\n      tag_116\n        /* \"https://github.com/OpenZeppelin/openzeppelin-contracts/blob/master/contracts/token/ERC20/ERC20.sol\":4559:4569  _msgSender */\n      tag_117\n        /* \"https://github.com/OpenZeppelin/openzeppelin-contracts/blob/master/contracts/token/ERC20/ERC20.sol\":4559:4571  _msgSender() */\n      jump\t// in\n    tag_116:\n        /* \"https://github.com/OpenZeppelin/openzeppelin-contracts/blob/master/contracts/token/ERC20/ERC20.sol\":4543:4571  address owner = _msgSender() */\n      swap1\n      pop\n        /* \"https://github.com/OpenZeppelin/openzeppelin-contracts/blob/master/contracts/token/ERC20/ERC20.sol\":4581:4613  _approve(owner, spender, amount) */\n      tag_118\n        /* \"https://github.com/OpenZeppelin/openzeppelin-contracts/blob/master/contracts/token/ERC20/ERC20.sol\":4590:4595  owner */\n      dup2\n        /* \"https://github.com/OpenZeppelin/openzeppelin-contracts/blob/master/contracts/token/ERC20/ERC20.sol\":4597:4604  spender */\n      dup6\n        /* \"https://github.com/OpenZeppelin/openzeppelin-contracts/blob/master/contracts/token/ERC20/ERC20.sol\":4606:4612  amount */\n      dup6\n        /* \"https://github.com/OpenZeppelin/openzeppelin-contracts/blob/master/contracts/token/ERC20/ERC20.sol\":4581:4589  _approve */\n      tag_119\n        /* \"https://github.com/OpenZeppelin/openzeppelin-contracts/blob/master/contracts/token/ERC20/ERC20.sol\":4581:4613  _approve(owner, spender, amount) */\n      jump\t// in\n    tag_118:\n        /* \"https://github.com/OpenZeppelin/openzeppelin-contracts/blob/master/contracts/token/ERC20/ERC20.sol\":4630:4634  true */\n      0x01\n        /* \"https://github.com/OpenZeppelin/openzeppelin-contracts/blob/master/contracts/token/ERC20/ERC20.sol\":4623:4634  return true */\n      swap2\n      pop\n      pop\n        /* \"https://github.com/OpenZeppelin/openzeppelin-contracts/blob/master/contracts/token/ERC20/ERC20.sol\":4444:4641  function approve(address spender, uint256 amount) public virtual override returns (bool) {... */\n      swap3\n      swap2\n      pop\n      pop\n      jump\t// out\n        /* \"contracts/MyToken.sol\":969:1089  function setTransactionFee(uint256 _transactionFee) external onlyOwner {... */\n    tag_40:\n        /* \"contracts/MyToken.sol\":897:902  owner */\n      0x05\n      0x00\n      swap1\n      sload\n      swap1\n      0x0100\n      exp\n      swap1\n      div\n      0xffffffffffffffffffffffffffffffffffffffff\n      and\n        /* \"contracts/MyToken.sol\":883:902  msg.sender == owner */\n      0xffffffffffffffffffffffffffffffffffffffff\n      and\n        /* \"contracts/MyToken.sol\":883:893  msg.sender */\n      caller\n        /* \"contracts/MyToken.sol\":883:902  msg.sender == owner */\n      0xffffffffffffffffffffffffffffffffffffffff\n      and\n      eq\n        /* \"contracts/MyToken.sol\":875:945  require(msg.sender == owner, \"Only the owner can call this function.\") */\n      tag_121\n      jumpi\n      mload(0x40)\n      0x08c379a000000000000000000000000000000000000000000000000000000000\n      dup2\n      mstore\n      0x04\n      add\n      tag_122\n      swap1\n      tag_123\n      jump\t// in\n    tag_122:\n      mload(0x40)\n      dup1\n      swap2\n      sub\n      swap1\n      revert\n    tag_121:\n        /* \"contracts/MyToken.sol\":1067:1082  _transactionFee */\n      dup1\n        /* \"contracts/MyToken.sol\":1050:1064  transactionFee */\n      0x09\n        /* \"contracts/MyToken.sol\":1050:1082  transactionFee = _transactionFee */\n      dup2\n      swap1\n      sstore\n      pop\n        /* \"contracts/MyToken.sol\":969:1089  function setTransactionFee(uint256 _transactionFee) external onlyOwner {... */\n      pop\n      jump\t// out\n        /* \"https://github.com/OpenZeppelin/openzeppelin-contracts/blob/master/contracts/token/ERC20/ERC20.sol\":3255:3361  function totalSupply() public view virtual override returns (uint256) {... */\n    tag_42:\n        /* \"https://github.com/OpenZeppelin/openzeppelin-contracts/blob/master/contracts/token/ERC20/ERC20.sol\":3316:3323  uint256 */\n      0x00\n        /* \"https://github.com/OpenZeppelin/openzeppelin-contracts/blob/master/contracts/token/ERC20/ERC20.sol\":3342:3354  _totalSupply */\n      sload(0x02)\n        /* \"https://github.com/OpenZeppelin/openzeppelin-contracts/blob/master/contracts/token/ERC20/ERC20.sol\":3335:3354  return _totalSupply */\n      swap1\n      pop\n        /* \"https://github.com/OpenZeppelin/openzeppelin-contracts/blob/master/contracts/token/ERC20/ERC20.sol\":3255:3361  function totalSupply() public view virtual override returns (uint256) {... */\n      swap1\n      jump\t// out\n        /* \"https://github.com/OpenZeppelin/openzeppelin-contracts/blob/master/contracts/token/ERC20/ERC20.sol\":5203:5459  function transferFrom(address from, address to, uint256 amount) public virtual override returns (bool) {... */\n    tag_48:\n        /* \"https://github.com/OpenZeppelin/openzeppelin-contracts/blob/master/contracts/token/ERC20/ERC20.sol\":5300:5304  bool */\n      0x00\n        /* \"https://github.com/OpenZeppelin/openzeppelin-contracts/blob/master/contracts/token/ERC20/ERC20.sol\":5316:5331  address spender */\n      dup1\n        /* \"https://github.com/OpenZeppelin/openzeppelin-contracts/blob/master/contracts/token/ERC20/ERC20.sol\":5334:5346  _msgSender() */\n      tag_127\n        /* \"https://github.com/OpenZeppelin/openzeppelin-contracts/blob/master/contracts/token/ERC20/ERC20.sol\":5334:5344  _msgSender */\n      tag_117\n        /* \"https://github.com/OpenZeppelin/openzeppelin-contracts/blob/master/contracts/token/ERC20/ERC20.sol\":5334:5346  _msgSender() */\n      jump\t// in\n    tag_127:\n        /* \"https://github.com/OpenZeppelin/openzeppelin-contracts/blob/master/contracts/token/ERC20/ERC20.sol\":5316:5346  address spender = _msgSender() */\n      swap1\n      pop\n        /* \"https://github.com/OpenZeppelin/openzeppelin-contracts/blob/master/contracts/token/ERC20/ERC20.sol\":5356:5394  _spendAllowance(from, spender, amount) */\n      tag_128\n        /* \"https://github.com/OpenZeppelin/openzeppelin-contracts/blob/master/contracts/token/ERC20/ERC20.sol\":5372:5376  from */\n      dup6\n        /* \"https://github.com/OpenZeppelin/openzeppelin-contracts/blob/master/contracts/token/ERC20/ERC20.sol\":5378:5385  spender */\n      dup3\n        /* \"https://github.com/OpenZeppelin/openzeppelin-contracts/blob/master/contracts/token/ERC20/ERC20.sol\":5387:5393  amount */\n      dup6\n        /* \"https://github.com/OpenZeppelin/openzeppelin-contracts/blob/master/contracts/token/ERC20/ERC20.sol\":5356:5371  _spendAllowance */\n      tag_129\n        /* \"https://github.com/OpenZeppelin/openzeppelin-contracts/blob/master/contracts/token/ERC20/ERC20.sol\":5356:5394  _spendAllowance(from, spender, amount) */\n      jump\t// in\n    tag_128:\n        /* \"https://github.com/OpenZeppelin/openzeppelin-contracts/blob/master/contracts/token/ERC20/ERC20.sol\":5404:5431  _transfer(from, to, amount) */\n      tag_130\n        /* \"https://github.com/OpenZeppelin/openzeppelin-contracts/blob/master/contracts/token/ERC20/ERC20.sol\":5414:5418  from */\n      dup6\n        /* \"https://github.com/OpenZeppelin/openzeppelin-contracts/blob/master/contracts/token/ERC20/ERC20.sol\":5420:5422  to */\n      dup6\n        /* \"https://github.com/OpenZeppelin/openzeppelin-contracts/blob/master/contracts/token/ERC20/ERC20.sol\":5424:5430  amount */\n      dup6\n        /* \"https://github.com/OpenZeppelin/openzeppelin-contracts/blob/master/contracts/token/ERC20/ERC20.sol\":5404:5413  _transfer */\n      tag_131\n        /* \"https://github.com/OpenZeppelin/openzeppelin-contracts/blob/master/contracts/token/ERC20/ERC20.sol\":5404:5431  _transfer(from, to, amount) */\n      jump\t// in\n    tag_130:\n        /* \"https://github.com/OpenZeppelin/openzeppelin-contracts/blob/master/contracts/token/ERC20/ERC20.sol\":5448:5452  true */\n      0x01\n        /* \"https://github.com/OpenZeppelin/openzeppelin-contracts/blob/master/contracts/token/ERC20/ERC20.sol\":5441:5452  return true */\n      swap2\n      pop\n      pop\n        /* \"https://github.com/OpenZeppelin/openzeppelin-contracts/blob/master/contracts/token/ERC20/ERC20.sol\":5203:5459  function transferFrom(address from, address to, uint256 amount) public virtual override returns (bool) {... */\n      swap4\n      swap3\n      pop\n      pop\n      pop\n      jump\t// out\n        /* \"https://github.com/OpenZeppelin/openzeppelin-contracts/blob/master/contracts/token/ERC20/ERC20.sol\":3104:3195  function decimals() public view virtual override returns (uint8) {... */\n    tag_51:\n        /* \"https://github.com/OpenZeppelin/openzeppelin-contracts/blob/master/contracts/token/ERC20/ERC20.sol\":3162:3167  uint8 */\n      0x00\n        /* \"https://github.com/OpenZeppelin/openzeppelin-contracts/blob/master/contracts/token/ERC20/ERC20.sol\":3186:3188  18 */\n      0x12\n        /* \"https://github.com/OpenZeppelin/openzeppelin-contracts/blob/master/contracts/token/ERC20/ERC20.sol\":3179:3188  return 18 */\n      swap1\n      pop\n        /* \"https://github.com/OpenZeppelin/openzeppelin-contracts/blob/master/contracts/token/ERC20/ERC20.sol\":3104:3195  function decimals() public view virtual override returns (uint8) {... */\n      swap1\n      jump\t// out\n        /* \"https://github.com/OpenZeppelin/openzeppelin-contracts/blob/master/contracts/token/ERC20/ERC20.sol\":5854:6088  function increaseAllowance(address spender, uint256 addedValue) public virtual returns (bool) {... */\n    tag_56:\n        /* \"https://github.com/OpenZeppelin/openzeppelin-contracts/blob/master/contracts/token/ERC20/ERC20.sol\":5942:5946  bool */\n      0x00\n        /* \"https://github.com/OpenZeppelin/openzeppelin-contracts/blob/master/contracts/token/ERC20/ERC20.sol\":5958:5971  address owner */\n      dup1\n        /* \"https://github.com/OpenZeppelin/openzeppelin-contracts/blob/master/contracts/token/ERC20/ERC20.sol\":5974:5986  _msgSender() */\n      tag_134\n        /* \"https://github.com/OpenZeppelin/openzeppelin-contracts/blob/master/contracts/token/ERC20/ERC20.sol\":5974:5984  _msgSender */\n      tag_117\n        /* \"https://github.com/OpenZeppelin/openzeppelin-contracts/blob/master/contracts/token/ERC20/ERC20.sol\":5974:5986  _msgSender() */\n      jump\t// in\n    tag_134:\n        /* \"https://github.com/OpenZeppelin/openzeppelin-contracts/blob/master/contracts/token/ERC20/ERC20.sol\":5958:5986  address owner = _msgSender() */\n      swap1\n      pop\n        /* \"https://github.com/OpenZeppelin/openzeppelin-contracts/blob/master/contracts/token/ERC20/ERC20.sol\":5996:6060  _approve(owner, spender, allowance(owner, spender) + addedValue) */\n      tag_135\n        /* \"https://github.com/OpenZeppelin/openzeppelin-contracts/blob/master/contracts/token/ERC20/ERC20.sol\":6005:6010  owner */\n      dup2\n        /* \"https://github.com/OpenZeppelin/openzeppelin-contracts/blob/master/contracts/token/ERC20/ERC20.sol\":6012:6019  spender */\n      dup6\n        /* \"https://github.com/OpenZeppelin/openzeppelin-contracts/blob/master/contracts/token/ERC20/ERC20.sol\":6049:6059  addedValue */\n      dup6\n        /* \"https://github.com/OpenZeppelin/openzeppelin-contracts/blob/master/contracts/token/ERC20/ERC20.sol\":6021:6046  allowance(owner, spender) */\n      tag_136\n        /* \"https://github.com/OpenZeppelin/openzeppelin-contracts/blob/master/contracts/token/ERC20/ERC20.sol\":6031:6036  owner */\n      dup6\n        /* \"https://github.com/OpenZeppelin/openzeppelin-contracts/blob/master/contracts/token/ERC20/ERC20.sol\":6038:6045  spender */\n      dup10\n        /* \"https://github.com/OpenZeppelin/openzeppelin-contracts/blob/master/contracts/token/ERC20/ERC20.sol\":6021:6030  allowance */\n      tag_103\n        /* \"https://github.com/OpenZeppelin/openzeppelin-contracts/blob/master/contracts/token/ERC20/ERC20.sol\":6021:6046  allowance(owner, spender) */\n      jump\t// in\n    tag_136:\n        /* \"https://github.com/OpenZeppelin/openzeppelin-contracts/blob/master/contracts/token/ERC20/ERC20.sol\":6021:6059  allowance(owner, spender) + addedValue */\n      tag_137\n      swap2\n      swap1\n      tag_138\n      jump\t// in\n    tag_137:\n        /* \"https://github.com/OpenZeppelin/openzeppelin-contracts/blob/master/contracts/token/ERC20/ERC20.sol\":5996:6004  _approve */\n      tag_119\n        /* \"https://github.com/OpenZeppelin/openzeppelin-contracts/blob/master/contracts/token/ERC20/ERC20.sol\":5996:6060  _approve(owner, spender, allowance(owner, spender) + addedValue) */\n      jump\t// in\n    tag_135:\n        /* \"https://github.com/OpenZeppelin/openzeppelin-contracts/blob/master/contracts/token/ERC20/ERC20.sol\":6077:6081  true */\n      0x01\n        /* \"https://github.com/OpenZeppelin/openzeppelin-contracts/blob/master/contracts/token/ERC20/ERC20.sol\":6070:6081  return true */\n      swap2\n      pop\n      pop\n        /* \"https://github.com/OpenZeppelin/openzeppelin-contracts/blob/master/contracts/token/ERC20/ERC20.sol\":5854:6088  function increaseAllowance(address spender, uint256 addedValue) public virtual returns (bool) {... */\n      swap3\n      swap2\n      pop\n      pop\n      jump\t// out\n        /* \"contracts/MyToken.sol\":288:316  uint256 public burnThreshold */\n    tag_59:\n      sload(0x08)\n      dup2\n      jump\t// out\n        /* \"contracts/MyToken.sol\":397:430  bool public initialPurchaseActive */\n    tag_62:\n      0x0b\n      0x00\n      swap1\n      sload\n      swap1\n      0x0100\n      exp\n      swap1\n      div\n      0xff\n      and\n      dup2\n      jump\t// out\n        /* \"https://github.com/OpenZeppelin/openzeppelin-contracts/blob/master/contracts/token/ERC20/ERC20.sol\":3419:3544  function balanceOf(address account) public view virtual override returns (uint256) {... */\n    tag_67:\n        /* \"https://github.com/OpenZeppelin/openzeppelin-contracts/blob/master/contracts/token/ERC20/ERC20.sol\":3493:3500  uint256 */\n      0x00\n        /* \"https://github.com/OpenZeppelin/openzeppelin-contracts/blob/master/contracts/token/ERC20/ERC20.sol\":3519:3528  _balances */\n      dup1\n        /* \"https://github.com/OpenZeppelin/openzeppelin-contracts/blob/master/contracts/token/ERC20/ERC20.sol\":3519:3537  _balances[account] */\n      0x00\n        /* \"https://github.com/OpenZeppelin/openzeppelin-contracts/blob/master/contracts/token/ERC20/ERC20.sol\":3529:3536  account */\n      dup4\n        /* \"https://github.com/OpenZeppelin/openzeppelin-contracts/blob/master/contracts/token/ERC20/ERC20.sol\":3519:3537  _balances[account] */\n      0xffffffffffffffffffffffffffffffffffffffff\n      and\n      0xffffffffffffffffffffffffffffffffffffffff\n      and\n      dup2\n      mstore\n      0x20\n      add\n      swap1\n      dup2\n      mstore\n      0x20\n      add\n      0x00\n      keccak256\n      sload\n        /* \"https://github.com/OpenZeppelin/openzeppelin-contracts/blob/master/contracts/token/ERC20/ERC20.sol\":3512:3537  return _balances[account] */\n      swap1\n      pop\n        /* \"https://github.com/OpenZeppelin/openzeppelin-contracts/blob/master/contracts/token/ERC20/ERC20.sol\":3419:3544  function balanceOf(address account) public view virtual override returns (uint256) {... */\n      swap2\n      swap1\n      pop\n      jump\t// out\n        /* \"contracts/MyToken.sol\":202:222  address public owner */\n    tag_70:\n      0x05\n      0x00\n      swap1\n      sload\n      swap1\n      0x0100\n      exp\n      swap1\n      div\n      0xffffffffffffffffffffffffffffffffffffffff\n      and\n      dup2\n      jump\t// out\n        /* \"https://github.com/OpenZeppelin/openzeppelin-contracts/blob/master/contracts/token/ERC20/ERC20.sol\":2369:2471  function symbol() public view virtual override returns (string memory) {... */\n    tag_74:\n        /* \"https://github.com/OpenZeppelin/openzeppelin-contracts/blob/master/contracts/token/ERC20/ERC20.sol\":2425:2438  string memory */\n      0x60\n        /* \"https://github.com/OpenZeppelin/openzeppelin-contracts/blob/master/contracts/token/ERC20/ERC20.sol\":2457:2464  _symbol */\n      0x04\n        /* \"https://github.com/OpenZeppelin/openzeppelin-contracts/blob/master/contracts/token/ERC20/ERC20.sol\":2450:2464  return _symbol */\n      dup1\n      sload\n      tag_141\n      swap1\n      tag_110\n      jump\t// in\n    tag_141:\n      dup1\n      0x1f\n      add\n      0x20\n      dup1\n      swap2\n      div\n      mul\n      0x20\n      add\n      mload(0x40)\n      swap1\n      dup2\n      add\n      0x40\n      mstore\n      dup1\n      swap3\n      swap2\n      swap1\n      dup2\n      dup2\n      mstore\n      0x20\n      add\n      dup3\n      dup1\n      sload\n      tag_142\n      swap1\n      tag_110\n      jump\t// in\n    tag_142:\n      dup1\n      iszero\n      tag_143\n      jumpi\n      dup1\n      0x1f\n      lt\n      tag_144\n      jumpi\n      0x0100\n      dup1\n      dup4\n      sload\n      div\n      mul\n      dup4\n      mstore\n      swap2\n      0x20\n      add\n      swap2\n      jump(tag_143)\n    tag_144:\n      dup3\n      add\n      swap2\n      swap1\n      0x00\n      mstore\n      keccak256(0x00, 0x20)\n      swap1\n    tag_145:\n      dup2\n      sload\n      dup2\n      mstore\n      swap1\n      0x01\n      add\n      swap1\n      0x20\n      add\n      dup1\n      dup4\n      gt\n      tag_145\n      jumpi\n      dup3\n      swap1\n      sub\n      0x1f\n      and\n      dup3\n      add\n      swap2\n    tag_143:\n      pop\n      pop\n      pop\n      pop\n      pop\n      swap1\n      pop\n        /* \"https://github.com/OpenZeppelin/openzeppelin-contracts/blob/master/contracts/token/ERC20/ERC20.sol\":2369:2471  function symbol() public view virtual override returns (string memory) {... */\n      swap1\n      jump\t// out\n        /* \"contracts/MyToken.sol\":322:351  uint256 public transactionFee */\n    tag_77:\n      sload(0x09)\n      dup2\n      jump\t// out\n        /* \"https://github.com/OpenZeppelin/openzeppelin-contracts/blob/master/contracts/token/ERC20/ERC20.sol\":6575:7002  function decreaseAllowance(address spender, uint256 subtractedValue) public virtual returns (bool) {... */\n    tag_81:\n        /* \"https://github.com/OpenZeppelin/openzeppelin-contracts/blob/master/contracts/token/ERC20/ERC20.sol\":6668:6672  bool */\n      0x00\n        /* \"https://github.com/OpenZeppelin/openzeppelin-contracts/blob/master/contracts/token/ERC20/ERC20.sol\":6684:6697  address owner */\n      dup1\n        /* \"https://github.com/OpenZeppelin/openzeppelin-contracts/blob/master/contracts/token/ERC20/ERC20.sol\":6700:6712  _msgSender() */\n      tag_147\n        /* \"https://github.com/OpenZeppelin/openzeppelin-contracts/blob/master/contracts/token/ERC20/ERC20.sol\":6700:6710  _msgSender */\n      tag_117\n        /* \"https://github.com/OpenZeppelin/openzeppelin-contracts/blob/master/contracts/token/ERC20/ERC20.sol\":6700:6712  _msgSender() */\n      jump\t// in\n    tag_147:\n        /* \"https://github.com/OpenZeppelin/openzeppelin-contracts/blob/master/contracts/token/ERC20/ERC20.sol\":6684:6712  address owner = _msgSender() */\n      swap1\n      pop\n        /* \"https://github.com/OpenZeppelin/openzeppelin-contracts/blob/master/contracts/token/ERC20/ERC20.sol\":6722:6746  uint256 currentAllowance */\n      0x00\n        /* \"https://github.com/OpenZeppelin/openzeppelin-contracts/blob/master/contracts/token/ERC20/ERC20.sol\":6749:6774  allowance(owner, spender) */\n      tag_148\n        /* \"https://github.com/OpenZeppelin/openzeppelin-contracts/blob/master/contracts/token/ERC20/ERC20.sol\":6759:6764  owner */\n      dup3\n        /* \"https://github.com/OpenZeppelin/openzeppelin-contracts/blob/master/contracts/token/ERC20/ERC20.sol\":6766:6773  spender */\n      dup7\n        /* \"https://github.com/OpenZeppelin/openzeppelin-contracts/blob/master/contracts/token/ERC20/ERC20.sol\":6749:6758  allowance */\n      tag_103\n        /* \"https://github.com/OpenZeppelin/openzeppelin-contracts/blob/master/contracts/token/ERC20/ERC20.sol\":6749:6774  allowance(owner, spender) */\n      jump\t// in\n    tag_148:\n        /* \"https://github.com/OpenZeppelin/openzeppelin-contracts/blob/master/contracts/token/ERC20/ERC20.sol\":6722:6774  uint256 currentAllowance = allowance(owner, spender) */\n      swap1\n      pop\n        /* \"https://github.com/OpenZeppelin/openzeppelin-contracts/blob/master/contracts/token/ERC20/ERC20.sol\":6812:6827  subtractedValue */\n      dup4\n        /* \"https://github.com/OpenZeppelin/openzeppelin-contracts/blob/master/contracts/token/ERC20/ERC20.sol\":6792:6808  currentAllowance */\n      dup2\n        /* \"https://github.com/OpenZeppelin/openzeppelin-contracts/blob/master/contracts/token/ERC20/ERC20.sol\":6792:6827  currentAllowance >= subtractedValue */\n      lt\n      iszero\n        /* \"https://github.com/OpenZeppelin/openzeppelin-contracts/blob/master/contracts/token/ERC20/ERC20.sol\":6784:6869  require(currentAllowance >= subtractedValue, \"ERC20: decreased allowance below zero\") */\n      tag_149\n      jumpi\n      mload(0x40)\n      0x08c379a000000000000000000000000000000000000000000000000000000000\n      dup2\n      mstore\n      0x04\n      add\n      tag_150\n      swap1\n      tag_151\n      jump\t// in\n    tag_150:\n      mload(0x40)\n      dup1\n      swap2\n      sub\n      swap1\n      revert\n    tag_149:\n        /* \"https://github.com/OpenZeppelin/openzeppelin-contracts/blob/master/contracts/token/ERC20/ERC20.sol\":6903:6963  _approve(owner, spender, currentAllowance - subtractedValue) */\n      tag_152\n        /* \"https://github.com/OpenZeppelin/openzeppelin-contracts/blob/master/contracts/token/ERC20/ERC20.sol\":6912:6917  owner */\n      dup3\n        /* \"https://github.com/OpenZeppelin/openzeppelin-contracts/blob/master/contracts/token/ERC20/ERC20.sol\":6919:6926  spender */\n      dup7\n        /* \"https://github.com/OpenZeppelin/openzeppelin-contracts/blob/master/contracts/token/ERC20/ERC20.sol\":6947:6962  subtractedValue */\n      dup7\n        /* \"https://github.com/OpenZeppelin/openzeppelin-contracts/blob/master/contracts/token/ERC20/ERC20.sol\":6928:6944  currentAllowance */\n      dup5\n        /* \"https://github.com/OpenZeppelin/openzeppelin-contracts/blob/master/contracts/token/ERC20/ERC20.sol\":6928:6962  currentAllowance - subtractedValue */\n      sub\n        /* \"https://github.com/OpenZeppelin/openzeppelin-contracts/blob/master/contracts/token/ERC20/ERC20.sol\":6903:6911  _approve */\n      tag_119\n        /* \"https://github.com/OpenZeppelin/openzeppelin-contracts/blob/master/contracts/token/ERC20/ERC20.sol\":6903:6963  _approve(owner, spender, currentAllowance - subtractedValue) */\n      jump\t// in\n    tag_152:\n        /* \"https://github.com/OpenZeppelin/openzeppelin-contracts/blob/master/contracts/token/ERC20/ERC20.sol\":6991:6995  true */\n      0x01\n        /* \"https://github.com/OpenZeppelin/openzeppelin-contracts/blob/master/contracts/token/ERC20/ERC20.sol\":6984:6995  return true */\n      swap3\n      pop\n      pop\n      pop\n        /* \"https://github.com/OpenZeppelin/openzeppelin-contracts/blob/master/contracts/token/ERC20/ERC20.sol\":6575:7002  function decreaseAllowance(address spender, uint256 subtractedValue) public virtual returns (bool) {... */\n      swap3\n      swap2\n      pop\n      pop\n      jump\t// out\n        /* \"contracts/MyToken.sol\":1392:2591  function transfer(address recipient, uint256 amount) public virtual override returns (bool) {... */\n    tag_85:\n        /* \"contracts/MyToken.sol\":1478:1482  bool */\n      0x00\n        /* \"contracts/MyToken.sol\":1494:1505  uint256 fee */\n      dup1\n        /* \"contracts/MyToken.sol\":1508:1509  0 */\n      0x00\n        /* \"contracts/MyToken.sol\":1494:1509  uint256 fee = 0 */\n      swap1\n      pop\n        /* \"contracts/MyToken.sol\":1524:1545  initialPurchaseActive */\n      0x0b\n      0x00\n      swap1\n      sload\n      swap1\n      0x0100\n      exp\n      swap1\n      div\n      0xff\n      and\n        /* \"contracts/MyToken.sol\":1524:1568  initialPurchaseActive && msg.sender == owner */\n      dup1\n      iszero\n      tag_154\n      jumpi\n      pop\n        /* \"contracts/MyToken.sol\":1563:1568  owner */\n      0x05\n      0x00\n      swap1\n      sload\n      swap1\n      0x0100\n      exp\n      swap1\n      div\n      0xffffffffffffffffffffffffffffffffffffffff\n      and\n        /* \"contracts/MyToken.sol\":1549:1568  msg.sender == owner */\n      0xffffffffffffffffffffffffffffffffffffffff\n      and\n        /* \"contracts/MyToken.sol\":1549:1559  msg.sender */\n      caller\n        /* \"contracts/MyToken.sol\":1549:1568  msg.sender == owner */\n      0xffffffffffffffffffffffffffffffffffffffff\n      and\n      eq\n        /* \"contracts/MyToken.sol\":1524:1568  initialPurchaseActive && msg.sender == owner */\n    tag_154:\n        /* \"contracts/MyToken.sol\":1524:1610  initialPurchaseActive && msg.sender == owner && block.timestamp <= initialPurchaseTime */\n      dup1\n      iszero\n      tag_155\n      jumpi\n      pop\n        /* \"contracts/MyToken.sol\":1591:1610  initialPurchaseTime */\n      sload(0x0a)\n        /* \"contracts/MyToken.sol\":1572:1587  block.timestamp */\n      timestamp\n        /* \"contracts/MyToken.sol\":1572:1610  block.timestamp <= initialPurchaseTime */\n      gt\n      iszero\n        /* \"contracts/MyToken.sol\":1524:1610  initialPurchaseActive && msg.sender == owner && block.timestamp <= initialPurchaseTime */\n    tag_155:\n        /* \"contracts/MyToken.sol\":1520:2266  if (initialPurchaseActive && msg.sender == owner && block.timestamp <= initialPurchaseTime) {... */\n      iszero\n      tag_156\n      jumpi\n        /* \"contracts/MyToken.sol\":1644:1660  balanceOf(owner) */\n      tag_157\n        /* \"contracts/MyToken.sol\":1654:1659  owner */\n      0x05\n      0x00\n      swap1\n      sload\n      swap1\n      0x0100\n      exp\n      swap1\n      div\n      0xffffffffffffffffffffffffffffffffffffffff\n      and\n        /* \"contracts/MyToken.sol\":1644:1653  balanceOf */\n      tag_67\n        /* \"contracts/MyToken.sol\":1644:1660  balanceOf(owner) */\n      jump\t// in\n    tag_157:\n        /* \"contracts/MyToken.sol\":1634:1640  amount */\n      dup4\n        /* \"contracts/MyToken.sol\":1634:1660  amount <= balanceOf(owner) */\n      gt\n      iszero\n        /* \"contracts/MyToken.sol\":1626:1705  require(amount <= balanceOf(owner), \"Not enough balance for initial purchase.\") */\n      tag_158\n      jumpi\n      mload(0x40)\n      0x08c379a000000000000000000000000000000000000000000000000000000000\n      dup2\n      mstore\n      0x04\n      add\n      tag_159\n      swap1\n      tag_160\n      jump\t// in\n    tag_159:\n      mload(0x40)\n      dup1\n      swap2\n      sub\n      swap1\n      revert\n    tag_158:\n        /* \"contracts/MyToken.sol\":1828:1833  owner */\n      0x05\n      0x00\n      swap1\n      sload\n      swap1\n      0x0100\n      exp\n      swap1\n      div\n      0xffffffffffffffffffffffffffffffffffffffff\n      and\n        /* \"contracts/MyToken.sol\":1815:1833  recipient != owner */\n      0xffffffffffffffffffffffffffffffffffffffff\n      and\n        /* \"contracts/MyToken.sol\":1815:1824  recipient */\n      dup5\n        /* \"contracts/MyToken.sol\":1815:1833  recipient != owner */\n      0xffffffffffffffffffffffffffffffffffffffff\n      and\n      eq\n        /* \"contracts/MyToken.sol\":1811:1984  if (recipient != owner) {... */\n      tag_161\n      jumpi\n        /* \"contracts/MyToken.sol\":1885:1888  100 */\n      0x64\n        /* \"contracts/MyToken.sol\":1868:1882  transactionFee */\n      sload(0x09)\n        /* \"contracts/MyToken.sol\":1859:1865  amount */\n      dup5\n        /* \"contracts/MyToken.sol\":1859:1882  amount * transactionFee */\n      tag_162\n      swap2\n      swap1\n      tag_163\n      jump\t// in\n    tag_162:\n        /* \"contracts/MyToken.sol\":1859:1888  amount * transactionFee / 100 */\n      tag_164\n      swap2\n      swap1\n      tag_165\n      jump\t// in\n    tag_164:\n        /* \"contracts/MyToken.sol\":1853:1888  fee = amount * transactionFee / 100 */\n      swap1\n      pop\n        /* \"contracts/MyToken.sol\":1906:1938  _transfer(owner, developer, fee) */\n      tag_166\n        /* \"contracts/MyToken.sol\":1916:1921  owner */\n      0x05\n      0x00\n      swap1\n      sload\n      swap1\n      0x0100\n      exp\n      swap1\n      div\n      0xffffffffffffffffffffffffffffffffffffffff\n      and\n        /* \"contracts/MyToken.sol\":1923:1932  developer */\n      0x06\n      0x00\n      swap1\n      sload\n      swap1\n      0x0100\n      exp\n      swap1\n      div\n      0xffffffffffffffffffffffffffffffffffffffff\n      and\n        /* \"contracts/MyToken.sol\":1934:1937  fee */\n      dup4\n        /* \"contracts/MyToken.sol\":1906:1915  _transfer */\n      tag_131\n        /* \"contracts/MyToken.sol\":1906:1938  _transfer(owner, developer, fee) */\n      jump\t// in\n    tag_166:\n        /* \"contracts/MyToken.sol\":1966:1969  fee */\n      dup1\n        /* \"contracts/MyToken.sol\":1956:1969  amount -= fee */\n      dup4\n      tag_167\n      swap2\n      swap1\n      tag_168\n      jump\t// in\n    tag_167:\n      swap3\n      pop\n        /* \"contracts/MyToken.sol\":1811:1984  if (recipient != owner) {... */\n    tag_161:\n        /* \"contracts/MyToken.sol\":1520:2266  if (initialPurchaseActive && msg.sender == owner && block.timestamp <= initialPurchaseTime) {... */\n      jump(tag_169)\n    tag_156:\n        /* \"contracts/MyToken.sol\":2032:2053  balanceOf(msg.sender) */\n      tag_170\n        /* \"contracts/MyToken.sol\":2042:2052  msg.sender */\n      caller\n        /* \"contracts/MyToken.sol\":2032:2041  balanceOf */\n      tag_67\n        /* \"contracts/MyToken.sol\":2032:2053  balanceOf(msg.sender) */\n      jump\t// in\n    tag_170:\n        /* \"contracts/MyToken.sol\":2022:2028  amount */\n      dup4\n        /* \"contracts/MyToken.sol\":2022:2053  amount <= balanceOf(msg.sender) */\n      gt\n      iszero\n        /* \"contracts/MyToken.sol\":2014:2090  require(amount <= balanceOf(msg.sender), \"Not enough balance for transfer.\") */\n      tag_171\n      jumpi\n      mload(0x40)\n      0x08c379a000000000000000000000000000000000000000000000000000000000\n      dup2\n      mstore\n      0x04\n      add\n      tag_172\n      swap1\n      tag_173\n      jump\t// in\n    tag_172:\n      mload(0x40)\n      dup1\n      swap2\n      sub\n      swap1\n      revert\n    tag_171:\n        /* \"contracts/MyToken.sol\":2174:2177  100 */\n      0x64\n        /* \"contracts/MyToken.sol\":2157:2171  transactionFee */\n      sload(0x09)\n        /* \"contracts/MyToken.sol\":2148:2154  amount */\n      dup5\n        /* \"contracts/MyToken.sol\":2148:2171  amount * transactionFee */\n      tag_174\n      swap2\n      swap1\n      tag_163\n      jump\t// in\n    tag_174:\n        /* \"contracts/MyToken.sol\":2148:2177  amount * transactionFee / 100 */\n      tag_175\n      swap2\n      swap1\n      tag_165\n      jump\t// in\n    tag_175:\n        /* \"contracts/MyToken.sol\":2142:2177  fee = amount * transactionFee / 100 */\n      swap1\n      pop\n        /* \"contracts/MyToken.sol\":2191:2228  _transfer(msg.sender, developer, fee) */\n      tag_176\n        /* \"contracts/MyToken.sol\":2201:2211  msg.sender */\n      caller\n        /* \"contracts/MyToken.sol\":2213:2222  developer */\n      0x06\n      0x00\n      swap1\n      sload\n      swap1\n      0x0100\n      exp\n      swap1\n      div\n      0xffffffffffffffffffffffffffffffffffffffff\n      and\n        /* \"contracts/MyToken.sol\":2224:2227  fee */\n      dup4\n        /* \"contracts/MyToken.sol\":2191:2200  _transfer */\n      tag_131\n        /* \"contracts/MyToken.sol\":2191:2228  _transfer(msg.sender, developer, fee) */\n      jump\t// in\n    tag_176:\n        /* \"contracts/MyToken.sol\":2252:2255  fee */\n      dup1\n        /* \"contracts/MyToken.sol\":2242:2255  amount -= fee */\n      dup4\n      tag_177\n      swap2\n      swap1\n      tag_168\n      jump\t// in\n    tag_177:\n      swap3\n      pop\n        /* \"contracts/MyToken.sol\":1520:2266  if (initialPurchaseActive && msg.sender == owner && block.timestamp <= initialPurchaseTime) {... */\n    tag_169:\n        /* \"contracts/MyToken.sol\":2359:2372  burnThreshold */\n      sload(0x08)\n        /* \"contracts/MyToken.sol\":2343:2356  totalSupply() */\n      tag_178\n        /* \"contracts/MyToken.sol\":2343:2354  totalSupply */\n      tag_42\n        /* \"contracts/MyToken.sol\":2343:2356  totalSupply() */\n      jump\t// in\n    tag_178:\n        /* \"contracts/MyToken.sol\":2343:2372  totalSupply() > burnThreshold */\n      gt\n        /* \"contracts/MyToken.sol\":2339:2513  if (totalSupply() > burnThreshold) {... */\n      iszero\n      tag_179\n      jumpi\n        /* \"contracts/MyToken.sol\":2388:2406  uint256 burnAmount */\n      0x00\n        /* \"contracts/MyToken.sol\":2422:2425  100 */\n      0x64\n        /* \"contracts/MyToken.sol\":2418:2419  5 */\n      0x05\n        /* \"contracts/MyToken.sol\":2409:2415  amount */\n      dup6\n        /* \"contracts/MyToken.sol\":2409:2419  amount * 5 */\n      tag_180\n      swap2\n      swap1\n      tag_163\n      jump\t// in\n    tag_180:\n        /* \"contracts/MyToken.sol\":2409:2425  amount * 5 / 100 */\n      tag_181\n      swap2\n      swap1\n      tag_165\n      jump\t// in\n    tag_181:\n        /* \"contracts/MyToken.sol\":2388:2425  uint256 burnAmount = amount * 5 / 100 */\n      swap1\n      pop\n        /* \"contracts/MyToken.sol\":2449:2459  burnAmount */\n      dup1\n        /* \"contracts/MyToken.sol\":2439:2459  amount -= burnAmount */\n      dup5\n      tag_182\n      swap2\n      swap1\n      tag_168\n      jump\t// in\n    tag_182:\n      swap4\n      pop\n        /* \"contracts/MyToken.sol\":2473:2502  _burn(msg.sender, burnAmount) */\n      tag_183\n        /* \"contracts/MyToken.sol\":2479:2489  msg.sender */\n      caller\n        /* \"contracts/MyToken.sol\":2491:2501  burnAmount */\n      dup3\n        /* \"contracts/MyToken.sol\":2473:2478  _burn */\n      tag_184\n        /* \"contracts/MyToken.sol\":2473:2502  _burn(msg.sender, burnAmount) */\n      jump\t// in\n    tag_183:\n        /* \"contracts/MyToken.sol\":2339:2513  if (totalSupply() > burnThreshold) {... */\n      pop\n    tag_179:\n        /* \"contracts/MyToken.sol\":2523:2563  _transfer(msg.sender, recipient, amount) */\n      tag_185\n        /* \"contracts/MyToken.sol\":2533:2543  msg.sender */\n      caller\n        /* \"contracts/MyToken.sol\":2545:2554  recipient */\n      dup6\n        /* \"contracts/MyToken.sol\":2556:2562  amount */\n      dup6\n        /* \"contracts/MyToken.sol\":2523:2532  _transfer */\n      tag_131\n        /* \"contracts/MyToken.sol\":2523:2563  _transfer(msg.sender, recipient, amount) */\n      jump\t// in\n    tag_185:\n        /* \"contracts/MyToken.sol\":2580:2584  true */\n      0x01\n        /* \"contracts/MyToken.sol\":2573:2584  return true */\n      swap2\n      pop\n      pop\n        /* \"contracts/MyToken.sol\":1392:2591  function transfer(address recipient, uint256 amount) public virtual override returns (bool) {... */\n      swap3\n      swap2\n      pop\n      pop\n      jump\t// out\n        /* \"contracts/MyToken.sol\":228:252  address public developer */\n    tag_88:\n      0x06\n      0x00\n      swap1\n      sload\n      swap1\n      0x0100\n      exp\n      swap1\n      div\n      0xffffffffffffffffffffffffffffffffffffffff\n      and\n      dup2\n      jump\t// out\n        /* \"contracts/MyToken.sol\":1241:1386  function setInitialPurchaseActive(bool _initialPurchaseActive) external onlyOwner {... */\n    tag_93:\n        /* \"contracts/MyToken.sol\":897:902  owner */\n      0x05\n      0x00\n      swap1\n      sload\n      swap1\n      0x0100\n      exp\n      swap1\n      div\n      0xffffffffffffffffffffffffffffffffffffffff\n      and\n        /* \"contracts/MyToken.sol\":883:902  msg.sender == owner */\n      0xffffffffffffffffffffffffffffffffffffffff\n      and\n        /* \"contracts/MyToken.sol\":883:893  msg.sender */\n      caller\n        /* \"contracts/MyToken.sol\":883:902  msg.sender == owner */\n      0xffffffffffffffffffffffffffffffffffffffff\n      and\n      eq\n        /* \"contracts/MyToken.sol\":875:945  require(msg.sender == owner, \"Only the owner can call this function.\") */\n      tag_187\n      jumpi\n      mload(0x40)\n      0x08c379a000000000000000000000000000000000000000000000000000000000\n      dup2\n      mstore\n      0x04\n      add\n      tag_188\n      swap1\n      tag_123\n      jump\t// in\n    tag_188:\n      mload(0x40)\n      dup1\n      swap2\n      sub\n      swap1\n      revert\n    tag_187:\n        /* \"contracts/MyToken.sol\":1357:1379  _initialPurchaseActive */\n      dup1\n        /* \"contracts/MyToken.sol\":1333:1354  initialPurchaseActive */\n      0x0b\n      0x00\n        /* \"contracts/MyToken.sol\":1333:1379  initialPurchaseActive = _initialPurchaseActive */\n      0x0100\n      exp\n      dup2\n      sload\n      dup2\n      0xff\n      mul\n      not\n      and\n      swap1\n      dup4\n      iszero\n      iszero\n      mul\n      or\n      swap1\n      sstore\n      pop\n        /* \"contracts/MyToken.sol\":1241:1386  function setInitialPurchaseActive(bool _initialPurchaseActive) external onlyOwner {... */\n      pop\n      jump\t// out\n        /* \"contracts/MyToken.sol\":1095:1235  function setInitialPurchaseTime(uint256 _initialPurchaseTime) external onlyOwner {... */\n    tag_96:\n        /* \"contracts/MyToken.sol\":897:902  owner */\n      0x05\n      0x00\n      swap1\n      sload\n      swap1\n      0x0100\n      exp\n      swap1\n      div\n      0xffffffffffffffffffffffffffffffffffffffff\n      and\n        /* \"contracts/MyToken.sol\":883:902  msg.sender == owner */\n      0xffffffffffffffffffffffffffffffffffffffff\n      and\n        /* \"contracts/MyToken.sol\":883:893  msg.sender */\n      caller\n        /* \"contracts/MyToken.sol\":883:902  msg.sender == owner */\n      0xffffffffffffffffffffffffffffffffffffffff\n      and\n      eq\n        /* \"contracts/MyToken.sol\":875:945  require(msg.sender == owner, \"Only the owner can call this function.\") */\n      tag_191\n      jumpi\n      mload(0x40)\n      0x08c379a000000000000000000000000000000000000000000000000000000000\n      dup2\n      mstore\n      0x04\n      add\n      tag_192\n      swap1\n      tag_123\n      jump\t// in\n    tag_192:\n      mload(0x40)\n      dup1\n      swap2\n      sub\n      swap1\n      revert\n    tag_191:\n        /* \"contracts/MyToken.sol\":1208:1228  _initialPurchaseTime */\n      dup1\n        /* \"contracts/MyToken.sol\":1186:1205  initialPurchaseTime */\n      0x0a\n        /* \"contracts/MyToken.sol\":1186:1228  initialPurchaseTime = _initialPurchaseTime */\n      dup2\n      swap1\n      sstore\n      pop\n        /* \"contracts/MyToken.sol\":1095:1235  function setInitialPurchaseTime(uint256 _initialPurchaseTime) external onlyOwner {... */\n      pop\n      jump\t// out\n        /* \"contracts/MyToken.sol\":258:282  uint256 public maxSupply */\n    tag_98:\n      sload(0x07)\n      dup2\n      jump\t// out\n        /* \"https://github.com/OpenZeppelin/openzeppelin-contracts/blob/master/contracts/token/ERC20/ERC20.sol\":3987:4136  function allowance(address owner, address spender) public view virtual override returns (uint256) {... */\n    tag_103:\n        /* \"https://github.com/OpenZeppelin/openzeppelin-contracts/blob/master/contracts/token/ERC20/ERC20.sol\":4076:4083  uint256 */\n      0x00\n        /* \"https://github.com/OpenZeppelin/openzeppelin-contracts/blob/master/contracts/token/ERC20/ERC20.sol\":4102:4113  _allowances */\n      0x01\n        /* \"https://github.com/OpenZeppelin/openzeppelin-contracts/blob/master/contracts/token/ERC20/ERC20.sol\":4102:4120  _allowances[owner] */\n      0x00\n        /* \"https://github.com/OpenZeppelin/openzeppelin-contracts/blob/master/contracts/token/ERC20/ERC20.sol\":4114:4119  owner */\n      dup5\n        /* \"https://github.com/OpenZeppelin/openzeppelin-contracts/blob/master/contracts/token/ERC20/ERC20.sol\":4102:4120  _allowances[owner] */\n      0xffffffffffffffffffffffffffffffffffffffff\n      and\n      0xffffffffffffffffffffffffffffffffffffffff\n      and\n      dup2\n      mstore\n      0x20\n      add\n      swap1\n      dup2\n      mstore\n      0x20\n      add\n      0x00\n      keccak256\n        /* \"https://github.com/OpenZeppelin/openzeppelin-contracts/blob/master/contracts/token/ERC20/ERC20.sol\":4102:4129  _allowances[owner][spender] */\n      0x00\n        /* \"https://github.com/OpenZeppelin/openzeppelin-contracts/blob/master/contracts/token/ERC20/ERC20.sol\":4121:4128  spender */\n      dup4\n        /* \"https://github.com/OpenZeppelin/openzeppelin-contracts/blob/master/contracts/token/ERC20/ERC20.sol\":4102:4129  _allowances[owner][spender] */\n      0xffffffffffffffffffffffffffffffffffffffff\n      and\n      0xffffffffffffffffffffffffffffffffffffffff\n      and\n      dup2\n      mstore\n      0x20\n      add\n      swap1\n      dup2\n      mstore\n      0x20\n      add\n      0x00\n      keccak256\n      sload\n        /* \"https://github.com/OpenZeppelin/openzeppelin-contracts/blob/master/contracts/token/ERC20/ERC20.sol\":4095:4129  return _allowances[owner][spender] */\n      swap1\n      pop\n        /* \"https://github.com/OpenZeppelin/openzeppelin-contracts/blob/master/contracts/token/ERC20/ERC20.sol\":3987:4136  function allowance(address owner, address spender) public view virtual override returns (uint256) {... */\n      swap3\n      swap2\n      pop\n      pop\n      jump\t// out\n        /* \"contracts/MyToken.sol\":357:391  uint256 public initialPurchaseTime */\n    tag_106:\n      sload(0x0a)\n      dup2\n      jump\t// out\n        /* \"https://github.com/OpenZeppelin/openzeppelin-contracts/blob/master/contracts/utils/Context.sol\":640:736  function _msgSender() internal view virtual returns (address) {... */\n    tag_117:\n        /* \"https://github.com/OpenZeppelin/openzeppelin-contracts/blob/master/contracts/utils/Context.sol\":693:700  address */\n      0x00\n        /* \"https://github.com/OpenZeppelin/openzeppelin-contracts/blob/master/contracts/utils/Context.sol\":719:729  msg.sender */\n      caller\n        /* \"https://github.com/OpenZeppelin/openzeppelin-contracts/blob/master/contracts/utils/Context.sol\":712:729  return msg.sender */\n      swap1\n      pop\n        /* \"https://github.com/OpenZeppelin/openzeppelin-contracts/blob/master/contracts/utils/Context.sol\":640:736  function _msgSender() internal view virtual returns (address) {... */\n      swap1\n      jump\t// out\n        /* \"https://github.com/OpenZeppelin/openzeppelin-contracts/blob/master/contracts/token/ERC20/ERC20.sol\":10457:10797  function _approve(address owner, address spender, uint256 amount) internal virtual {... */\n    tag_119:\n        /* \"https://github.com/OpenZeppelin/openzeppelin-contracts/blob/master/contracts/token/ERC20/ERC20.sol\":10575:10576  0 */\n      0x00\n        /* \"https://github.com/OpenZeppelin/openzeppelin-contracts/blob/master/contracts/token/ERC20/ERC20.sol\":10558:10577  owner != address(0) */\n      0xffffffffffffffffffffffffffffffffffffffff\n      and\n        /* \"https://github.com/OpenZeppelin/openzeppelin-contracts/blob/master/contracts/token/ERC20/ERC20.sol\":10558:10563  owner */\n      dup4\n        /* \"https://github.com/OpenZeppelin/openzeppelin-contracts/blob/master/contracts/token/ERC20/ERC20.sol\":10558:10577  owner != address(0) */\n      0xffffffffffffffffffffffffffffffffffffffff\n      and\n      eq\n      iszero\n        /* \"https://github.com/OpenZeppelin/openzeppelin-contracts/blob/master/contracts/token/ERC20/ERC20.sol\":10550:10618  require(owner != address(0), \"ERC20: approve from the zero address\") */\n      tag_197\n      jumpi\n      mload(0x40)\n      0x08c379a000000000000000000000000000000000000000000000000000000000\n      dup2\n      mstore\n      0x04\n      add\n      tag_198\n      swap1\n      tag_199\n      jump\t// in\n    tag_198:\n      mload(0x40)\n      dup1\n      swap2\n      sub\n      swap1\n      revert\n    tag_197:\n        /* \"https://github.com/OpenZeppelin/openzeppelin-contracts/blob/master/contracts/token/ERC20/ERC20.sol\":10655:10656  0 */\n      0x00\n        /* \"https://github.com/OpenZeppelin/openzeppelin-contracts/blob/master/contracts/token/ERC20/ERC20.sol\":10636:10657  spender != address(0) */\n      0xffffffffffffffffffffffffffffffffffffffff\n      and\n        /* \"https://github.com/OpenZeppelin/openzeppelin-contracts/blob/master/contracts/token/ERC20/ERC20.sol\":10636:10643  spender */\n      dup3\n        /* \"https://github.com/OpenZeppelin/openzeppelin-contracts/blob/master/contracts/token/ERC20/ERC20.sol\":10636:10657  spender != address(0) */\n      0xffffffffffffffffffffffffffffffffffffffff\n      and\n      eq\n      iszero\n        /* \"https://github.com/OpenZeppelin/openzeppelin-contracts/blob/master/contracts/token/ERC20/ERC20.sol\":10628:10696  require(spender != address(0), \"ERC20: approve to the zero address\") */\n      tag_200\n      jumpi\n      mload(0x40)\n      0x08c379a000000000000000000000000000000000000000000000000000000000\n      dup2\n      mstore\n      0x04\n      add\n      tag_201\n      swap1\n      tag_202\n      jump\t// in\n    tag_201:\n      mload(0x40)\n      dup1\n      swap2\n      sub\n      swap1\n      revert\n    tag_200:\n        /* \"https://github.com/OpenZeppelin/openzeppelin-contracts/blob/master/contracts/token/ERC20/ERC20.sol\":10737:10743  amount */\n      dup1\n        /* \"https://github.com/OpenZeppelin/openzeppelin-contracts/blob/master/contracts/token/ERC20/ERC20.sol\":10707:10718  _allowances */\n      0x01\n        /* \"https://github.com/OpenZeppelin/openzeppelin-contracts/blob/master/contracts/token/ERC20/ERC20.sol\":10707:10725  _allowances[owner] */\n      0x00\n        /* \"https://github.com/OpenZeppelin/openzeppelin-contracts/blob/master/contracts/token/ERC20/ERC20.sol\":10719:10724  owner */\n      dup6\n        /* \"https://github.com/OpenZeppelin/openzeppelin-contracts/blob/master/contracts/token/ERC20/ERC20.sol\":10707:10725  _allowances[owner] */\n      0xffffffffffffffffffffffffffffffffffffffff\n      and\n      0xffffffffffffffffffffffffffffffffffffffff\n      and\n      dup2\n      mstore\n      0x20\n      add\n      swap1\n      dup2\n      mstore\n      0x20\n      add\n      0x00\n      keccak256\n        /* \"https://github.com/OpenZeppelin/openzeppelin-contracts/blob/master/contracts/token/ERC20/ERC20.sol\":10707:10734  _allowances[owner][spender] */\n      0x00\n        /* \"https://github.com/OpenZeppelin/openzeppelin-contracts/blob/master/contracts/token/ERC20/ERC20.sol\":10726:10733  spender */\n      dup5\n        /* \"https://github.com/OpenZeppelin/openzeppelin-contracts/blob/master/contracts/token/ERC20/ERC20.sol\":10707:10734  _allowances[owner][spender] */\n      0xffffffffffffffffffffffffffffffffffffffff\n      and\n      0xffffffffffffffffffffffffffffffffffffffff\n      and\n      dup2\n      mstore\n      0x20\n      add\n      swap1\n      dup2\n      mstore\n      0x20\n      add\n      0x00\n      keccak256\n        /* \"https://github.com/OpenZeppelin/openzeppelin-contracts/blob/master/contracts/token/ERC20/ERC20.sol\":10707:10743  _allowances[owner][spender] = amount */\n      dup2\n      swap1\n      sstore\n      pop\n        /* \"https://github.com/OpenZeppelin/openzeppelin-contracts/blob/master/contracts/token/ERC20/ERC20.sol\":10774:10781  spender */\n      dup2\n        /* \"https://github.com/OpenZeppelin/openzeppelin-contracts/blob/master/contracts/token/ERC20/ERC20.sol\":10758:10790  Approval(owner, spender, amount) */\n      0xffffffffffffffffffffffffffffffffffffffff\n      and\n        /* \"https://github.com/OpenZeppelin/openzeppelin-contracts/blob/master/contracts/token/ERC20/ERC20.sol\":10767:10772  owner */\n      dup4\n        /* \"https://github.com/OpenZeppelin/openzeppelin-contracts/blob/master/contracts/token/ERC20/ERC20.sol\":10758:10790  Approval(owner, spender, amount) */\n      0xffffffffffffffffffffffffffffffffffffffff\n      and\n      0x8c5be1e5ebec7d5bd14f71427d1e84f3dd0314c0f7b2291e5b200ac8c7c3b925\n        /* \"https://github.com/OpenZeppelin/openzeppelin-contracts/blob/master/contracts/token/ERC20/ERC20.sol\":10783:10789  amount */\n      dup4\n        /* \"https://github.com/OpenZeppelin/openzeppelin-contracts/blob/master/contracts/token/ERC20/ERC20.sol\":10758:10790  Approval(owner, spender, amount) */\n      mload(0x40)\n      tag_203\n      swap2\n      swap1\n      tag_44\n      jump\t// in\n    tag_203:\n      mload(0x40)\n      dup1\n      swap2\n      sub\n      swap1\n      log3\n        /* \"https://github.com/OpenZeppelin/openzeppelin-contracts/blob/master/contracts/token/ERC20/ERC20.sol\":10457:10797  function _approve(address owner, address spender, uint256 amount) internal virtual {... */\n      pop\n      pop\n      pop\n      jump\t// out\n        /* \"https://github.com/OpenZeppelin/openzeppelin-contracts/blob/master/contracts/token/ERC20/ERC20.sol\":11078:11489  function _spendAllowance(address owner, address spender, uint256 amount) internal virtual {... */\n    tag_129:\n        /* \"https://github.com/OpenZeppelin/openzeppelin-contracts/blob/master/contracts/token/ERC20/ERC20.sol\":11178:11202  uint256 currentAllowance */\n      0x00\n        /* \"https://github.com/OpenZeppelin/openzeppelin-contracts/blob/master/contracts/token/ERC20/ERC20.sol\":11205:11230  allowance(owner, spender) */\n      tag_205\n        /* \"https://github.com/OpenZeppelin/openzeppelin-contracts/blob/master/contracts/token/ERC20/ERC20.sol\":11215:11220  owner */\n      dup5\n        /* \"https://github.com/OpenZeppelin/openzeppelin-contracts/blob/master/contracts/token/ERC20/ERC20.sol\":11222:11229  spender */\n      dup5\n        /* \"https://github.com/OpenZeppelin/openzeppelin-contracts/blob/master/contracts/token/ERC20/ERC20.sol\":11205:11214  allowance */\n      tag_103\n        /* \"https://github.com/OpenZeppelin/openzeppelin-contracts/blob/master/contracts/token/ERC20/ERC20.sol\":11205:11230  allowance(owner, spender) */\n      jump\t// in\n    tag_205:\n        /* \"https://github.com/OpenZeppelin/openzeppelin-contracts/blob/master/contracts/token/ERC20/ERC20.sol\":11178:11230  uint256 currentAllowance = allowance(owner, spender) */\n      swap1\n      pop\n        /* \"https://github.com/OpenZeppelin/openzeppelin-contracts/blob/master/contracts/token/ERC20/ERC20.sol\":11264:11281  type(uint256).max */\n      0xffffffffffffffffffffffffffffffffffffffffffffffffffffffffffffffff\n        /* \"https://github.com/OpenZeppelin/openzeppelin-contracts/blob/master/contracts/token/ERC20/ERC20.sol\":11244:11260  currentAllowance */\n      dup2\n        /* \"https://github.com/OpenZeppelin/openzeppelin-contracts/blob/master/contracts/token/ERC20/ERC20.sol\":11244:11281  currentAllowance != type(uint256).max */\n      eq\n        /* \"https://github.com/OpenZeppelin/openzeppelin-contracts/blob/master/contracts/token/ERC20/ERC20.sol\":11240:11483  if (currentAllowance != type(uint256).max) {... */\n      tag_206\n      jumpi\n        /* \"https://github.com/OpenZeppelin/openzeppelin-contracts/blob/master/contracts/token/ERC20/ERC20.sol\":11325:11331  amount */\n      dup2\n        /* \"https://github.com/OpenZeppelin/openzeppelin-contracts/blob/master/contracts/token/ERC20/ERC20.sol\":11305:11321  currentAllowance */\n      dup2\n        /* \"https://github.com/OpenZeppelin/openzeppelin-contracts/blob/master/contracts/token/ERC20/ERC20.sol\":11305:11331  currentAllowance >= amount */\n      lt\n      iszero\n        /* \"https://github.com/OpenZeppelin/openzeppelin-contracts/blob/master/contracts/token/ERC20/ERC20.sol\":11297:11365  require(currentAllowance >= amount, \"ERC20: insufficient allowance\") */\n      tag_207\n      jumpi\n      mload(0x40)\n      0x08c379a000000000000000000000000000000000000000000000000000000000\n      dup2\n      mstore\n      0x04\n      add\n      tag_208\n      swap1\n      tag_209\n      jump\t// in\n    tag_208:\n      mload(0x40)\n      dup1\n      swap2\n      sub\n      swap1\n      revert\n    tag_207:\n        /* \"https://github.com/OpenZeppelin/openzeppelin-contracts/blob/master/contracts/token/ERC20/ERC20.sol\":11407:11458  _approve(owner, spender, currentAllowance - amount) */\n      tag_210\n        /* \"https://github.com/OpenZeppelin/openzeppelin-contracts/blob/master/contracts/token/ERC20/ERC20.sol\":11416:11421  owner */\n      dup5\n        /* \"https://github.com/OpenZeppelin/openzeppelin-contracts/blob/master/contracts/token/ERC20/ERC20.sol\":11423:11430  spender */\n      dup5\n        /* \"https://github.com/OpenZeppelin/openzeppelin-contracts/blob/master/contracts/token/ERC20/ERC20.sol\":11451:11457  amount */\n      dup5\n        /* \"https://github.com/OpenZeppelin/openzeppelin-contracts/blob/master/contracts/token/ERC20/ERC20.sol\":11432:11448  currentAllowance */\n      dup5\n        /* \"https://github.com/OpenZeppelin/openzeppelin-contracts/blob/master/contracts/token/ERC20/ERC20.sol\":11432:11457  currentAllowance - amount */\n      sub\n        /* \"https://github.com/OpenZeppelin/openzeppelin-contracts/blob/master/contracts/token/ERC20/ERC20.sol\":11407:11415  _approve */\n      tag_119\n        /* \"https://github.com/OpenZeppelin/openzeppelin-contracts/blob/master/contracts/token/ERC20/ERC20.sol\":11407:11458  _approve(owner, spender, currentAllowance - amount) */\n      jump\t// in\n    tag_210:\n        /* \"https://github.com/OpenZeppelin/openzeppelin-contracts/blob/master/contracts/token/ERC20/ERC20.sol\":11240:11483  if (currentAllowance != type(uint256).max) {... */\n    tag_206:\n        /* \"https://github.com/OpenZeppelin/openzeppelin-contracts/blob/master/contracts/token/ERC20/ERC20.sol\":11078:11489  function _spendAllowance(address owner, address spender, uint256 amount) internal virtual {... */\n      pop\n      pop\n      pop\n      pop\n      jump\t// out\n        /* \"https://github.com/OpenZeppelin/openzeppelin-contracts/blob/master/contracts/token/ERC20/ERC20.sol\":7456:8244  function _transfer(address from, address to, uint256 amount) internal virtual {... */\n    tag_131:\n        /* \"https://github.com/OpenZeppelin/openzeppelin-contracts/blob/master/contracts/token/ERC20/ERC20.sol\":7568:7569  0 */\n      0x00\n        /* \"https://github.com/OpenZeppelin/openzeppelin-contracts/blob/master/contracts/token/ERC20/ERC20.sol\":7552:7570  from != address(0) */\n      0xffffffffffffffffffffffffffffffffffffffff\n      and\n        /* \"https://github.com/OpenZeppelin/openzeppelin-contracts/blob/master/contracts/token/ERC20/ERC20.sol\":7552:7556  from */\n      dup4\n        /* \"https://github.com/OpenZeppelin/openzeppelin-contracts/blob/master/contracts/token/ERC20/ERC20.sol\":7552:7570  from != address(0) */\n      0xffffffffffffffffffffffffffffffffffffffff\n      and\n      eq\n      iszero\n        /* \"https://github.com/OpenZeppelin/openzeppelin-contracts/blob/master/contracts/token/ERC20/ERC20.sol\":7544:7612  require(from != address(0), \"ERC20: transfer from the zero address\") */\n      tag_212\n      jumpi\n      mload(0x40)\n      0x08c379a000000000000000000000000000000000000000000000000000000000\n      dup2\n      mstore\n      0x04\n      add\n      tag_213\n      swap1\n      tag_214\n      jump\t// in\n    tag_213:\n      mload(0x40)\n      dup1\n      swap2\n      sub\n      swap1\n      revert\n    tag_212:\n        /* \"https://github.com/OpenZeppelin/openzeppelin-contracts/blob/master/contracts/token/ERC20/ERC20.sol\":7644:7645  0 */\n      0x00\n        /* \"https://github.com/OpenZeppelin/openzeppelin-contracts/blob/master/contracts/token/ERC20/ERC20.sol\":7630:7646  to != address(0) */\n      0xffffffffffffffffffffffffffffffffffffffff\n      and\n        /* \"https://github.com/OpenZeppelin/openzeppelin-contracts/blob/master/contracts/token/ERC20/ERC20.sol\":7630:7632  to */\n      dup3\n        /* \"https://github.com/OpenZeppelin/openzeppelin-contracts/blob/master/contracts/token/ERC20/ERC20.sol\":7630:7646  to != address(0) */\n      0xffffffffffffffffffffffffffffffffffffffff\n      and\n      eq\n      iszero\n        /* \"https://github.com/OpenZeppelin/openzeppelin-contracts/blob/master/contracts/token/ERC20/ERC20.sol\":7622:7686  require(to != address(0), \"ERC20: transfer to the zero address\") */\n      tag_215\n      jumpi\n      mload(0x40)\n      0x08c379a000000000000000000000000000000000000000000000000000000000\n      dup2\n      mstore\n      0x04\n      add\n      tag_216\n      swap1\n      tag_217\n      jump\t// in\n    tag_216:\n      mload(0x40)\n      dup1\n      swap2\n      sub\n      swap1\n      revert\n    tag_215:\n        /* \"https://github.com/OpenZeppelin/openzeppelin-contracts/blob/master/contracts/token/ERC20/ERC20.sol\":7697:7735  _beforeTokenTransfer(from, to, amount) */\n      tag_218\n        /* \"https://github.com/OpenZeppelin/openzeppelin-contracts/blob/master/contracts/token/ERC20/ERC20.sol\":7718:7722  from */\n      dup4\n        /* \"https://github.com/OpenZeppelin/openzeppelin-contracts/blob/master/contracts/token/ERC20/ERC20.sol\":7724:7726  to */\n      dup4\n        /* \"https://github.com/OpenZeppelin/openzeppelin-contracts/blob/master/contracts/token/ERC20/ERC20.sol\":7728:7734  amount */\n      dup4\n        /* \"https://github.com/OpenZeppelin/openzeppelin-contracts/blob/master/contracts/token/ERC20/ERC20.sol\":7697:7717  _beforeTokenTransfer */\n      tag_219\n        /* \"https://github.com/OpenZeppelin/openzeppelin-contracts/blob/master/contracts/token/ERC20/ERC20.sol\":7697:7735  _beforeTokenTransfer(from, to, amount) */\n      jump\t// in\n    tag_218:\n        /* \"https://github.com/OpenZeppelin/openzeppelin-contracts/blob/master/contracts/token/ERC20/ERC20.sol\":7746:7765  uint256 fromBalance */\n      0x00\n        /* \"https://github.com/OpenZeppelin/openzeppelin-contracts/blob/master/contracts/token/ERC20/ERC20.sol\":7768:7777  _balances */\n      dup1\n        /* \"https://github.com/OpenZeppelin/openzeppelin-contracts/blob/master/contracts/token/ERC20/ERC20.sol\":7768:7783  _balances[from] */\n      0x00\n        /* \"https://github.com/OpenZeppelin/openzeppelin-contracts/blob/master/contracts/token/ERC20/ERC20.sol\":7778:7782  from */\n      dup6\n        /* \"https://github.com/OpenZeppelin/openzeppelin-contracts/blob/master/contracts/token/ERC20/ERC20.sol\":7768:7783  _balances[from] */\n      0xffffffffffffffffffffffffffffffffffffffff\n      and\n      0xffffffffffffffffffffffffffffffffffffffff\n      and\n      dup2\n      mstore\n      0x20\n      add\n      swap1\n      dup2\n      mstore\n      0x20\n      add\n      0x00\n      keccak256\n      sload\n        /* \"https://github.com/OpenZeppelin/openzeppelin-contracts/blob/master/contracts/token/ERC20/ERC20.sol\":7746:7783  uint256 fromBalance = _balances[from] */\n      swap1\n      pop\n        /* \"https://github.com/OpenZeppelin/openzeppelin-contracts/blob/master/contracts/token/ERC20/ERC20.sol\":7816:7822  amount */\n      dup2\n        /* \"https://github.com/OpenZeppelin/openzeppelin-contracts/blob/master/contracts/token/ERC20/ERC20.sol\":7801:7812  fromBalance */\n      dup2\n        /* \"https://github.com/OpenZeppelin/openzeppelin-contracts/blob/master/contracts/token/ERC20/ERC20.sol\":7801:7822  fromBalance >= amount */\n      lt\n      iszero\n        /* \"https://github.com/OpenZeppelin/openzeppelin-contracts/blob/master/contracts/token/ERC20/ERC20.sol\":7793:7865  require(fromBalance >= amount, \"ERC20: transfer amount exceeds balance\") */\n      tag_220\n      jumpi\n      mload(0x40)\n      0x08c379a000000000000000000000000000000000000000000000000000000000\n      dup2\n      mstore\n      0x04\n      add\n      tag_221\n      swap1\n      tag_222\n      jump\t// in\n    tag_221:\n      mload(0x40)\n      dup1\n      swap2\n      sub\n      swap1\n      revert\n    tag_220:\n        /* \"https://github.com/OpenZeppelin/openzeppelin-contracts/blob/master/contracts/token/ERC20/ERC20.sol\":7931:7937  amount */\n      dup2\n        /* \"https://github.com/OpenZeppelin/openzeppelin-contracts/blob/master/contracts/token/ERC20/ERC20.sol\":7917:7928  fromBalance */\n      dup2\n        /* \"https://github.com/OpenZeppelin/openzeppelin-contracts/blob/master/contracts/token/ERC20/ERC20.sol\":7917:7937  fromBalance - amount */\n      sub\n        /* \"https://github.com/OpenZeppelin/openzeppelin-contracts/blob/master/contracts/token/ERC20/ERC20.sol\":7899:7908  _balances */\n      0x00\n        /* \"https://github.com/OpenZeppelin/openzeppelin-contracts/blob/master/contracts/token/ERC20/ERC20.sol\":7899:7914  _balances[from] */\n      dup1\n        /* \"https://github.com/OpenZeppelin/openzeppelin-contracts/blob/master/contracts/token/ERC20/ERC20.sol\":7909:7913  from */\n      dup7\n        /* \"https://github.com/OpenZeppelin/openzeppelin-contracts/blob/master/contracts/token/ERC20/ERC20.sol\":7899:7914  _balances[from] */\n      0xffffffffffffffffffffffffffffffffffffffff\n      and\n      0xffffffffffffffffffffffffffffffffffffffff\n      and\n      dup2\n      mstore\n      0x20\n      add\n      swap1\n      dup2\n      mstore\n      0x20\n      add\n      0x00\n      keccak256\n        /* \"https://github.com/OpenZeppelin/openzeppelin-contracts/blob/master/contracts/token/ERC20/ERC20.sol\":7899:7937  _balances[from] = fromBalance - amount */\n      dup2\n      swap1\n      sstore\n      pop\n        /* \"https://github.com/OpenZeppelin/openzeppelin-contracts/blob/master/contracts/token/ERC20/ERC20.sol\":8131:8137  amount */\n      dup2\n        /* \"https://github.com/OpenZeppelin/openzeppelin-contracts/blob/master/contracts/token/ERC20/ERC20.sol\":8114:8123  _balances */\n      0x00\n        /* \"https://github.com/OpenZeppelin/openzeppelin-contracts/blob/master/contracts/token/ERC20/ERC20.sol\":8114:8127  _balances[to] */\n      dup1\n        /* \"https://github.com/OpenZeppelin/openzeppelin-contracts/blob/master/contracts/token/ERC20/ERC20.sol\":8124:8126  to */\n      dup6\n        /* \"https://github.com/OpenZeppelin/openzeppelin-contracts/blob/master/contracts/token/ERC20/ERC20.sol\":8114:8127  _balances[to] */\n      0xffffffffffffffffffffffffffffffffffffffff\n      and\n      0xffffffffffffffffffffffffffffffffffffffff\n      and\n      dup2\n      mstore\n      0x20\n      add\n      swap1\n      dup2\n      mstore\n      0x20\n      add\n      0x00\n      keccak256\n      0x00\n        /* \"https://github.com/OpenZeppelin/openzeppelin-contracts/blob/master/contracts/token/ERC20/ERC20.sol\":8114:8137  _balances[to] += amount */\n      dup3\n      dup3\n      sload\n      add\n      swap3\n      pop\n      pop\n      dup2\n      swap1\n      sstore\n      pop\n        /* \"https://github.com/OpenZeppelin/openzeppelin-contracts/blob/master/contracts/token/ERC20/ERC20.sol\":8178:8180  to */\n      dup3\n        /* \"https://github.com/OpenZeppelin/openzeppelin-contracts/blob/master/contracts/token/ERC20/ERC20.sol\":8163:8189  Transfer(from, to, amount) */\n      0xffffffffffffffffffffffffffffffffffffffff\n      and\n        /* \"https://github.com/OpenZeppelin/openzeppelin-contracts/blob/master/contracts/token/ERC20/ERC20.sol\":8172:8176  from */\n      dup5\n        /* \"https://github.com/OpenZeppelin/openzeppelin-contracts/blob/master/contracts/token/ERC20/ERC20.sol\":8163:8189  Transfer(from, to, amount) */\n      0xffffffffffffffffffffffffffffffffffffffff\n      and\n      0xddf252ad1be2c89b69c2b068fc378daa952ba7f163c4a11628f55a4df523b3ef\n        /* \"https://github.com/OpenZeppelin/openzeppelin-contracts/blob/master/contracts/token/ERC20/ERC20.sol\":8182:8188  amount */\n      dup5\n        /* \"https://github.com/OpenZeppelin/openzeppelin-contracts/blob/master/contracts/token/ERC20/ERC20.sol\":8163:8189  Transfer(from, to, amount) */\n      mload(0x40)\n      tag_223\n      swap2\n      swap1\n      tag_44\n      jump\t// in\n    tag_223:\n      mload(0x40)\n      dup1\n      swap2\n      sub\n      swap1\n      log3\n        /* \"https://github.com/OpenZeppelin/openzeppelin-contracts/blob/master/contracts/token/ERC20/ERC20.sol\":8200:8237  _afterTokenTransfer(from, to, amount) */\n      tag_224\n        /* \"https://github.com/OpenZeppelin/openzeppelin-contracts/blob/master/contracts/token/ERC20/ERC20.sol\":8220:8224  from */\n      dup5\n        /* \"https://github.com/OpenZeppelin/openzeppelin-contracts/blob/master/contracts/token/ERC20/ERC20.sol\":8226:8228  to */\n      dup5\n        /* \"https://github.com/OpenZeppelin/openzeppelin-contracts/blob/master/contracts/token/ERC20/ERC20.sol\":8230:8236  amount */\n      dup5\n        /* \"https://github.com/OpenZeppelin/openzeppelin-contracts/blob/master/contracts/token/ERC20/ERC20.sol\":8200:8219  _afterTokenTransfer */\n      tag_225\n        /* \"https://github.com/OpenZeppelin/openzeppelin-contracts/blob/master/contracts/token/ERC20/ERC20.sol\":8200:8237  _afterTokenTransfer(from, to, amount) */\n      jump\t// in\n    tag_224:\n        /* \"https://github.com/OpenZeppelin/openzeppelin-contracts/blob/master/contracts/token/ERC20/ERC20.sol\":7456:8244  function _transfer(address from, address to, uint256 amount) internal virtual {... */\n      pop\n      pop\n      pop\n      pop\n      jump\t// out\n        /* \"https://github.com/OpenZeppelin/openzeppelin-contracts/blob/master/contracts/token/ERC20/ERC20.sol\":9375:10034  function _burn(address account, uint256 amount) internal virtual {... */\n    tag_184:\n        /* \"https://github.com/OpenZeppelin/openzeppelin-contracts/blob/master/contracts/token/ERC20/ERC20.sol\":9477:9478  0 */\n      0x00\n        /* \"https://github.com/OpenZeppelin/openzeppelin-contracts/blob/master/contracts/token/ERC20/ERC20.sol\":9458:9479  account != address(0) */\n      0xffffffffffffffffffffffffffffffffffffffff\n      and\n        /* \"https://github.com/OpenZeppelin/openzeppelin-contracts/blob/master/contracts/token/ERC20/ERC20.sol\":9458:9465  account */\n      dup3\n        /* \"https://github.com/OpenZeppelin/openzeppelin-contracts/blob/master/contracts/token/ERC20/ERC20.sol\":9458:9479  account != address(0) */\n      0xffffffffffffffffffffffffffffffffffffffff\n      and\n      eq\n      iszero\n        /* \"https://github.com/OpenZeppelin/openzeppelin-contracts/blob/master/contracts/token/ERC20/ERC20.sol\":9450:9517  require(account != address(0), \"ERC20: burn from the zero address\") */\n      tag_227\n      jumpi\n      mload(0x40)\n      0x08c379a000000000000000000000000000000000000000000000000000000000\n      dup2\n      mstore\n      0x04\n      add\n      tag_228\n      swap1\n      tag_229\n      jump\t// in\n    tag_228:\n      mload(0x40)\n      dup1\n      swap2\n      sub\n      swap1\n      revert\n    tag_227:\n        /* \"https://github.com/OpenZeppelin/openzeppelin-contracts/blob/master/contracts/token/ERC20/ERC20.sol\":9528:9577  _beforeTokenTransfer(account, address(0), amount) */\n      tag_230\n        /* \"https://github.com/OpenZeppelin/openzeppelin-contracts/blob/master/contracts/token/ERC20/ERC20.sol\":9549:9556  account */\n      dup3\n        /* \"https://github.com/OpenZeppelin/openzeppelin-contracts/blob/master/contracts/token/ERC20/ERC20.sol\":9566:9567  0 */\n      0x00\n        /* \"https://github.com/OpenZeppelin/openzeppelin-contracts/blob/master/contracts/token/ERC20/ERC20.sol\":9570:9576  amount */\n      dup4\n        /* \"https://github.com/OpenZeppelin/openzeppelin-contracts/blob/master/contracts/token/ERC20/ERC20.sol\":9528:9548  _beforeTokenTransfer */\n      tag_219\n        /* \"https://github.com/OpenZeppelin/openzeppelin-contracts/blob/master/contracts/token/ERC20/ERC20.sol\":9528:9577  _beforeTokenTransfer(account, address(0), amount) */\n      jump\t// in\n    tag_230:\n        /* \"https://github.com/OpenZeppelin/openzeppelin-contracts/blob/master/contracts/token/ERC20/ERC20.sol\":9588:9610  uint256 accountBalance */\n      0x00\n        /* \"https://github.com/OpenZeppelin/openzeppelin-contracts/blob/master/contracts/token/ERC20/ERC20.sol\":9613:9622  _balances */\n      dup1\n        /* \"https://github.com/OpenZeppelin/openzeppelin-contracts/blob/master/contracts/token/ERC20/ERC20.sol\":9613:9631  _balances[account] */\n      0x00\n        /* \"https://github.com/OpenZeppelin/openzeppelin-contracts/blob/master/contracts/token/ERC20/ERC20.sol\":9623:9630  account */\n      dup5\n        /* \"https://github.com/OpenZeppelin/openzeppelin-contracts/blob/master/contracts/token/ERC20/ERC20.sol\":9613:9631  _balances[account] */\n      0xffffffffffffffffffffffffffffffffffffffff\n      and\n      0xffffffffffffffffffffffffffffffffffffffff\n      and\n      dup2\n      mstore\n      0x20\n      add\n      swap1\n      dup2\n      mstore\n      0x20\n      add\n      0x00\n      keccak256\n      sload\n        /* \"https://github.com/OpenZeppelin/openzeppelin-contracts/blob/master/contracts/token/ERC20/ERC20.sol\":9588:9631  uint256 accountBalance = _balances[account] */\n      swap1\n      pop\n        /* \"https://github.com/OpenZeppelin/openzeppelin-contracts/blob/master/contracts/token/ERC20/ERC20.sol\":9667:9673  amount */\n      dup2\n        /* \"https://github.com/OpenZeppelin/openzeppelin-contracts/blob/master/contracts/token/ERC20/ERC20.sol\":9649:9663  accountBalance */\n      dup2\n        /* \"https://github.com/OpenZeppelin/openzeppelin-contracts/blob/master/contracts/token/ERC20/ERC20.sol\":9649:9673  accountBalance >= amount */\n      lt\n      iszero\n        /* \"https://github.com/OpenZeppelin/openzeppelin-contracts/blob/master/contracts/token/ERC20/ERC20.sol\":9641:9712  require(accountBalance >= amount, \"ERC20: burn amount exceeds balance\") */\n      tag_231\n      jumpi\n      mload(0x40)\n      0x08c379a000000000000000000000000000000000000000000000000000000000\n      dup2\n      mstore\n      0x04\n      add\n      tag_232\n      swap1\n      tag_233\n      jump\t// in\n    tag_232:\n      mload(0x40)\n      dup1\n      swap2\n      sub\n      swap1\n      revert\n    tag_231:\n        /* \"https://github.com/OpenZeppelin/openzeppelin-contracts/blob/master/contracts/token/ERC20/ERC20.sol\":9784:9790  amount */\n      dup2\n        /* \"https://github.com/OpenZeppelin/openzeppelin-contracts/blob/master/contracts/token/ERC20/ERC20.sol\":9767:9781  accountBalance */\n      dup2\n        /* \"https://github.com/OpenZeppelin/openzeppelin-contracts/blob/master/contracts/token/ERC20/ERC20.sol\":9767:9790  accountBalance - amount */\n      sub\n        /* \"https://github.com/OpenZeppelin/openzeppelin-contracts/blob/master/contracts/token/ERC20/ERC20.sol\":9746:9755  _balances */\n      0x00\n        /* \"https://github.com/OpenZeppelin/openzeppelin-contracts/blob/master/contracts/token/ERC20/ERC20.sol\":9746:9764  _balances[account] */\n      dup1\n        /* \"https://github.com/OpenZeppelin/openzeppelin-contracts/blob/master/contracts/token/ERC20/ERC20.sol\":9756:9763  account */\n      dup6\n        /* \"https://github.com/OpenZeppelin/openzeppelin-contracts/blob/master/contracts/token/ERC20/ERC20.sol\":9746:9764  _balances[account] */\n      0xffffffffffffffffffffffffffffffffffffffff\n      and\n      0xffffffffffffffffffffffffffffffffffffffff\n      and\n      dup2\n      mstore\n      0x20\n      add\n      swap1\n      dup2\n      mstore\n      0x20\n      add\n      0x00\n      keccak256\n        /* \"https://github.com/OpenZeppelin/openzeppelin-contracts/blob/master/contracts/token/ERC20/ERC20.sol\":9746:9790  _balances[account] = accountBalance - amount */\n      dup2\n      swap1\n      sstore\n      pop\n        /* \"https://github.com/OpenZeppelin/openzeppelin-contracts/blob/master/contracts/token/ERC20/ERC20.sol\":9899:9905  amount */\n      dup2\n        /* \"https://github.com/OpenZeppelin/openzeppelin-contracts/blob/master/contracts/token/ERC20/ERC20.sol\":9883:9895  _totalSupply */\n      0x02\n      0x00\n        /* \"https://github.com/OpenZeppelin/openzeppelin-contracts/blob/master/contracts/token/ERC20/ERC20.sol\":9883:9905  _totalSupply -= amount */\n      dup3\n      dup3\n      sload\n      sub\n      swap3\n      pop\n      pop\n      dup2\n      swap1\n      sstore\n      pop\n        /* \"https://github.com/OpenZeppelin/openzeppelin-contracts/blob/master/contracts/token/ERC20/ERC20.sol\":9957:9958  0 */\n      0x00\n        /* \"https://github.com/OpenZeppelin/openzeppelin-contracts/blob/master/contracts/token/ERC20/ERC20.sol\":9931:9968  Transfer(account, address(0), amount) */\n      0xffffffffffffffffffffffffffffffffffffffff\n      and\n        /* \"https://github.com/OpenZeppelin/openzeppelin-contracts/blob/master/contracts/token/ERC20/ERC20.sol\":9940:9947  account */\n      dup4\n        /* \"https://github.com/OpenZeppelin/openzeppelin-contracts/blob/master/contracts/token/ERC20/ERC20.sol\":9931:9968  Transfer(account, address(0), amount) */\n      0xffffffffffffffffffffffffffffffffffffffff\n      and\n      0xddf252ad1be2c89b69c2b068fc378daa952ba7f163c4a11628f55a4df523b3ef\n        /* \"https://github.com/OpenZeppelin/openzeppelin-contracts/blob/master/contracts/token/ERC20/ERC20.sol\":9961:9967  amount */\n      dup5\n        /* \"https://github.com/OpenZeppelin/openzeppelin-contracts/blob/master/contracts/token/ERC20/ERC20.sol\":9931:9968  Transfer(account, address(0), amount) */\n      mload(0x40)\n      tag_234\n      swap2\n      swap1\n      tag_44\n      jump\t// in\n    tag_234:\n      mload(0x40)\n      dup1\n      swap2\n      sub\n      swap1\n      log3\n        /* \"https://github.com/OpenZeppelin/openzeppelin-contracts/blob/master/contracts/token/ERC20/ERC20.sol\":9979:10027  _afterTokenTransfer(account, address(0), amount) */\n      tag_235\n        /* \"https://github.com/OpenZeppelin/openzeppelin-contracts/blob/master/contracts/token/ERC20/ERC20.sol\":9999:10006  account */\n      dup4\n        /* \"https://github.com/OpenZeppelin/openzeppelin-contracts/blob/master/contracts/token/ERC20/ERC20.sol\":10016:10017  0 */\n      0x00\n        /* \"https://github.com/OpenZeppelin/openzeppelin-contracts/blob/master/contracts/token/ERC20/ERC20.sol\":10020:10026  amount */\n      dup5\n        /* \"https://github.com/OpenZeppelin/openzeppelin-contracts/blob/master/contracts/token/ERC20/ERC20.sol\":9979:9998  _afterTokenTransfer */\n      tag_225\n        /* \"https://github.com/OpenZeppelin/openzeppelin-contracts/blob/master/contracts/token/ERC20/ERC20.sol\":9979:10027  _afterTokenTransfer(account, address(0), amount) */\n      jump\t// in\n    tag_235:\n        /* \"https://github.com/OpenZeppelin/openzeppelin-contracts/blob/master/contracts/token/ERC20/ERC20.sol\":9375:10034  function _burn(address account, uint256 amount) internal virtual {... */\n      pop\n      pop\n      pop\n      jump\t// out\n        /* \"https://github.com/OpenZeppelin/openzeppelin-contracts/blob/master/contracts/token/ERC20/ERC20.sol\":12073:12164  function _beforeTokenTransfer(address from, address to, uint256 amount) internal virtual {} */\n    tag_219:\n      pop\n      pop\n      pop\n      jump\t// out\n        /* \"https://github.com/OpenZeppelin/openzeppelin-contracts/blob/master/contracts/token/ERC20/ERC20.sol\":12752:12842  function _afterTokenTransfer(address from, address to, uint256 amount) internal virtual {} */\n    tag_225:\n      pop\n      pop\n      pop\n      jump\t// out\n        /* \"#utility.yul\":7:146   */\n    tag_239:\n      0x00\n        /* \"#utility.yul\":91:97   */\n      dup2\n        /* \"#utility.yul\":78:98   */\n      calldataload\n        /* \"#utility.yul\":69:98   */\n      swap1\n      pop\n        /* \"#utility.yul\":107:140   */\n      tag_241\n        /* \"#utility.yul\":134:139   */\n      dup2\n        /* \"#utility.yul\":107:140   */\n      tag_242\n      jump\t// in\n    tag_241:\n        /* \"#utility.yul\":59:146   */\n      swap3\n      swap2\n      pop\n      pop\n      jump\t// out\n        /* \"#utility.yul\":152:285   */\n    tag_243:\n      0x00\n        /* \"#utility.yul\":233:239   */\n      dup2\n        /* \"#utility.yul\":220:240   */\n      calldataload\n        /* \"#utility.yul\":211:240   */\n      swap1\n      pop\n        /* \"#utility.yul\":249:279   */\n      tag_245\n        /* \"#utility.yul\":273:278   */\n      dup2\n        /* \"#utility.yul\":249:279   */\n      tag_246\n      jump\t// in\n    tag_245:\n        /* \"#utility.yul\":201:285   */\n      swap3\n      swap2\n      pop\n      pop\n      jump\t// out\n        /* \"#utility.yul\":291:430   */\n    tag_247:\n      0x00\n        /* \"#utility.yul\":375:381   */\n      dup2\n        /* \"#utility.yul\":362:382   */\n      calldataload\n        /* \"#utility.yul\":353:382   */\n      swap1\n      pop\n        /* \"#utility.yul\":391:424   */\n      tag_249\n        /* \"#utility.yul\":418:423   */\n      dup2\n        /* \"#utility.yul\":391:424   */\n      tag_250\n      jump\t// in\n    tag_249:\n        /* \"#utility.yul\":343:430   */\n      swap3\n      swap2\n      pop\n      pop\n      jump\t// out\n        /* \"#utility.yul\":436:698   */\n    tag_66:\n      0x00\n        /* \"#utility.yul\":544:546   */\n      0x20\n        /* \"#utility.yul\":532:541   */\n      dup3\n        /* \"#utility.yul\":523:530   */\n      dup5\n        /* \"#utility.yul\":519:542   */\n      sub\n        /* \"#utility.yul\":515:547   */\n      slt\n        /* \"#utility.yul\":512:514   */\n      iszero\n      tag_252\n      jumpi\n        /* \"#utility.yul\":560:561   */\n      0x00\n        /* \"#utility.yul\":557:558   */\n      dup1\n        /* \"#utility.yul\":550:562   */\n      revert\n        /* \"#utility.yul\":512:514   */\n    tag_252:\n        /* \"#utility.yul\":603:604   */\n      0x00\n        /* \"#utility.yul\":628:681   */\n      tag_253\n        /* \"#utility.yul\":673:680   */\n      dup5\n        /* \"#utility.yul\":664:670   */\n      dup3\n        /* \"#utility.yul\":653:662   */\n      dup6\n        /* \"#utility.yul\":649:671   */\n      add\n        /* \"#utility.yul\":628:681   */\n      tag_239\n      jump\t// in\n    tag_253:\n        /* \"#utility.yul\":618:681   */\n      swap2\n      pop\n        /* \"#utility.yul\":574:691   */\n      pop\n        /* \"#utility.yul\":502:698   */\n      swap3\n      swap2\n      pop\n      pop\n      jump\t// out\n        /* \"#utility.yul\":704:1111   */\n    tag_102:\n      0x00\n      dup1\n        /* \"#utility.yul\":829:831   */\n      0x40\n        /* \"#utility.yul\":817:826   */\n      dup4\n        /* \"#utility.yul\":808:815   */\n      dup6\n        /* \"#utility.yul\":804:827   */\n      sub\n        /* \"#utility.yul\":800:832   */\n      slt\n        /* \"#utility.yul\":797:799   */\n      iszero\n      tag_255\n      jumpi\n        /* \"#utility.yul\":845:846   */\n      0x00\n        /* \"#utility.yul\":842:843   */\n      dup1\n        /* \"#utility.yul\":835:847   */\n      revert\n        /* \"#utility.yul\":797:799   */\n    tag_255:\n        /* \"#utility.yul\":888:889   */\n      0x00\n        /* \"#utility.yul\":913:966   */\n      tag_256\n        /* \"#utility.yul\":958:965   */\n      dup6\n        /* \"#utility.yul\":949:955   */\n      dup3\n        /* \"#utility.yul\":938:947   */\n      dup7\n        /* \"#utility.yul\":934:956   */\n      add\n        /* \"#utility.yul\":913:966   */\n      tag_239\n      jump\t// in\n    tag_256:\n        /* \"#utility.yul\":903:966   */\n      swap3\n      pop\n        /* \"#utility.yul\":859:976   */\n      pop\n        /* \"#utility.yul\":1015:1017   */\n      0x20\n        /* \"#utility.yul\":1041:1094   */\n      tag_257\n        /* \"#utility.yul\":1086:1093   */\n      dup6\n        /* \"#utility.yul\":1077:1083   */\n      dup3\n        /* \"#utility.yul\":1066:1075   */\n      dup7\n        /* \"#utility.yul\":1062:1084   */\n      add\n        /* \"#utility.yul\":1041:1094   */\n      tag_239\n      jump\t// in\n    tag_257:\n        /* \"#utility.yul\":1031:1094   */\n      swap2\n      pop\n        /* \"#utility.yul\":986:1104   */\n      pop\n        /* \"#utility.yul\":787:1111   */\n      swap3\n      pop\n      swap3\n      swap1\n      pop\n      jump\t// out\n        /* \"#utility.yul\":1117:1669   */\n    tag_47:\n      0x00\n      dup1\n      0x00\n        /* \"#utility.yul\":1259:1261   */\n      0x60\n        /* \"#utility.yul\":1247:1256   */\n      dup5\n        /* \"#utility.yul\":1238:1245   */\n      dup7\n        /* \"#utility.yul\":1234:1257   */\n      sub\n        /* \"#utility.yul\":1230:1262   */\n      slt\n        /* \"#utility.yul\":1227:1229   */\n      iszero\n      tag_259\n      jumpi\n        /* \"#utility.yul\":1275:1276   */\n      0x00\n        /* \"#utility.yul\":1272:1273   */\n      dup1\n        /* \"#utility.yul\":1265:1277   */\n      revert\n        /* \"#utility.yul\":1227:1229   */\n    tag_259:\n        /* \"#utility.yul\":1318:1319   */\n      0x00\n        /* \"#utility.yul\":1343:1396   */\n      tag_260\n        /* \"#utility.yul\":1388:1395   */\n      dup7\n        /* \"#utility.yul\":1379:1385   */\n      dup3\n        /* \"#utility.yul\":1368:1377   */\n      dup8\n        /* \"#utility.yul\":1364:1386   */\n      add\n        /* \"#utility.yul\":1343:1396   */\n      tag_239\n      jump\t// in\n    tag_260:\n        /* \"#utility.yul\":1333:1396   */\n      swap4\n      pop\n        /* \"#utility.yul\":1289:1406   */\n      pop\n        /* \"#utility.yul\":1445:1447   */\n      0x20\n        /* \"#utility.yul\":1471:1524   */\n      tag_261\n        /* \"#utility.yul\":1516:1523   */\n      dup7\n        /* \"#utility.yul\":1507:1513   */\n      dup3\n        /* \"#utility.yul\":1496:1505   */\n      dup8\n        /* \"#utility.yul\":1492:1514   */\n      add\n        /* \"#utility.yul\":1471:1524   */\n      tag_239\n      jump\t// in\n    tag_261:\n        /* \"#utility.yul\":1461:1524   */\n      swap3\n      pop\n        /* \"#utility.yul\":1416:1534   */\n      pop\n        /* \"#utility.yul\":1573:1575   */\n      0x40\n        /* \"#utility.yul\":1599:1652   */\n      tag_262\n        /* \"#utility.yul\":1644:1651   */\n      dup7\n        /* \"#utility.yul\":1635:1641   */\n      dup3\n        /* \"#utility.yul\":1624:1633   */\n      dup8\n        /* \"#utility.yul\":1620:1642   */\n      add\n        /* \"#utility.yul\":1599:1652   */\n      tag_247\n      jump\t// in\n    tag_262:\n        /* \"#utility.yul\":1589:1652   */\n      swap2\n      pop\n        /* \"#utility.yul\":1544:1662   */\n      pop\n        /* \"#utility.yul\":1217:1669   */\n      swap3\n      pop\n      swap3\n      pop\n      swap3\n      jump\t// out\n        /* \"#utility.yul\":1675:2082   */\n    tag_33:\n      0x00\n      dup1\n        /* \"#utility.yul\":1800:1802   */\n      0x40\n        /* \"#utility.yul\":1788:1797   */\n      dup4\n        /* \"#utility.yul\":1779:1786   */\n      dup6\n        /* \"#utility.yul\":1775:1798   */\n      sub\n        /* \"#utility.yul\":1771:1803   */\n      slt\n        /* \"#utility.yul\":1768:1770   */\n      iszero\n      tag_264\n      jumpi\n        /* \"#utility.yul\":1816:1817   */\n      0x00\n        /* \"#utility.yul\":1813:1814   */\n      dup1\n        /* \"#utility.yul\":1806:1818   */\n      revert\n        /* \"#utility.yul\":1768:1770   */\n    tag_264:\n        /* \"#utility.yul\":1859:1860   */\n      0x00\n        /* \"#utility.yul\":1884:1937   */\n      tag_265\n        /* \"#utility.yul\":1929:1936   */\n      dup6\n        /* \"#utility.yul\":1920:1926   */\n      dup3\n        /* \"#utility.yul\":1909:1918   */\n      dup7\n        /* \"#utility.yul\":1905:1927   */\n      add\n        /* \"#utility.yul\":1884:1937   */\n      tag_239\n      jump\t// in\n    tag_265:\n        /* \"#utility.yul\":1874:1937   */\n      swap3\n      pop\n        /* \"#utility.yul\":1830:1947   */\n      pop\n        /* \"#utility.yul\":1986:1988   */\n      0x20\n        /* \"#utility.yul\":2012:2065   */\n      tag_266\n        /* \"#utility.yul\":2057:2064   */\n      dup6\n        /* \"#utility.yul\":2048:2054   */\n      dup3\n        /* \"#utility.yul\":2037:2046   */\n      dup7\n        /* \"#utility.yul\":2033:2055   */\n      add\n        /* \"#utility.yul\":2012:2065   */\n      tag_247\n      jump\t// in\n    tag_266:\n        /* \"#utility.yul\":2002:2065   */\n      swap2\n      pop\n        /* \"#utility.yul\":1957:2075   */\n      pop\n        /* \"#utility.yul\":1758:2082   */\n      swap3\n      pop\n      swap3\n      swap1\n      pop\n      jump\t// out\n        /* \"#utility.yul\":2088:2344   */\n    tag_92:\n      0x00\n        /* \"#utility.yul\":2193:2195   */\n      0x20\n        /* \"#utility.yul\":2181:2190   */\n      dup3\n        /* \"#utility.yul\":2172:2179   */\n      dup5\n        /* \"#utility.yul\":2168:2191   */\n      sub\n        /* \"#utility.yul\":2164:2196   */\n      slt\n        /* \"#utility.yul\":2161:2163   */\n      iszero\n      tag_268\n      jumpi\n        /* \"#utility.yul\":2209:2210   */\n      0x00\n        /* \"#utility.yul\":2206:2207   */\n      dup1\n        /* \"#utility.yul\":2199:2211   */\n      revert\n        /* \"#utility.yul\":2161:2163   */\n    tag_268:\n        /* \"#utility.yul\":2252:2253   */\n      0x00\n        /* \"#utility.yul\":2277:2327   */\n      tag_269\n        /* \"#utility.yul\":2319:2326   */\n      dup5\n        /* \"#utility.yul\":2310:2316   */\n      dup3\n        /* \"#utility.yul\":2299:2308   */\n      dup6\n        /* \"#utility.yul\":2295:2317   */\n      add\n        /* \"#utility.yul\":2277:2327   */\n      tag_243\n      jump\t// in\n    tag_269:\n        /* \"#utility.yul\":2267:2327   */\n      swap2\n      pop\n        /* \"#utility.yul\":2223:2337   */\n      pop\n        /* \"#utility.yul\":2151:2344   */\n      swap3\n      swap2\n      pop\n      pop\n      jump\t// out\n        /* \"#utility.yul\":2350:2612   */\n    tag_39:\n      0x00\n        /* \"#utility.yul\":2458:2460   */\n      0x20\n        /* \"#utility.yul\":2446:2455   */\n      dup3\n        /* \"#utility.yul\":2437:2444   */\n      dup5\n        /* \"#utility.yul\":2433:2456   */\n      sub\n        /* \"#utility.yul\":2429:2461   */\n      slt\n        /* \"#utility.yul\":2426:2428   */\n      iszero\n      tag_271\n      jumpi\n        /* \"#utility.yul\":2474:2475   */\n      0x00\n        /* \"#utility.yul\":2471:2472   */\n      dup1\n        /* \"#utility.yul\":2464:2476   */\n      revert\n        /* \"#utility.yul\":2426:2428   */\n    tag_271:\n        /* \"#utility.yul\":2517:2518   */\n      0x00\n        /* \"#utility.yul\":2542:2595   */\n      tag_272\n        /* \"#utility.yul\":2587:2594   */\n      dup5\n        /* \"#utility.yul\":2578:2584   */\n      dup3\n        /* \"#utility.yul\":2567:2576   */\n      dup6\n        /* \"#utility.yul\":2563:2585   */\n      add\n        /* \"#utility.yul\":2542:2595   */\n      tag_247\n      jump\t// in\n    tag_272:\n        /* \"#utility.yul\":2532:2595   */\n      swap2\n      pop\n        /* \"#utility.yul\":2488:2605   */\n      pop\n        /* \"#utility.yul\":2416:2612   */\n      swap3\n      swap2\n      pop\n      pop\n      jump\t// out\n        /* \"#utility.yul\":2618:2736   */\n    tag_273:\n        /* \"#utility.yul\":2705:2729   */\n      tag_275\n        /* \"#utility.yul\":2723:2728   */\n      dup2\n        /* \"#utility.yul\":2705:2729   */\n      tag_276\n      jump\t// in\n    tag_275:\n        /* \"#utility.yul\":2700:2703   */\n      dup3\n        /* \"#utility.yul\":2693:2730   */\n      mstore\n        /* \"#utility.yul\":2683:2736   */\n      pop\n      pop\n      jump\t// out\n        /* \"#utility.yul\":2742:2851   */\n    tag_277:\n        /* \"#utility.yul\":2823:2844   */\n      tag_279\n        /* \"#utility.yul\":2838:2843   */\n      dup2\n        /* \"#utility.yul\":2823:2844   */\n      tag_280\n      jump\t// in\n    tag_279:\n        /* \"#utility.yul\":2818:2821   */\n      dup3\n        /* \"#utility.yul\":2811:2845   */\n      mstore\n        /* \"#utility.yul\":2801:2851   */\n      pop\n      pop\n      jump\t// out\n        /* \"#utility.yul\":2857:3221   */\n    tag_281:\n      0x00\n        /* \"#utility.yul\":2973:3012   */\n      tag_283\n        /* \"#utility.yul\":3006:3011   */\n      dup3\n        /* \"#utility.yul\":2973:3012   */\n      tag_284\n      jump\t// in\n    tag_283:\n        /* \"#utility.yul\":3028:3099   */\n      tag_285\n        /* \"#utility.yul\":3092:3098   */\n      dup2\n        /* \"#utility.yul\":3087:3090   */\n      dup6\n        /* \"#utility.yul\":3028:3099   */\n      tag_286\n      jump\t// in\n    tag_285:\n        /* \"#utility.yul\":3021:3099   */\n      swap4\n      pop\n        /* \"#utility.yul\":3108:3160   */\n      tag_287\n        /* \"#utility.yul\":3153:3159   */\n      dup2\n        /* \"#utility.yul\":3148:3151   */\n      dup6\n        /* \"#utility.yul\":3141:3145   */\n      0x20\n        /* \"#utility.yul\":3134:3139   */\n      dup7\n        /* \"#utility.yul\":3130:3146   */\n      add\n        /* \"#utility.yul\":3108:3160   */\n      tag_288\n      jump\t// in\n    tag_287:\n        /* \"#utility.yul\":3185:3214   */\n      tag_289\n        /* \"#utility.yul\":3207:3213   */\n      dup2\n        /* \"#utility.yul\":3185:3214   */\n      tag_290\n      jump\t// in\n    tag_289:\n        /* \"#utility.yul\":3180:3183   */\n      dup5\n        /* \"#utility.yul\":3176:3215   */\n      add\n        /* \"#utility.yul\":3169:3215   */\n      swap2\n      pop\n        /* \"#utility.yul\":2949:3221   */\n      pop\n      swap3\n      swap2\n      pop\n      pop\n      jump\t// out\n        /* \"#utility.yul\":3227:3594   */\n    tag_291:\n      0x00\n        /* \"#utility.yul\":3390:3457   */\n      tag_293\n        /* \"#utility.yul\":3454:3456   */\n      0x23\n        /* \"#utility.yul\":3449:3452   */\n      dup4\n        /* \"#utility.yul\":3390:3457   */\n      tag_286\n      jump\t// in\n    tag_293:\n        /* \"#utility.yul\":3383:3457   */\n      swap2\n      pop\n        /* \"#utility.yul\":3487:3521   */\n      0x45524332303a207472616e7366657220746f20746865207a65726f2061646472\n        /* \"#utility.yul\":3483:3484   */\n      0x00\n        /* \"#utility.yul\":3478:3481   */\n      dup4\n        /* \"#utility.yul\":3474:3485   */\n      add\n        /* \"#utility.yul\":3467:3522   */\n      mstore\n        /* \"#utility.yul\":3553:3558   */\n      0x6573730000000000000000000000000000000000000000000000000000000000\n        /* \"#utility.yul\":3548:3550   */\n      0x20\n        /* \"#utility.yul\":3543:3546   */\n      dup4\n        /* \"#utility.yul\":3539:3551   */\n      add\n        /* \"#utility.yul\":3532:3559   */\n      mstore\n        /* \"#utility.yul\":3585:3587   */\n      0x40\n        /* \"#utility.yul\":3580:3583   */\n      dup3\n        /* \"#utility.yul\":3576:3588   */\n      add\n        /* \"#utility.yul\":3569:3588   */\n      swap1\n      pop\n        /* \"#utility.yul\":3373:3594   */\n      swap2\n      swap1\n      pop\n      jump\t// out\n        /* \"#utility.yul\":3600:3966   */\n    tag_294:\n      0x00\n        /* \"#utility.yul\":3763:3830   */\n      tag_296\n        /* \"#utility.yul\":3827:3829   */\n      0x22\n        /* \"#utility.yul\":3822:3825   */\n      dup4\n        /* \"#utility.yul\":3763:3830   */\n      tag_286\n      jump\t// in\n    tag_296:\n        /* \"#utility.yul\":3756:3830   */\n      swap2\n      pop\n        /* \"#utility.yul\":3860:3894   */\n      0x45524332303a206275726e20616d6f756e7420657863656564732062616c616e\n        /* \"#utility.yul\":3856:3857   */\n      0x00\n        /* \"#utility.yul\":3851:3854   */\n      dup4\n        /* \"#utility.yul\":3847:3858   */\n      add\n        /* \"#utility.yul\":3840:3895   */\n      mstore\n        /* \"#utility.yul\":3926:3930   */\n      0x6365000000000000000000000000000000000000000000000000000000000000\n        /* \"#utility.yul\":3921:3923   */\n      0x20\n        /* \"#utility.yul\":3916:3919   */\n      dup4\n        /* \"#utility.yul\":3912:3924   */\n      add\n        /* \"#utility.yul\":3905:3931   */\n      mstore\n        /* \"#utility.yul\":3957:3959   */\n      0x40\n        /* \"#utility.yul\":3952:3955   */\n      dup3\n        /* \"#utility.yul\":3948:3960   */\n      add\n        /* \"#utility.yul\":3941:3960   */\n      swap1\n      pop\n        /* \"#utility.yul\":3746:3966   */\n      swap2\n      swap1\n      pop\n      jump\t// out\n        /* \"#utility.yul\":3972:4342   */\n    tag_297:\n      0x00\n        /* \"#utility.yul\":4135:4202   */\n      tag_299\n        /* \"#utility.yul\":4199:4201   */\n      0x26\n        /* \"#utility.yul\":4194:4197   */\n      dup4\n        /* \"#utility.yul\":4135:4202   */\n      tag_286\n      jump\t// in\n    tag_299:\n        /* \"#utility.yul\":4128:4202   */\n      swap2\n      pop\n        /* \"#utility.yul\":4232:4266   */\n      0x4f6e6c7920746865206f776e65722063616e2063616c6c20746869732066756e\n        /* \"#utility.yul\":4228:4229   */\n      0x00\n        /* \"#utility.yul\":4223:4226   */\n      dup4\n        /* \"#utility.yul\":4219:4230   */\n      add\n        /* \"#utility.yul\":4212:4267   */\n      mstore\n        /* \"#utility.yul\":4298:4306   */\n      0x6374696f6e2e0000000000000000000000000000000000000000000000000000\n        /* \"#utility.yul\":4293:4295   */\n      0x20\n        /* \"#utility.yul\":4288:4291   */\n      dup4\n        /* \"#utility.yul\":4284:4296   */\n      add\n        /* \"#utility.yul\":4277:4307   */\n      mstore\n        /* \"#utility.yul\":4333:4335   */\n      0x40\n        /* \"#utility.yul\":4328:4331   */\n      dup3\n        /* \"#utility.yul\":4324:4336   */\n      add\n        /* \"#utility.yul\":4317:4336   */\n      swap1\n      pop\n        /* \"#utility.yul\":4118:4342   */\n      swap2\n      swap1\n      pop\n      jump\t// out\n        /* \"#utility.yul\":4348:4714   */\n    tag_300:\n      0x00\n        /* \"#utility.yul\":4511:4578   */\n      tag_302\n        /* \"#utility.yul\":4575:4577   */\n      0x22\n        /* \"#utility.yul\":4570:4573   */\n      dup4\n        /* \"#utility.yul\":4511:4578   */\n      tag_286\n      jump\t// in\n    tag_302:\n        /* \"#utility.yul\":4504:4578   */\n      swap2\n      pop\n        /* \"#utility.yul\":4608:4642   */\n      0x45524332303a20617070726f766520746f20746865207a65726f206164647265\n        /* \"#utility.yul\":4604:4605   */\n      0x00\n        /* \"#utility.yul\":4599:4602   */\n      dup4\n        /* \"#utility.yul\":4595:4606   */\n      add\n        /* \"#utility.yul\":4588:4643   */\n      mstore\n        /* \"#utility.yul\":4674:4678   */\n      0x7373000000000000000000000000000000000000000000000000000000000000\n        /* \"#utility.yul\":4669:4671   */\n      0x20\n        /* \"#utility.yul\":4664:4667   */\n      dup4\n        /* \"#utility.yul\":4660:4672   */\n      add\n        /* \"#utility.yul\":4653:4679   */\n      mstore\n        /* \"#utility.yul\":4705:4707   */\n      0x40\n        /* \"#utility.yul\":4700:4703   */\n      dup3\n        /* \"#utility.yul\":4696:4708   */\n      add\n        /* \"#utility.yul\":4689:4708   */\n      swap1\n      pop\n        /* \"#utility.yul\":4494:4714   */\n      swap2\n      swap1\n      pop\n      jump\t// out\n        /* \"#utility.yul\":4720:5047   */\n    tag_303:\n      0x00\n        /* \"#utility.yul\":4883:4950   */\n      tag_305\n        /* \"#utility.yul\":4947:4949   */\n      0x1d\n        /* \"#utility.yul\":4942:4945   */\n      dup4\n        /* \"#utility.yul\":4883:4950   */\n      tag_286\n      jump\t// in\n    tag_305:\n        /* \"#utility.yul\":4876:4950   */\n      swap2\n      pop\n        /* \"#utility.yul\":4980:5011   */\n      0x45524332303a20696e73756666696369656e7420616c6c6f77616e6365000000\n        /* \"#utility.yul\":4976:4977   */\n      0x00\n        /* \"#utility.yul\":4971:4974   */\n      dup4\n        /* \"#utility.yul\":4967:4978   */\n      add\n        /* \"#utility.yul\":4960:5012   */\n      mstore\n        /* \"#utility.yul\":5038:5040   */\n      0x20\n        /* \"#utility.yul\":5033:5036   */\n      dup3\n        /* \"#utility.yul\":5029:5041   */\n      add\n        /* \"#utility.yul\":5022:5041   */\n      swap1\n      pop\n        /* \"#utility.yul\":4866:5047   */\n      swap2\n      swap1\n      pop\n      jump\t// out\n        /* \"#utility.yul\":5053:5423   */\n    tag_306:\n      0x00\n        /* \"#utility.yul\":5216:5283   */\n      tag_308\n        /* \"#utility.yul\":5280:5282   */\n      0x26\n        /* \"#utility.yul\":5275:5278   */\n      dup4\n        /* \"#utility.yul\":5216:5283   */\n      tag_286\n      jump\t// in\n    tag_308:\n        /* \"#utility.yul\":5209:5283   */\n      swap2\n      pop\n        /* \"#utility.yul\":5313:5347   */\n      0x45524332303a207472616e7366657220616d6f756e7420657863656564732062\n        /* \"#utility.yul\":5309:5310   */\n      0x00\n        /* \"#utility.yul\":5304:5307   */\n      dup4\n        /* \"#utility.yul\":5300:5311   */\n      add\n        /* \"#utility.yul\":5293:5348   */\n      mstore\n        /* \"#utility.yul\":5379:5387   */\n      0x616c616e63650000000000000000000000000000000000000000000000000000\n        /* \"#utility.yul\":5374:5376   */\n      0x20\n        /* \"#utility.yul\":5369:5372   */\n      dup4\n        /* \"#utility.yul\":5365:5377   */\n      add\n        /* \"#utility.yul\":5358:5388   */\n      mstore\n        /* \"#utility.yul\":5414:5416   */\n      0x40\n        /* \"#utility.yul\":5409:5412   */\n      dup3\n        /* \"#utility.yul\":5405:5417   */\n      add\n        /* \"#utility.yul\":5398:5417   */\n      swap1\n      pop\n        /* \"#utility.yul\":5199:5423   */\n      swap2\n      swap1\n      pop\n      jump\t// out\n        /* \"#utility.yul\":5429:5759   */\n    tag_309:\n      0x00\n        /* \"#utility.yul\":5592:5659   */\n      tag_311\n        /* \"#utility.yul\":5656:5658   */\n      0x20\n        /* \"#utility.yul\":5651:5654   */\n      dup4\n        /* \"#utility.yul\":5592:5659   */\n      tag_286\n      jump\t// in\n    tag_311:\n        /* \"#utility.yul\":5585:5659   */\n      swap2\n      pop\n        /* \"#utility.yul\":5689:5723   */\n      0x4e6f7420656e6f7567682062616c616e636520666f72207472616e736665722e\n        /* \"#utility.yul\":5685:5686   */\n      0x00\n        /* \"#utility.yul\":5680:5683   */\n      dup4\n        /* \"#utility.yul\":5676:5687   */\n      add\n        /* \"#utility.yul\":5669:5724   */\n      mstore\n        /* \"#utility.yul\":5750:5752   */\n      0x20\n        /* \"#utility.yul\":5745:5748   */\n      dup3\n        /* \"#utility.yul\":5741:5753   */\n      add\n        /* \"#utility.yul\":5734:5753   */\n      swap1\n      pop\n        /* \"#utility.yul\":5575:5759   */\n      swap2\n      swap1\n      pop\n      jump\t// out\n        /* \"#utility.yul\":5765:6130   */\n    tag_312:\n      0x00\n        /* \"#utility.yul\":5928:5995   */\n      tag_314\n        /* \"#utility.yul\":5992:5994   */\n      0x21\n        /* \"#utility.yul\":5987:5990   */\n      dup4\n        /* \"#utility.yul\":5928:5995   */\n      tag_286\n      jump\t// in\n    tag_314:\n        /* \"#utility.yul\":5921:5995   */\n      swap2\n      pop\n        /* \"#utility.yul\":6025:6059   */\n      0x45524332303a206275726e2066726f6d20746865207a65726f20616464726573\n        /* \"#utility.yul\":6021:6022   */\n      0x00\n        /* \"#utility.yul\":6016:6019   */\n      dup4\n        /* \"#utility.yul\":6012:6023   */\n      add\n        /* \"#utility.yul\":6005:6060   */\n      mstore\n        /* \"#utility.yul\":6091:6094   */\n      0x7300000000000000000000000000000000000000000000000000000000000000\n        /* \"#utility.yul\":6086:6088   */\n      0x20\n        /* \"#utility.yul\":6081:6084   */\n      dup4\n        /* \"#utility.yul\":6077:6089   */\n      add\n        /* \"#utility.yul\":6070:6095   */\n      mstore\n        /* \"#utility.yul\":6121:6123   */\n      0x40\n        /* \"#utility.yul\":6116:6119   */\n      dup3\n        /* \"#utility.yul\":6112:6124   */\n      add\n        /* \"#utility.yul\":6105:6124   */\n      swap1\n      pop\n        /* \"#utility.yul\":5911:6130   */\n      swap2\n      swap1\n      pop\n      jump\t// out\n        /* \"#utility.yul\":6136:6505   */\n    tag_315:\n      0x00\n        /* \"#utility.yul\":6299:6366   */\n      tag_317\n        /* \"#utility.yul\":6363:6365   */\n      0x25\n        /* \"#utility.yul\":6358:6361   */\n      dup4\n        /* \"#utility.yul\":6299:6366   */\n      tag_286\n      jump\t// in\n    tag_317:\n        /* \"#utility.yul\":6292:6366   */\n      swap2\n      pop\n        /* \"#utility.yul\":6396:6430   */\n      0x45524332303a207472616e736665722066726f6d20746865207a65726f206164\n        /* \"#utility.yul\":6392:6393   */\n      0x00\n        /* \"#utility.yul\":6387:6390   */\n      dup4\n        /* \"#utility.yul\":6383:6394   */\n      add\n        /* \"#utility.yul\":6376:6431   */\n      mstore\n        /* \"#utility.yul\":6462:6469   */\n      0x6472657373000000000000000000000000000000000000000000000000000000\n        /* \"#utility.yul\":6457:6459   */\n      0x20\n        /* \"#utility.yul\":6452:6455   */\n      dup4\n        /* \"#utility.yul\":6448:6460   */\n      add\n        /* \"#utility.yul\":6441:6470   */\n      mstore\n        /* \"#utility.yul\":6496:6498   */\n      0x40\n        /* \"#utility.yul\":6491:6494   */\n      dup3\n        /* \"#utility.yul\":6487:6499   */\n      add\n        /* \"#utility.yul\":6480:6499   */\n      swap1\n      pop\n        /* \"#utility.yul\":6282:6505   */\n      swap2\n      swap1\n      pop\n      jump\t// out\n        /* \"#utility.yul\":6511:6879   */\n    tag_318:\n      0x00\n        /* \"#utility.yul\":6674:6741   */\n      tag_320\n        /* \"#utility.yul\":6738:6740   */\n      0x24\n        /* \"#utility.yul\":6733:6736   */\n      dup4\n        /* \"#utility.yul\":6674:6741   */\n      tag_286\n      jump\t// in\n    tag_320:\n        /* \"#utility.yul\":6667:6741   */\n      swap2\n      pop\n        /* \"#utility.yul\":6771:6805   */\n      0x45524332303a20617070726f76652066726f6d20746865207a65726f20616464\n        /* \"#utility.yul\":6767:6768   */\n      0x00\n        /* \"#utility.yul\":6762:6765   */\n      dup4\n        /* \"#utility.yul\":6758:6769   */\n      add\n        /* \"#utility.yul\":6751:6806   */\n      mstore\n        /* \"#utility.yul\":6837:6843   */\n      0x7265737300000000000000000000000000000000000000000000000000000000\n        /* \"#utility.yul\":6832:6834   */\n      0x20\n        /* \"#utility.yul\":6827:6830   */\n      dup4\n        /* \"#utility.yul\":6823:6835   */\n      add\n        /* \"#utility.yul\":6816:6844   */\n      mstore\n        /* \"#utility.yul\":6870:6872   */\n      0x40\n        /* \"#utility.yul\":6865:6868   */\n      dup3\n        /* \"#utility.yul\":6861:6873   */\n      add\n        /* \"#utility.yul\":6854:6873   */\n      swap1\n      pop\n        /* \"#utility.yul\":6657:6879   */\n      swap2\n      swap1\n      pop\n      jump\t// out\n        /* \"#utility.yul\":6885:7257   */\n    tag_321:\n      0x00\n        /* \"#utility.yul\":7048:7115   */\n      tag_323\n        /* \"#utility.yul\":7112:7114   */\n      0x28\n        /* \"#utility.yul\":7107:7110   */\n      dup4\n        /* \"#utility.yul\":7048:7115   */\n      tag_286\n      jump\t// in\n    tag_323:\n        /* \"#utility.yul\":7041:7115   */\n      swap2\n      pop\n        /* \"#utility.yul\":7145:7179   */\n      0x4e6f7420656e6f7567682062616c616e636520666f7220696e697469616c2070\n        /* \"#utility.yul\":7141:7142   */\n      0x00\n        /* \"#utility.yul\":7136:7139   */\n      dup4\n        /* \"#utility.yul\":7132:7143   */\n      add\n        /* \"#utility.yul\":7125:7180   */\n      mstore\n        /* \"#utility.yul\":7211:7221   */\n      0x757263686173652e000000000000000000000000000000000000000000000000\n        /* \"#utility.yul\":7206:7208   */\n      0x20\n        /* \"#utility.yul\":7201:7204   */\n      dup4\n        /* \"#utility.yul\":7197:7209   */\n      add\n        /* \"#utility.yul\":7190:7222   */\n      mstore\n        /* \"#utility.yul\":7248:7250   */\n      0x40\n        /* \"#utility.yul\":7243:7246   */\n      dup3\n        /* \"#utility.yul\":7239:7251   */\n      add\n        /* \"#utility.yul\":7232:7251   */\n      swap1\n      pop\n        /* \"#utility.yul\":7031:7257   */\n      swap2\n      swap1\n      pop\n      jump\t// out\n        /* \"#utility.yul\":7263:7632   */\n    tag_324:\n      0x00\n        /* \"#utility.yul\":7426:7493   */\n      tag_326\n        /* \"#utility.yul\":7490:7492   */\n      0x25\n        /* \"#utility.yul\":7485:7488   */\n      dup4\n        /* \"#utility.yul\":7426:7493   */\n      tag_286\n      jump\t// in\n    tag_326:\n        /* \"#utility.yul\":7419:7493   */\n      swap2\n      pop\n        /* \"#utility.yul\":7523:7557   */\n      0x45524332303a2064656372656173656420616c6c6f77616e63652062656c6f77\n        /* \"#utility.yul\":7519:7520   */\n      0x00\n        /* \"#utility.yul\":7514:7517   */\n      dup4\n        /* \"#utility.yul\":7510:7521   */\n      add\n        /* \"#utility.yul\":7503:7558   */\n      mstore\n        /* \"#utility.yul\":7589:7596   */\n      0x207a65726f000000000000000000000000000000000000000000000000000000\n        /* \"#utility.yul\":7584:7586   */\n      0x20\n        /* \"#utility.yul\":7579:7582   */\n      dup4\n        /* \"#utility.yul\":7575:7587   */\n      add\n        /* \"#utility.yul\":7568:7597   */\n      mstore\n        /* \"#utility.yul\":7623:7625   */\n      0x40\n        /* \"#utility.yul\":7618:7621   */\n      dup3\n        /* \"#utility.yul\":7614:7626   */\n      add\n        /* \"#utility.yul\":7607:7626   */\n      swap1\n      pop\n        /* \"#utility.yul\":7409:7632   */\n      swap2\n      swap1\n      pop\n      jump\t// out\n        /* \"#utility.yul\":7638:7756   */\n    tag_327:\n        /* \"#utility.yul\":7725:7749   */\n      tag_329\n        /* \"#utility.yul\":7743:7748   */\n      dup2\n        /* \"#utility.yul\":7725:7749   */\n      tag_330\n      jump\t// in\n    tag_329:\n        /* \"#utility.yul\":7720:7723   */\n      dup3\n        /* \"#utility.yul\":7713:7750   */\n      mstore\n        /* \"#utility.yul\":7703:7756   */\n      pop\n      pop\n      jump\t// out\n        /* \"#utility.yul\":7762:7874   */\n    tag_331:\n        /* \"#utility.yul\":7845:7867   */\n      tag_333\n        /* \"#utility.yul\":7861:7866   */\n      dup2\n        /* \"#utility.yul\":7845:7867   */\n      tag_334\n      jump\t// in\n    tag_333:\n        /* \"#utility.yul\":7840:7843   */\n      dup3\n        /* \"#utility.yul\":7833:7868   */\n      mstore\n        /* \"#utility.yul\":7823:7874   */\n      pop\n      pop\n      jump\t// out\n        /* \"#utility.yul\":7880:8102   */\n    tag_72:\n      0x00\n        /* \"#utility.yul\":8011:8013   */\n      0x20\n        /* \"#utility.yul\":8000:8009   */\n      dup3\n        /* \"#utility.yul\":7996:8014   */\n      add\n        /* \"#utility.yul\":7988:8014   */\n      swap1\n      pop\n        /* \"#utility.yul\":8024:8095   */\n      tag_336\n        /* \"#utility.yul\":8092:8093   */\n      0x00\n        /* \"#utility.yul\":8081:8090   */\n      dup4\n        /* \"#utility.yul\":8077:8094   */\n      add\n        /* \"#utility.yul\":8068:8074   */\n      dup5\n        /* \"#utility.yul\":8024:8095   */\n      tag_273\n      jump\t// in\n    tag_336:\n        /* \"#utility.yul\":7978:8102   */\n      swap3\n      swap2\n      pop\n      pop\n      jump\t// out\n        /* \"#utility.yul\":8108:8318   */\n    tag_36:\n      0x00\n        /* \"#utility.yul\":8233:8235   */\n      0x20\n        /* \"#utility.yul\":8222:8231   */\n      dup3\n        /* \"#utility.yul\":8218:8236   */\n      add\n        /* \"#utility.yul\":8210:8236   */\n      swap1\n      pop\n        /* \"#utility.yul\":8246:8311   */\n      tag_338\n        /* \"#utility.yul\":8308:8309   */\n      0x00\n        /* \"#utility.yul\":8297:8306   */\n      dup4\n        /* \"#utility.yul\":8293:8310   */\n      add\n        /* \"#utility.yul\":8284:8290   */\n      dup5\n        /* \"#utility.yul\":8246:8311   */\n      tag_277\n      jump\t// in\n    tag_338:\n        /* \"#utility.yul\":8200:8318   */\n      swap3\n      swap2\n      pop\n      pop\n      jump\t// out\n        /* \"#utility.yul\":8324:8637   */\n    tag_30:\n      0x00\n        /* \"#utility.yul\":8475:8477   */\n      0x20\n        /* \"#utility.yul\":8464:8473   */\n      dup3\n        /* \"#utility.yul\":8460:8478   */\n      add\n        /* \"#utility.yul\":8452:8478   */\n      swap1\n      pop\n        /* \"#utility.yul\":8524:8533   */\n      dup2\n        /* \"#utility.yul\":8518:8522   */\n      dup2\n        /* \"#utility.yul\":8514:8534   */\n      sub\n        /* \"#utility.yul\":8510:8511   */\n      0x00\n        /* \"#utility.yul\":8499:8508   */\n      dup4\n        /* \"#utility.yul\":8495:8512   */\n      add\n        /* \"#utility.yul\":8488:8535   */\n      mstore\n        /* \"#utility.yul\":8552:8630   */\n      tag_340\n        /* \"#utility.yul\":8625:8629   */\n      dup2\n        /* \"#utility.yul\":8616:8622   */\n      dup5\n        /* \"#utility.yul\":8552:8630   */\n      tag_281\n      jump\t// in\n    tag_340:\n        /* \"#utility.yul\":8544:8630   */\n      swap1\n      pop\n        /* \"#utility.yul\":8442:8637   */\n      swap3\n      swap2\n      pop\n      pop\n      jump\t// out\n        /* \"#utility.yul\":8643:9062   */\n    tag_217:\n      0x00\n        /* \"#utility.yul\":8847:8849   */\n      0x20\n        /* \"#utility.yul\":8836:8845   */\n      dup3\n        /* \"#utility.yul\":8832:8850   */\n      add\n        /* \"#utility.yul\":8824:8850   */\n      swap1\n      pop\n        /* \"#utility.yul\":8896:8905   */\n      dup2\n        /* \"#utility.yul\":8890:8894   */\n      dup2\n        /* \"#utility.yul\":8886:8906   */\n      sub\n        /* \"#utility.yul\":8882:8883   */\n      0x00\n        /* \"#utility.yul\":8871:8880   */\n      dup4\n        /* \"#utility.yul\":8867:8884   */\n      add\n        /* \"#utility.yul\":8860:8907   */\n      mstore\n        /* \"#utility.yul\":8924:9055   */\n      tag_342\n        /* \"#utility.yul\":9050:9054   */\n      dup2\n        /* \"#utility.yul\":8924:9055   */\n      tag_291\n      jump\t// in\n    tag_342:\n        /* \"#utility.yul\":8916:9055   */\n      swap1\n      pop\n        /* \"#utility.yul\":8814:9062   */\n      swap2\n      swap1\n      pop\n      jump\t// out\n        /* \"#utility.yul\":9068:9487   */\n    tag_233:\n      0x00\n        /* \"#utility.yul\":9272:9274   */\n      0x20\n        /* \"#utility.yul\":9261:9270   */\n      dup3\n        /* \"#utility.yul\":9257:9275   */\n      add\n        /* \"#utility.yul\":9249:9275   */\n      swap1\n      pop\n        /* \"#utility.yul\":9321:9330   */\n      dup2\n        /* \"#utility.yul\":9315:9319   */\n      dup2\n        /* \"#utility.yul\":9311:9331   */\n      sub\n        /* \"#utility.yul\":9307:9308   */\n      0x00\n        /* \"#utility.yul\":9296:9305   */\n      dup4\n        /* \"#utility.yul\":9292:9309   */\n      add\n        /* \"#utility.yul\":9285:9332   */\n      mstore\n        /* \"#utility.yul\":9349:9480   */\n      tag_344\n        /* \"#utility.yul\":9475:9479   */\n      dup2\n        /* \"#utility.yul\":9349:9480   */\n      tag_294\n      jump\t// in\n    tag_344:\n        /* \"#utility.yul\":9341:9480   */\n      swap1\n      pop\n        /* \"#utility.yul\":9239:9487   */\n      swap2\n      swap1\n      pop\n      jump\t// out\n        /* \"#utility.yul\":9493:9912   */\n    tag_123:\n      0x00\n        /* \"#utility.yul\":9697:9699   */\n      0x20\n        /* \"#utility.yul\":9686:9695   */\n      dup3\n        /* \"#utility.yul\":9682:9700   */\n      add\n        /* \"#utility.yul\":9674:9700   */\n      swap1\n      pop\n        /* \"#utility.yul\":9746:9755   */\n      dup2\n        /* \"#utility.yul\":9740:9744   */\n      dup2\n        /* \"#utility.yul\":9736:9756   */\n      sub\n        /* \"#utility.yul\":9732:9733   */\n      0x00\n        /* \"#utility.yul\":9721:9730   */\n      dup4\n        /* \"#utility.yul\":9717:9734   */\n      add\n        /* \"#utility.yul\":9710:9757   */\n      mstore\n        /* \"#utility.yul\":9774:9905   */\n      tag_346\n        /* \"#utility.yul\":9900:9904   */\n      dup2\n        /* \"#utility.yul\":9774:9905   */\n      tag_297\n      jump\t// in\n    tag_346:\n        /* \"#utility.yul\":9766:9905   */\n      swap1\n      pop\n        /* \"#utility.yul\":9664:9912   */\n      swap2\n      swap1\n      pop\n      jump\t// out\n        /* \"#utility.yul\":9918:10337   */\n    tag_202:\n      0x00\n        /* \"#utility.yul\":10122:10124   */\n      0x20\n        /* \"#utility.yul\":10111:10120   */\n      dup3\n        /* \"#utility.yul\":10107:10125   */\n      add\n        /* \"#utility.yul\":10099:10125   */\n      swap1\n      pop\n        /* \"#utility.yul\":10171:10180   */\n      dup2\n        /* \"#utility.yul\":10165:10169   */\n      dup2\n        /* \"#utility.yul\":10161:10181   */\n      sub\n        /* \"#utility.yul\":10157:10158   */\n      0x00\n        /* \"#utility.yul\":10146:10155   */\n      dup4\n        /* \"#utility.yul\":10142:10159   */\n      add\n        /* \"#utility.yul\":10135:10182   */\n      mstore\n        /* \"#utility.yul\":10199:10330   */\n      tag_348\n        /* \"#utility.yul\":10325:10329   */\n      dup2\n        /* \"#utility.yul\":10199:10330   */\n      tag_300\n      jump\t// in\n    tag_348:\n        /* \"#utility.yul\":10191:10330   */\n      swap1\n      pop\n        /* \"#utility.yul\":10089:10337   */\n      swap2\n      swap1\n      pop\n      jump\t// out\n        /* \"#utility.yul\":10343:10762   */\n    tag_209:\n      0x00\n        /* \"#utility.yul\":10547:10549   */\n      0x20\n        /* \"#utility.yul\":10536:10545   */\n      dup3\n        /* \"#utility.yul\":10532:10550   */\n      add\n        /* \"#utility.yul\":10524:10550   */\n      swap1\n      pop\n        /* \"#utility.yul\":10596:10605   */\n      dup2\n        /* \"#utility.yul\":10590:10594   */\n      dup2\n        /* \"#utility.yul\":10586:10606   */\n      sub\n        /* \"#utility.yul\":10582:10583   */\n      0x00\n        /* \"#utility.yul\":10571:10580   */\n      dup4\n        /* \"#utility.yul\":10567:10584   */\n      add\n        /* \"#utility.yul\":10560:10607   */\n      mstore\n        /* \"#utility.yul\":10624:10755   */\n      tag_350\n        /* \"#utility.yul\":10750:10754   */\n      dup2\n        /* \"#utility.yul\":10624:10755   */\n      tag_303\n      jump\t// in\n    tag_350:\n        /* \"#utility.yul\":10616:10755   */\n      swap1\n      pop\n        /* \"#utility.yul\":10514:10762   */\n      swap2\n      swap1\n      pop\n      jump\t// out\n        /* \"#utility.yul\":10768:11187   */\n    tag_222:\n      0x00\n        /* \"#utility.yul\":10972:10974   */\n      0x20\n        /* \"#utility.yul\":10961:10970   */\n      dup3\n        /* \"#utility.yul\":10957:10975   */\n      add\n        /* \"#utility.yul\":10949:10975   */\n      swap1\n      pop\n        /* \"#utility.yul\":11021:11030   */\n      dup2\n        /* \"#utility.yul\":11015:11019   */\n      dup2\n        /* \"#utility.yul\":11011:11031   */\n      sub\n        /* \"#utility.yul\":11007:11008   */\n      0x00\n        /* \"#utility.yul\":10996:11005   */\n      dup4\n        /* \"#utility.yul\":10992:11009   */\n      add\n        /* \"#utility.yul\":10985:11032   */\n      mstore\n        /* \"#utility.yul\":11049:11180   */\n      tag_352\n        /* \"#utility.yul\":11175:11179   */\n      dup2\n        /* \"#utility.yul\":11049:11180   */\n      tag_306\n      jump\t// in\n    tag_352:\n        /* \"#utility.yul\":11041:11180   */\n      swap1\n      pop\n        /* \"#utility.yul\":10939:11187   */\n      swap2\n      swap1\n      pop\n      jump\t// out\n        /* \"#utility.yul\":11193:11612   */\n    tag_173:\n      0x00\n        /* \"#utility.yul\":11397:11399   */\n      0x20\n        /* \"#utility.yul\":11386:11395   */\n      dup3\n        /* \"#utility.yul\":11382:11400   */\n      add\n        /* \"#utility.yul\":11374:11400   */\n      swap1\n      pop\n        /* \"#utility.yul\":11446:11455   */\n      dup2\n        /* \"#utility.yul\":11440:11444   */\n      dup2\n        /* \"#utility.yul\":11436:11456   */\n      sub\n        /* \"#utility.yul\":11432:11433   */\n      0x00\n        /* \"#utility.yul\":11421:11430   */\n      dup4\n        /* \"#utility.yul\":11417:11434   */\n      add\n        /* \"#utility.yul\":11410:11457   */\n      mstore\n        /* \"#utility.yul\":11474:11605   */\n      tag_354\n        /* \"#utility.yul\":11600:11604   */\n      dup2\n        /* \"#utility.yul\":11474:11605   */\n      tag_309\n      jump\t// in\n    tag_354:\n        /* \"#utility.yul\":11466:11605   */\n      swap1\n      pop\n        /* \"#utility.yul\":11364:11612   */\n      swap2\n      swap1\n      pop\n      jump\t// out\n        /* \"#utility.yul\":11618:12037   */\n    tag_229:\n      0x00\n        /* \"#utility.yul\":11822:11824   */\n      0x20\n        /* \"#utility.yul\":11811:11820   */\n      dup3\n        /* \"#utility.yul\":11807:11825   */\n      add\n        /* \"#utility.yul\":11799:11825   */\n      swap1\n      pop\n        /* \"#utility.yul\":11871:11880   */\n      dup2\n        /* \"#utility.yul\":11865:11869   */\n      dup2\n        /* \"#utility.yul\":11861:11881   */\n      sub\n        /* \"#utility.yul\":11857:11858   */\n      0x00\n        /* \"#utility.yul\":11846:11855   */\n      dup4\n        /* \"#utility.yul\":11842:11859   */\n      add\n        /* \"#utility.yul\":11835:11882   */\n      mstore\n        /* \"#utility.yul\":11899:12030   */\n      tag_356\n        /* \"#utility.yul\":12025:12029   */\n      dup2\n        /* \"#utility.yul\":11899:12030   */\n      tag_312\n      jump\t// in\n    tag_356:\n        /* \"#utility.yul\":11891:12030   */\n      swap1\n      pop\n        /* \"#utility.yul\":11789:12037   */\n      swap2\n      swap1\n      pop\n      jump\t// out\n        /* \"#utility.yul\":12043:12462   */\n    tag_214:\n      0x00\n        /* \"#utility.yul\":12247:12249   */\n      0x20\n        /* \"#utility.yul\":12236:12245   */\n      dup3\n        /* \"#utility.yul\":12232:12250   */\n      add\n        /* \"#utility.yul\":12224:12250   */\n      swap1\n      pop\n        /* \"#utility.yul\":12296:12305   */\n      dup2\n        /* \"#utility.yul\":12290:12294   */\n      dup2\n        /* \"#utility.yul\":12286:12306   */\n      sub\n        /* \"#utility.yul\":12282:12283   */\n      0x00\n        /* \"#utility.yul\":12271:12280   */\n      dup4\n        /* \"#utility.yul\":12267:12284   */\n      add\n        /* \"#utility.yul\":12260:12307   */\n      mstore\n        /* \"#utility.yul\":12324:12455   */\n      tag_358\n        /* \"#utility.yul\":12450:12454   */\n      dup2\n        /* \"#utility.yul\":12324:12455   */\n      tag_315\n      jump\t// in\n    tag_358:\n        /* \"#utility.yul\":12316:12455   */\n      swap1\n      pop\n        /* \"#utility.yul\":12214:12462   */\n      swap2\n      swap1\n      pop\n      jump\t// out\n        /* \"#utility.yul\":12468:12887   */\n    tag_199:\n      0x00\n        /* \"#utility.yul\":12672:12674   */\n      0x20\n        /* \"#utility.yul\":12661:12670   */\n      dup3\n        /* \"#utility.yul\":12657:12675   */\n      add\n        /* \"#utility.yul\":12649:12675   */\n      swap1\n      pop\n        /* \"#utility.yul\":12721:12730   */\n      dup2\n        /* \"#utility.yul\":12715:12719   */\n      dup2\n        /* \"#utility.yul\":12711:12731   */\n      sub\n        /* \"#utility.yul\":12707:12708   */\n      0x00\n        /* \"#utility.yul\":12696:12705   */\n      dup4\n        /* \"#utility.yul\":12692:12709   */\n      add\n        /* \"#utility.yul\":12685:12732   */\n      mstore\n        /* \"#utility.yul\":12749:12880   */\n      tag_360\n        /* \"#utility.yul\":12875:12879   */\n      dup2\n        /* \"#utility.yul\":12749:12880   */\n      tag_318\n      jump\t// in\n    tag_360:\n        /* \"#utility.yul\":12741:12880   */\n      swap1\n      pop\n        /* \"#utility.yul\":12639:12887   */\n      swap2\n      swap1\n      pop\n      jump\t// out\n        /* \"#utility.yul\":12893:13312   */\n    tag_160:\n      0x00\n        /* \"#utility.yul\":13097:13099   */\n      0x20\n        /* \"#utility.yul\":13086:13095   */\n      dup3\n        /* \"#utility.yul\":13082:13100   */\n      add\n        /* \"#utility.yul\":13074:13100   */\n      swap1\n      pop\n        /* \"#utility.yul\":13146:13155   */\n      dup2\n        /* \"#utility.yul\":13140:13144   */\n      dup2\n        /* \"#utility.yul\":13136:13156   */\n      sub\n        /* \"#utility.yul\":13132:13133   */\n      0x00\n        /* \"#utility.yul\":13121:13130   */\n      dup4\n        /* \"#utility.yul\":13117:13134   */\n      add\n        /* \"#utility.yul\":13110:13157   */\n      mstore\n        /* \"#utility.yul\":13174:13305   */\n      tag_362\n        /* \"#utility.yul\":13300:13304   */\n      dup2\n        /* \"#utility.yul\":13174:13305   */\n      tag_321\n      jump\t// in\n    tag_362:\n        /* \"#utility.yul\":13166:13305   */\n      swap1\n      pop\n        /* \"#utility.yul\":13064:13312   */\n      swap2\n      swap1\n      pop\n      jump\t// out\n        /* \"#utility.yul\":13318:13737   */\n    tag_151:\n      0x00\n        /* \"#utility.yul\":13522:13524   */\n      0x20\n        /* \"#utility.yul\":13511:13520   */\n      dup3\n        /* \"#utility.yul\":13507:13525   */\n      add\n        /* \"#utility.yul\":13499:13525   */\n      swap1\n      pop\n        /* \"#utility.yul\":13571:13580   */\n      dup2\n        /* \"#utility.yul\":13565:13569   */\n      dup2\n        /* \"#utility.yul\":13561:13581   */\n      sub\n        /* \"#utility.yul\":13557:13558   */\n      0x00\n        /* \"#utility.yul\":13546:13555   */\n      dup4\n        /* \"#utility.yul\":13542:13559   */\n      add\n        /* \"#utility.yul\":13535:13582   */\n      mstore\n        /* \"#utility.yul\":13599:13730   */\n      tag_364\n        /* \"#utility.yul\":13725:13729   */\n      dup2\n        /* \"#utility.yul\":13599:13730   */\n      tag_324\n      jump\t// in\n    tag_364:\n        /* \"#utility.yul\":13591:13730   */\n      swap1\n      pop\n        /* \"#utility.yul\":13489:13737   */\n      swap2\n      swap1\n      pop\n      jump\t// out\n        /* \"#utility.yul\":13743:13965   */\n    tag_44:\n      0x00\n        /* \"#utility.yul\":13874:13876   */\n      0x20\n        /* \"#utility.yul\":13863:13872   */\n      dup3\n        /* \"#utility.yul\":13859:13877   */\n      add\n        /* \"#utility.yul\":13851:13877   */\n      swap1\n      pop\n        /* \"#utility.yul\":13887:13958   */\n      tag_366\n        /* \"#utility.yul\":13955:13956   */\n      0x00\n        /* \"#utility.yul\":13944:13953   */\n      dup4\n        /* \"#utility.yul\":13940:13957   */\n      add\n        /* \"#utility.yul\":13931:13937   */\n      dup5\n        /* \"#utility.yul\":13887:13958   */\n      tag_327\n      jump\t// in\n    tag_366:\n        /* \"#utility.yul\":13841:13965   */\n      swap3\n      swap2\n      pop\n      pop\n      jump\t// out\n        /* \"#utility.yul\":13971:14185   */\n    tag_53:\n      0x00\n        /* \"#utility.yul\":14098:14100   */\n      0x20\n        /* \"#utility.yul\":14087:14096   */\n      dup3\n        /* \"#utility.yul\":14083:14101   */\n      add\n        /* \"#utility.yul\":14075:14101   */\n      swap1\n      pop\n        /* \"#utility.yul\":14111:14178   */\n      tag_368\n        /* \"#utility.yul\":14175:14176   */\n      0x00\n        /* \"#utility.yul\":14164:14173   */\n      dup4\n        /* \"#utility.yul\":14160:14177   */\n      add\n        /* \"#utility.yul\":14151:14157   */\n      dup5\n        /* \"#utility.yul\":14111:14178   */\n      tag_331\n      jump\t// in\n    tag_368:\n        /* \"#utility.yul\":14065:14185   */\n      swap3\n      swap2\n      pop\n      pop\n      jump\t// out\n        /* \"#utility.yul\":14191:14290   */\n    tag_284:\n      0x00\n        /* \"#utility.yul\":14277:14282   */\n      dup2\n        /* \"#utility.yul\":14271:14283   */\n      mload\n        /* \"#utility.yul\":14261:14283   */\n      swap1\n      pop\n        /* \"#utility.yul\":14250:14290   */\n      swap2\n      swap1\n      pop\n      jump\t// out\n        /* \"#utility.yul\":14296:14465   */\n    tag_286:\n      0x00\n        /* \"#utility.yul\":14414:14420   */\n      dup3\n        /* \"#utility.yul\":14409:14412   */\n      dup3\n        /* \"#utility.yul\":14402:14421   */\n      mstore\n        /* \"#utility.yul\":14454:14458   */\n      0x20\n        /* \"#utility.yul\":14449:14452   */\n      dup3\n        /* \"#utility.yul\":14445:14459   */\n      add\n        /* \"#utility.yul\":14430:14459   */\n      swap1\n      pop\n        /* \"#utility.yul\":14392:14465   */\n      swap3\n      swap2\n      pop\n      pop\n      jump\t// out\n        /* \"#utility.yul\":14471:14776   */\n    tag_138:\n      0x00\n        /* \"#utility.yul\":14530:14550   */\n      tag_372\n        /* \"#utility.yul\":14548:14549   */\n      dup3\n        /* \"#utility.yul\":14530:14550   */\n      tag_330\n      jump\t// in\n    tag_372:\n        /* \"#utility.yul\":14525:14550   */\n      swap2\n      pop\n        /* \"#utility.yul\":14564:14584   */\n      tag_373\n        /* \"#utility.yul\":14582:14583   */\n      dup4\n        /* \"#utility.yul\":14564:14584   */\n      tag_330\n      jump\t// in\n    tag_373:\n        /* \"#utility.yul\":14559:14584   */\n      swap3\n      pop\n        /* \"#utility.yul\":14718:14719   */\n      dup3\n        /* \"#utility.yul\":14650:14716   */\n      0xffffffffffffffffffffffffffffffffffffffffffffffffffffffffffffffff\n        /* \"#utility.yul\":14646:14720   */\n      sub\n        /* \"#utility.yul\":14643:14644   */\n      dup3\n        /* \"#utility.yul\":14640:14721   */\n      gt\n        /* \"#utility.yul\":14637:14639   */\n      iszero\n      tag_374\n      jumpi\n        /* \"#utility.yul\":14724:14742   */\n      tag_375\n      tag_376\n      jump\t// in\n    tag_375:\n        /* \"#utility.yul\":14637:14639   */\n    tag_374:\n        /* \"#utility.yul\":14768:14769   */\n      dup3\n        /* \"#utility.yul\":14765:14766   */\n      dup3\n        /* \"#utility.yul\":14761:14770   */\n      add\n        /* \"#utility.yul\":14754:14770   */\n      swap1\n      pop\n        /* \"#utility.yul\":14515:14776   */\n      swap3\n      swap2\n      pop\n      pop\n      jump\t// out\n        /* \"#utility.yul\":14782:14967   */\n    tag_165:\n      0x00\n        /* \"#utility.yul\":14839:14859   */\n      tag_378\n        /* \"#utility.yul\":14857:14858   */\n      dup3\n        /* \"#utility.yul\":14839:14859   */\n      tag_330\n      jump\t// in\n    tag_378:\n        /* \"#utility.yul\":14834:14859   */\n      swap2\n      pop\n        /* \"#utility.yul\":14873:14893   */\n      tag_379\n        /* \"#utility.yul\":14891:14892   */\n      dup4\n        /* \"#utility.yul\":14873:14893   */\n      tag_330\n      jump\t// in\n    tag_379:\n        /* \"#utility.yul\":14868:14893   */\n      swap3\n      pop\n        /* \"#utility.yul\":14912:14913   */\n      dup3\n        /* \"#utility.yul\":14902:14904   */\n      tag_380\n      jumpi\n        /* \"#utility.yul\":14917:14935   */\n      tag_381\n      tag_382\n      jump\t// in\n    tag_381:\n        /* \"#utility.yul\":14902:14904   */\n    tag_380:\n        /* \"#utility.yul\":14959:14960   */\n      dup3\n        /* \"#utility.yul\":14956:14957   */\n      dup3\n        /* \"#utility.yul\":14952:14961   */\n      div\n        /* \"#utility.yul\":14947:14961   */\n      swap1\n      pop\n        /* \"#utility.yul\":14824:14967   */\n      swap3\n      swap2\n      pop\n      pop\n      jump\t// out\n        /* \"#utility.yul\":14973:15321   */\n    tag_163:\n      0x00\n        /* \"#utility.yul\":15036:15056   */\n      tag_384\n        /* \"#utility.yul\":15054:15055   */\n      dup3\n        /* \"#utility.yul\":15036:15056   */\n      tag_330\n      jump\t// in\n    tag_384:\n        /* \"#utility.yul\":15031:15056   */\n      swap2\n      pop\n        /* \"#utility.yul\":15070:15090   */\n      tag_385\n        /* \"#utility.yul\":15088:15089   */\n      dup4\n        /* \"#utility.yul\":15070:15090   */\n      tag_330\n      jump\t// in\n    tag_385:\n        /* \"#utility.yul\":15065:15090   */\n      swap3\n      pop\n        /* \"#utility.yul\":15258:15259   */\n      dup2\n        /* \"#utility.yul\":15190:15256   */\n      0xffffffffffffffffffffffffffffffffffffffffffffffffffffffffffffffff\n        /* \"#utility.yul\":15186:15260   */\n      div\n        /* \"#utility.yul\":15183:15184   */\n      dup4\n        /* \"#utility.yul\":15180:15261   */\n      gt\n        /* \"#utility.yul\":15175:15176   */\n      dup3\n        /* \"#utility.yul\":15168:15177   */\n      iszero\n        /* \"#utility.yul\":15161:15178   */\n      iszero\n        /* \"#utility.yul\":15157:15262   */\n      and\n        /* \"#utility.yul\":15154:15156   */\n      iszero\n      tag_386\n      jumpi\n        /* \"#utility.yul\":15265:15283   */\n      tag_387\n      tag_376\n      jump\t// in\n    tag_387:\n        /* \"#utility.yul\":15154:15156   */\n    tag_386:\n        /* \"#utility.yul\":15313:15314   */\n      dup3\n        /* \"#utility.yul\":15310:15311   */\n      dup3\n        /* \"#utility.yul\":15306:15315   */\n      mul\n        /* \"#utility.yul\":15295:15315   */\n      swap1\n      pop\n        /* \"#utility.yul\":15021:15321   */\n      swap3\n      swap2\n      pop\n      pop\n      jump\t// out\n        /* \"#utility.yul\":15327:15518   */\n    tag_168:\n      0x00\n        /* \"#utility.yul\":15387:15407   */\n      tag_389\n        /* \"#utility.yul\":15405:15406   */\n      dup3\n        /* \"#utility.yul\":15387:15407   */\n      tag_330\n      jump\t// in\n    tag_389:\n        /* \"#utility.yul\":15382:15407   */\n      swap2\n      pop\n        /* \"#utility.yul\":15421:15441   */\n      tag_390\n        /* \"#utility.yul\":15439:15440   */\n      dup4\n        /* \"#utility.yul\":15421:15441   */\n      tag_330\n      jump\t// in\n    tag_390:\n        /* \"#utility.yul\":15416:15441   */\n      swap3\n      pop\n        /* \"#utility.yul\":15460:15461   */\n      dup3\n        /* \"#utility.yul\":15457:15458   */\n      dup3\n        /* \"#utility.yul\":15454:15462   */\n      lt\n        /* \"#utility.yul\":15451:15453   */\n      iszero\n      tag_391\n      jumpi\n        /* \"#utility.yul\":15465:15483   */\n      tag_392\n      tag_376\n      jump\t// in\n    tag_392:\n        /* \"#utility.yul\":15451:15453   */\n    tag_391:\n        /* \"#utility.yul\":15510:15511   */\n      dup3\n        /* \"#utility.yul\":15507:15508   */\n      dup3\n        /* \"#utility.yul\":15503:15512   */\n      sub\n        /* \"#utility.yul\":15495:15512   */\n      swap1\n      pop\n        /* \"#utility.yul\":15372:15518   */\n      swap3\n      swap2\n      pop\n      pop\n      jump\t// out\n        /* \"#utility.yul\":15524:15620   */\n    tag_276:\n      0x00\n        /* \"#utility.yul\":15590:15614   */\n      tag_394\n        /* \"#utility.yul\":15608:15613   */\n      dup3\n        /* \"#utility.yul\":15590:15614   */\n      tag_395\n      jump\t// in\n    tag_394:\n        /* \"#utility.yul\":15579:15614   */\n      swap1\n      pop\n        /* \"#utility.yul\":15569:15620   */\n      swap2\n      swap1\n      pop\n      jump\t// out\n        /* \"#utility.yul\":15626:15716   */\n    tag_280:\n      0x00\n        /* \"#utility.yul\":15703:15708   */\n      dup2\n        /* \"#utility.yul\":15696:15709   */\n      iszero\n        /* \"#utility.yul\":15689:15710   */\n      iszero\n        /* \"#utility.yul\":15678:15710   */\n      swap1\n      pop\n        /* \"#utility.yul\":15668:15716   */\n      swap2\n      swap1\n      pop\n      jump\t// out\n        /* \"#utility.yul\":15722:15848   */\n    tag_395:\n      0x00\n        /* \"#utility.yul\":15799:15841   */\n      0xffffffffffffffffffffffffffffffffffffffff\n        /* \"#utility.yul\":15792:15797   */\n      dup3\n        /* \"#utility.yul\":15788:15842   */\n      and\n        /* \"#utility.yul\":15777:15842   */\n      swap1\n      pop\n        /* \"#utility.yul\":15767:15848   */\n      swap2\n      swap1\n      pop\n      jump\t// out\n        /* \"#utility.yul\":15854:15931   */\n    tag_330:\n      0x00\n        /* \"#utility.yul\":15920:15925   */\n      dup2\n        /* \"#utility.yul\":15909:15925   */\n      swap1\n      pop\n        /* \"#utility.yul\":15899:15931   */\n      swap2\n      swap1\n      pop\n      jump\t// out\n        /* \"#utility.yul\":15937:16023   */\n    tag_334:\n      0x00\n        /* \"#utility.yul\":16012:16016   */\n      0xff\n        /* \"#utility.yul\":16005:16010   */\n      dup3\n        /* \"#utility.yul\":16001:16017   */\n      and\n        /* \"#utility.yul\":15990:16017   */\n      swap1\n      pop\n        /* \"#utility.yul\":15980:16023   */\n      swap2\n      swap1\n      pop\n      jump\t// out\n        /* \"#utility.yul\":16029:16336   */\n    tag_288:\n        /* \"#utility.yul\":16097:16098   */\n      0x00\n        /* \"#utility.yul\":16107:16220   */\n    tag_401:\n        /* \"#utility.yul\":16121:16127   */\n      dup4\n        /* \"#utility.yul\":16118:16119   */\n      dup2\n        /* \"#utility.yul\":16115:16128   */\n      lt\n        /* \"#utility.yul\":16107:16220   */\n      iszero\n      tag_403\n      jumpi\n        /* \"#utility.yul\":16206:16207   */\n      dup1\n        /* \"#utility.yul\":16201:16204   */\n      dup3\n        /* \"#utility.yul\":16197:16208   */\n      add\n        /* \"#utility.yul\":16191:16209   */\n      mload\n        /* \"#utility.yul\":16187:16188   */\n      dup2\n        /* \"#utility.yul\":16182:16185   */\n      dup5\n        /* \"#utility.yul\":16178:16189   */\n      add\n        /* \"#utility.yul\":16171:16210   */\n      mstore\n        /* \"#utility.yul\":16143:16145   */\n      0x20\n        /* \"#utility.yul\":16140:16141   */\n      dup2\n        /* \"#utility.yul\":16136:16146   */\n      add\n        /* \"#utility.yul\":16131:16146   */\n      swap1\n      pop\n        /* \"#utility.yul\":16107:16220   */\n      jump(tag_401)\n    tag_403:\n        /* \"#utility.yul\":16238:16244   */\n      dup4\n        /* \"#utility.yul\":16235:16236   */\n      dup2\n        /* \"#utility.yul\":16232:16245   */\n      gt\n        /* \"#utility.yul\":16229:16231   */\n      iszero\n      tag_404\n      jumpi\n        /* \"#utility.yul\":16318:16319   */\n      0x00\n        /* \"#utility.yul\":16309:16315   */\n      dup5\n        /* \"#utility.yul\":16304:16307   */\n      dup5\n        /* \"#utility.yul\":16300:16316   */\n      add\n        /* \"#utility.yul\":16293:16320   */\n      mstore\n        /* \"#utility.yul\":16229:16231   */\n    tag_404:\n        /* \"#utility.yul\":16078:16336   */\n      pop\n      pop\n      pop\n      pop\n      jump\t// out\n        /* \"#utility.yul\":16342:16662   */\n    tag_110:\n      0x00\n        /* \"#utility.yul\":16423:16424   */\n      0x02\n        /* \"#utility.yul\":16417:16421   */\n      dup3\n        /* \"#utility.yul\":16413:16425   */\n      div\n        /* \"#utility.yul\":16403:16425   */\n      swap1\n      pop\n        /* \"#utility.yul\":16470:16471   */\n      0x01\n        /* \"#utility.yul\":16464:16468   */\n      dup3\n        /* \"#utility.yul\":16460:16472   */\n      and\n        /* \"#utility.yul\":16491:16509   */\n      dup1\n        /* \"#utility.yul\":16481:16483   */\n      tag_406\n      jumpi\n        /* \"#utility.yul\":16547:16551   */\n      0x7f\n        /* \"#utility.yul\":16539:16545   */\n      dup3\n        /* \"#utility.yul\":16535:16552   */\n      and\n        /* \"#utility.yul\":16525:16552   */\n      swap2\n      pop\n        /* \"#utility.yul\":16481:16483   */\n    tag_406:\n        /* \"#utility.yul\":16609:16611   */\n      0x20\n        /* \"#utility.yul\":16601:16607   */\n      dup3\n        /* \"#utility.yul\":16598:16612   */\n      lt\n        /* \"#utility.yul\":16578:16596   */\n      dup2\n        /* \"#utility.yul\":16575:16613   */\n      eq\n        /* \"#utility.yul\":16572:16574   */\n      iszero\n      tag_407\n      jumpi\n        /* \"#utility.yul\":16628:16646   */\n      tag_408\n      tag_409\n      jump\t// in\n    tag_408:\n        /* \"#utility.yul\":16572:16574   */\n    tag_407:\n        /* \"#utility.yul\":16393:16662   */\n      pop\n      swap2\n      swap1\n      pop\n      jump\t// out\n        /* \"#utility.yul\":16668:16848   */\n    tag_376:\n        /* \"#utility.yul\":16716:16793   */\n      0x4e487b7100000000000000000000000000000000000000000000000000000000\n        /* \"#utility.yul\":16713:16714   */\n      0x00\n        /* \"#utility.yul\":16706:16794   */\n      mstore\n        /* \"#utility.yul\":16813:16817   */\n      0x11\n        /* \"#utility.yul\":16810:16811   */\n      0x04\n        /* \"#utility.yul\":16803:16818   */\n      mstore\n        /* \"#utility.yul\":16837:16841   */\n      0x24\n        /* \"#utility.yul\":16834:16835   */\n      0x00\n        /* \"#utility.yul\":16827:16842   */\n      revert\n        /* \"#utility.yul\":16854:17034   */\n    tag_382:\n        /* \"#utility.yul\":16902:16979   */\n      0x4e487b7100000000000000000000000000000000000000000000000000000000\n        /* \"#utility.yul\":16899:16900   */\n      0x00\n        /* \"#utility.yul\":16892:16980   */\n      mstore\n        /* \"#utility.yul\":16999:17003   */\n      0x12\n        /* \"#utility.yul\":16996:16997   */\n      0x04\n        /* \"#utility.yul\":16989:17004   */\n      mstore\n        /* \"#utility.yul\":17023:17027   */\n      0x24\n        /* \"#utility.yul\":17020:17021   */\n      0x00\n        /* \"#utility.yul\":17013:17028   */\n      revert\n        /* \"#utility.yul\":17040:17220   */\n    tag_409:\n        /* \"#utility.yul\":17088:17165   */\n      0x4e487b7100000000000000000000000000000000000000000000000000000000\n        /* \"#utility.yul\":17085:17086   */\n      0x00\n        /* \"#utility.yul\":17078:17166   */\n      mstore\n        /* \"#utility.yul\":17185:17189   */\n      0x22\n        /* \"#utility.yul\":17182:17183   */\n      0x04\n        /* \"#utility.yul\":17175:17190   */\n      mstore\n        /* \"#utility.yul\":17209:17213   */\n      0x24\n        /* \"#utility.yul\":17206:17207   */\n      0x00\n        /* \"#utility.yul\":17199:17214   */\n      revert\n        /* \"#utility.yul\":17226:17328   */\n    tag_290:\n      0x00\n        /* \"#utility.yul\":17318:17320   */\n      0x1f\n        /* \"#utility.yul\":17314:17321   */\n      not\n        /* \"#utility.yul\":17309:17311   */\n      0x1f\n        /* \"#utility.yul\":17302:17307   */\n      dup4\n        /* \"#utility.yul\":17298:17312   */\n      add\n        /* \"#utility.yul\":17294:17322   */\n      and\n        /* \"#utility.yul\":17284:17322   */\n      swap1\n      pop\n        /* \"#utility.yul\":17274:17328   */\n      swap2\n      swap1\n      pop\n      jump\t// out\n        /* \"#utility.yul\":17334:17456   */\n    tag_242:\n        /* \"#utility.yul\":17407:17431   */\n      tag_415\n        /* \"#utility.yul\":17425:17430   */\n      dup2\n        /* \"#utility.yul\":17407:17431   */\n      tag_276\n      jump\t// in\n    tag_415:\n        /* \"#utility.yul\":17400:17405   */\n      dup2\n        /* \"#utility.yul\":17397:17432   */\n      eq\n        /* \"#utility.yul\":17387:17389   */\n      tag_416\n      jumpi\n        /* \"#utility.yul\":17446:17447   */\n      0x00\n        /* \"#utility.yul\":17443:17444   */\n      dup1\n        /* \"#utility.yul\":17436:17448   */\n      revert\n        /* \"#utility.yul\":17387:17389   */\n    tag_416:\n        /* \"#utility.yul\":17377:17456   */\n      pop\n      jump\t// out\n        /* \"#utility.yul\":17462:17578   */\n    tag_246:\n        /* \"#utility.yul\":17532:17553   */\n      tag_418\n        /* \"#utility.yul\":17547:17552   */\n      dup2\n        /* \"#utility.yul\":17532:17553   */\n      tag_280\n      jump\t// in\n    tag_418:\n        /* \"#utility.yul\":17525:17530   */\n      dup2\n        /* \"#utility.yul\":17522:17554   */\n      eq\n        /* \"#utility.yul\":17512:17514   */\n      tag_419\n      jumpi\n        /* \"#utility.yul\":17568:17569   */\n      0x00\n        /* \"#utility.yul\":17565:17566   */\n      dup1\n        /* \"#utility.yul\":17558:17570   */\n      revert\n        /* \"#utility.yul\":17512:17514   */\n    tag_419:\n        /* \"#utility.yul\":17502:17578   */\n      pop\n      jump\t// out\n        /* \"#utility.yul\":17584:17706   */\n    tag_250:\n        /* \"#utility.yul\":17657:17681   */\n      tag_421\n        /* \"#utility.yul\":17675:17680   */\n      dup2\n        /* \"#utility.yul\":17657:17681   */\n      tag_330\n      jump\t// in\n    tag_421:\n        /* \"#utility.yul\":17650:17655   */\n      dup2\n        /* \"#utility.yul\":17647:17682   */\n      eq\n        /* \"#utility.yul\":17637:17639   */\n      tag_422\n      jumpi\n        /* \"#utility.yul\":17696:17697   */\n      0x00\n        /* \"#utility.yul\":17693:17694   */\n      dup1\n        /* \"#utility.yul\":17686:17698   */\n      revert\n        /* \"#utility.yul\":17637:17639   */\n    tag_422:\n        /* \"#utility.yul\":17627:17706   */\n      pop\n      jump\t// out\n\n    auxdata: 0xa2646970667358221220624ae77421c15cf3a2f58c295149720cfba04d18b4b94652dba22393498ace6a64736f6c63430008000033\n}\n",
				"bytecode": {
					"linkReferences": {},
					"object": "60806040523480156200001157600080fd5b506040518060400160405280600881526020017f5363616d50756d700000000000000000000000000000000000000000000000008152506040518060400160405280600481526020017f5343414d00000000000000000000000000000000000000000000000000000000815250816003908051906020019062000096929190620003a8565b508060049080519060200190620000af929190620003a8565b50505033600560006101000a81548173ffffffffffffffffffffffffffffffffffffffff021916908373ffffffffffffffffffffffffffffffffffffffff1602179055507310044472add5856dbe1ca09a4c236d382a80966b600660006101000a81548173ffffffffffffffffffffffffffffffffffffffff021916908373ffffffffffffffffffffffffffffffffffffffff160217905550620001586200022760201b60201c565b600a620001669190620005b3565b63041cdb40620001779190620006f0565b6007819055506200018d6200022760201b60201c565b600a6200019b9190620005b3565b630280de80620001ac9190620006f0565b6008819055506005600981905550610e1042620001ca9190620004fb565b600a819055506001600b60006101000a81548160ff02191690831515021790555062000221600560009054906101000a900473ffffffffffffffffffffffffffffffffffffffff166007546200023060201b60201c565b62000809565b60006012905090565b600073ffffffffffffffffffffffffffffffffffffffff168273ffffffffffffffffffffffffffffffffffffffff161415620002a3576040517f08c379a00000000000000000000000000000000000000000000000000000000081526004016200029a90620004ab565b60405180910390fd5b620002b7600083836200039e60201b60201c565b8060026000828254620002cb9190620004fb565b92505081905550806000808473ffffffffffffffffffffffffffffffffffffffff1673ffffffffffffffffffffffffffffffffffffffff168152602001908152602001600020600082825401925050819055508173ffffffffffffffffffffffffffffffffffffffff16600073ffffffffffffffffffffffffffffffffffffffff167fddf252ad1be2c89b69c2b068fc378daa952ba7f163c4a11628f55a4df523b3ef836040516200037e9190620004cd565b60405180910390a36200039a60008383620003a360201b60201c565b5050565b505050565b505050565b828054620003b69062000768565b90600052602060002090601f016020900481019282620003da576000855562000426565b82601f10620003f557805160ff191683800117855562000426565b8280016001018555821562000426579182015b828111156200042557825182559160200191906001019062000408565b5b50905062000435919062000439565b5090565b5b80821115620004545760008160009055506001016200043a565b5090565b600062000467601f83620004ea565b91507f45524332303a206d696e7420746f20746865207a65726f2061646472657373006000830152602082019050919050565b620004a58162000751565b82525050565b60006020820190508181036000830152620004c68162000458565b9050919050565b6000602082019050620004e460008301846200049a565b92915050565b600082825260208201905092915050565b6000620005088262000751565b9150620005158362000751565b9250827fffffffffffffffffffffffffffffffffffffffffffffffffffffffffffffffff038211156200054d576200054c6200079e565b5b828201905092915050565b6000808291508390505b6001851115620005aa578086048111156200058257620005816200079e565b5b6001851615620005925780820291505b8081029050620005a285620007fc565b945062000562565b94509492505050565b6000620005c08262000751565b9150620005cd836200075b565b9250620005fc7fffffffffffffffffffffffffffffffffffffffffffffffffffffffffffffffff848462000604565b905092915050565b600082620006165760019050620006e9565b81620006265760009050620006e9565b81600181146200063f57600281146200064a5762000680565b6001915050620006e9565b60ff8411156200065f576200065e6200079e565b5b8360020a9150848211156200067957620006786200079e565b5b50620006e9565b5060208310610133831016604e8410600b8410161715620006ba5782820a905083811115620006b457620006b36200079e565b5b620006e9565b620006c9848484600162000558565b92509050818404811115620006e357620006e26200079e565b5b81810290505b9392505050565b6000620006fd8262000751565b91506200070a8362000751565b9250817fffffffffffffffffffffffffffffffffffffffffffffffffffffffffffffffff04831182151516156200074657620007456200079e565b5b828202905092915050565b6000819050919050565b600060ff82169050919050565b600060028204905060018216806200078157607f821691505b60208210811415620007985762000797620007cd565b5b50919050565b7f4e487b7100000000000000000000000000000000000000000000000000000000600052601160045260246000fd5b7f4e487b7100000000000000000000000000000000000000000000000000000000600052602260045260246000fd5b60008160011c9050919050565b611e8080620008196000396000f3fe608060405234801561001057600080fd5b50600436106101375760003560e01c80638da5cb5b116100b8578063ca4b208b1161007c578063ca4b208b14610368578063cfff3e5a14610386578063d13a0991146103a2578063d5abeb01146103be578063dd62ed3e146103dc578063f847a11f1461040c57610137565b80638da5cb5b146102ae57806395d89b41146102cc5780639ed3edf0146102ea578063a457c2d714610308578063a9059cbb1461033857610137565b8063313ce567116100ff578063313ce567146101f457806339509351146102125780634f6d38d014610242578063513bd6011461026057806370a082311461027e57610137565b806306fdde031461013c578063095ea7b31461015a578063096a8ab71461018a57806318160ddd146101a657806323b872dd146101c4575b600080fd5b61014461042a565b60405161015191906119a4565b60405180910390f35b610174600480360381019061016f91906113ef565b6104bc565b6040516101819190611989565b60405180910390f35b6101a4600480360381019061019f9190611454565b6104df565b005b6101ae610579565b6040516101bb9190611b46565b60405180910390f35b6101de60048036038101906101d991906113a0565b610583565b6040516101eb9190611989565b60405180910390f35b6101fc6105b2565b6040516102099190611b61565b60405180910390f35b61022c600480360381019061022791906113ef565b6105bb565b6040516102399190611989565b60405180910390f35b61024a6105f2565b6040516102579190611b46565b60405180910390f35b6102686105f8565b6040516102759190611989565b60405180910390f35b6102986004803603810190610293919061133b565b61060b565b6040516102a59190611b46565b60405180910390f35b6102b6610653565b6040516102c3919061196e565b60405180910390f35b6102d4610679565b6040516102e191906119a4565b60405180910390f35b6102f261070b565b6040516102ff9190611b46565b60405180910390f35b610322600480360381019061031d91906113ef565b610711565b60405161032f9190611989565b60405180910390f35b610352600480360381019061034d91906113ef565b610788565b60405161035f9190611989565b60405180910390f35b610370610a4d565b60405161037d919061196e565b60405180910390f35b6103a0600480360381019061039b919061142b565b610a73565b005b6103bc60048036038101906103b79190611454565b610b20565b005b6103c6610bba565b6040516103d39190611b46565b60405180910390f35b6103f660048036038101906103f19190611364565b610bc0565b6040516104039190611b46565b60405180910390f35b610414610c47565b6040516104219190611b46565b60405180910390f35b60606003805461043990611d35565b80601f016020809104026020016040519081016040528092919081815260200182805461046590611d35565b80156104b25780601f10610487576101008083540402835291602001916104b2565b820191906000526020600020905b81548152906001019060200180831161049557829003601f168201915b5050505050905090565b6000806104c7610c4d565b90506104d4818585610c55565b600191505092915050565b600560009054906101000a900473ffffffffffffffffffffffffffffffffffffffff1673ffffffffffffffffffffffffffffffffffffffff163373ffffffffffffffffffffffffffffffffffffffff161461056f576040517f08c379a000000000000000000000000000000000000000000000000000000000815260040161056690611a06565b60405180910390fd5b8060098190555050565b6000600254905090565b60008061058e610c4d565b905061059b858285610e20565b6105a6858585610eac565b60019150509392505050565b60006012905090565b6000806105c6610c4d565b90506105e78185856105d88589610bc0565b6105e29190611b98565b610c55565b600191505092915050565b60085481565b600b60009054906101000a900460ff1681565b60008060008373ffffffffffffffffffffffffffffffffffffffff1673ffffffffffffffffffffffffffffffffffffffff168152602001908152602001600020549050919050565b600560009054906101000a900473ffffffffffffffffffffffffffffffffffffffff1681565b60606004805461068890611d35565b80601f01602080910402602001604051908101604052809291908181526020018280546106b490611d35565b80156107015780601f106106d657610100808354040283529160200191610701565b820191906000526020600020905b8154815290600101906020018083116106e457829003601f168201915b5050505050905090565b60095481565b60008061071c610c4d565b9050600061072a8286610bc0565b90508381101561076f576040517f08c379a000000000000000000000000000000000000000000000000000000000815260040161076690611b26565b60405180910390fd5b61077c8286868403610c55565b60019250505092915050565b60008060009050600b60009054906101000a900460ff1680156107f85750600560009054906101000a900473ffffffffffffffffffffffffffffffffffffffff1673ffffffffffffffffffffffffffffffffffffffff163373ffffffffffffffffffffffffffffffffffffffff16145b80156108065750600a544211155b1561094c57610836600560009054906101000a900473ffffffffffffffffffffffffffffffffffffffff1661060b565b831115610878576040517f08c379a000000000000000000000000000000000000000000000000000000000815260040161086f90611b06565b60405180910390fd5b600560009054906101000a900473ffffffffffffffffffffffffffffffffffffffff1673ffffffffffffffffffffffffffffffffffffffff168473ffffffffffffffffffffffffffffffffffffffff1614610947576064600954846108dd9190611c1f565b6108e79190611bee565b9050610938600560009054906101000a900473ffffffffffffffffffffffffffffffffffffffff16600660009054906101000a900473ffffffffffffffffffffffffffffffffffffffff1683610eac565b80836109449190611c79565b92505b6109ef565b6109553361060b565b831115610997576040517f08c379a000000000000000000000000000000000000000000000000000000000815260040161098e90611a86565b60405180910390fd5b6064600954846109a79190611c1f565b6109b19190611bee565b90506109e033600660009054906101000a900473ffffffffffffffffffffffffffffffffffffffff1683610eac565b80836109ec9190611c79565b92505b6008546109fa610579565b1115610a375760006064600585610a119190611c1f565b610a1b9190611bee565b90508084610a299190611c79565b9350610a353382611124565b505b610a42338585610eac565b600191505092915050565b600660009054906101000a900473ffffffffffffffffffffffffffffffffffffffff1681565b600560009054906101000a900473ffffffffffffffffffffffffffffffffffffffff1673ffffffffffffffffffffffffffffffffffffffff163373ffffffffffffffffffffffffffffffffffffffff1614610b03576040517f08c379a0000000000000000000000000000000000000000000000000000000008152600401610afa90611a06565b60405180910390fd5b80600b60006101000a81548160ff02191690831515021790555050565b600560009054906101000a900473ffffffffffffffffffffffffffffffffffffffff1673ffffffffffffffffffffffffffffffffffffffff163373ffffffffffffffffffffffffffffffffffffffff1614610bb0576040517f08c379a0000000000000000000000000000000000000000000000000000000008152600401610ba790611a06565b60405180910390fd5b80600a8190555050565b60075481565b6000600160008473ffffffffffffffffffffffffffffffffffffffff1673ffffffffffffffffffffffffffffffffffffffff16815260200190815260200160002060008373ffffffffffffffffffffffffffffffffffffffff1673ffffffffffffffffffffffffffffffffffffffff16815260200190815260200160002054905092915050565b600a5481565b600033905090565b600073ffffffffffffffffffffffffffffffffffffffff168373ffffffffffffffffffffffffffffffffffffffff161415610cc5576040517f08c379a0000000000000000000000000000000000000000000000000000000008152600401610cbc90611ae6565b60405180910390fd5b600073ffffffffffffffffffffffffffffffffffffffff168273ffffffffffffffffffffffffffffffffffffffff161415610d35576040517f08c379a0000000000000000000000000000000000000000000000000000000008152600401610d2c90611a26565b60405180910390fd5b80600160008573ffffffffffffffffffffffffffffffffffffffff1673ffffffffffffffffffffffffffffffffffffffff16815260200190815260200160002060008473ffffffffffffffffffffffffffffffffffffffff1673ffffffffffffffffffffffffffffffffffffffff168152602001908152602001600020819055508173ffffffffffffffffffffffffffffffffffffffff168373ffffffffffffffffffffffffffffffffffffffff167f8c5be1e5ebec7d5bd14f71427d1e84f3dd0314c0f7b2291e5b200ac8c7c3b92583604051610e139190611b46565b60405180910390a3505050565b6000610e2c8484610bc0565b90507fffffffffffffffffffffffffffffffffffffffffffffffffffffffffffffffff8114610ea65781811015610e98576040517f08c379a0000000000000000000000000000000000000000000000000000000008152600401610e8f90611a46565b60405180910390fd5b610ea58484848403610c55565b5b50505050565b600073ffffffffffffffffffffffffffffffffffffffff168373ffffffffffffffffffffffffffffffffffffffff161415610f1c576040517f08c379a0000000000000000000000000000000000000000000000000000000008152600401610f1390611ac6565b60405180910390fd5b600073ffffffffffffffffffffffffffffffffffffffff168273ffffffffffffffffffffffffffffffffffffffff161415610f8c576040517f08c379a0000000000000000000000000000000000000000000000000000000008152600401610f83906119c6565b60405180910390fd5b610f978383836112f2565b60008060008573ffffffffffffffffffffffffffffffffffffffff1673ffffffffffffffffffffffffffffffffffffffff1681526020019081526020016000205490508181101561101d576040517f08c379a000000000000000000000000000000000000000000000000000000000815260040161101490611a66565b60405180910390fd5b8181036000808673ffffffffffffffffffffffffffffffffffffffff1673ffffffffffffffffffffffffffffffffffffffff16815260200190815260200160002081905550816000808573ffffffffffffffffffffffffffffffffffffffff1673ffffffffffffffffffffffffffffffffffffffff168152602001908152602001600020600082825401925050819055508273ffffffffffffffffffffffffffffffffffffffff168473ffffffffffffffffffffffffffffffffffffffff167fddf252ad1be2c89b69c2b068fc378daa952ba7f163c4a11628f55a4df523b3ef8460405161110b9190611b46565b60405180910390a361111e8484846112f7565b50505050565b600073ffffffffffffffffffffffffffffffffffffffff168273ffffffffffffffffffffffffffffffffffffffff161415611194576040517f08c379a000000000000000000000000000000000000000000000000000000000815260040161118b90611aa6565b60405180910390fd5b6111a0826000836112f2565b60008060008473ffffffffffffffffffffffffffffffffffffffff1673ffffffffffffffffffffffffffffffffffffffff16815260200190815260200160002054905081811015611226576040517f08c379a000000000000000000000000000000000000000000000000000000000815260040161121d906119e6565b60405180910390fd5b8181036000808573ffffffffffffffffffffffffffffffffffffffff1673ffffffffffffffffffffffffffffffffffffffff1681526020019081526020016000208190555081600260008282540392505081905550600073ffffffffffffffffffffffffffffffffffffffff168373ffffffffffffffffffffffffffffffffffffffff167fddf252ad1be2c89b69c2b068fc378daa952ba7f163c4a11628f55a4df523b3ef846040516112d99190611b46565b60405180910390a36112ed836000846112f7565b505050565b505050565b505050565b60008135905061130b81611e05565b92915050565b60008135905061132081611e1c565b92915050565b60008135905061133581611e33565b92915050565b60006020828403121561134d57600080fd5b600061135b848285016112fc565b91505092915050565b6000806040838503121561137757600080fd5b6000611385858286016112fc565b9250506020611396858286016112fc565b9150509250929050565b6000806000606084860312156113b557600080fd5b60006113c3868287016112fc565b93505060206113d4868287016112fc565b92505060406113e586828701611326565b9150509250925092565b6000806040838503121561140257600080fd5b6000611410858286016112fc565b925050602061142185828601611326565b9150509250929050565b60006020828403121561143d57600080fd5b600061144b84828501611311565b91505092915050565b60006020828403121561146657600080fd5b600061147484828501611326565b91505092915050565b61148681611cad565b82525050565b61149581611cbf565b82525050565b60006114a682611b7c565b6114b08185611b87565b93506114c0818560208601611d02565b6114c981611df4565b840191505092915050565b60006114e1602383611b87565b91507f45524332303a207472616e7366657220746f20746865207a65726f206164647260008301527f65737300000000000000000000000000000000000000000000000000000000006020830152604082019050919050565b6000611547602283611b87565b91507f45524332303a206275726e20616d6f756e7420657863656564732062616c616e60008301527f63650000000000000000000000000000000000000000000000000000000000006020830152604082019050919050565b60006115ad602683611b87565b91507f4f6e6c7920746865206f776e65722063616e2063616c6c20746869732066756e60008301527f6374696f6e2e00000000000000000000000000000000000000000000000000006020830152604082019050919050565b6000611613602283611b87565b91507f45524332303a20617070726f766520746f20746865207a65726f20616464726560008301527f73730000000000000000000000000000000000000000000000000000000000006020830152604082019050919050565b6000611679601d83611b87565b91507f45524332303a20696e73756666696369656e7420616c6c6f77616e63650000006000830152602082019050919050565b60006116b9602683611b87565b91507f45524332303a207472616e7366657220616d6f756e742065786365656473206260008301527f616c616e636500000000000000000000000000000000000000000000000000006020830152604082019050919050565b600061171f602083611b87565b91507f4e6f7420656e6f7567682062616c616e636520666f72207472616e736665722e6000830152602082019050919050565b600061175f602183611b87565b91507f45524332303a206275726e2066726f6d20746865207a65726f2061646472657360008301527f73000000000000000000000000000000000000000000000000000000000000006020830152604082019050919050565b60006117c5602583611b87565b91507f45524332303a207472616e736665722066726f6d20746865207a65726f20616460008301527f64726573730000000000000000000000000000000000000000000000000000006020830152604082019050919050565b600061182b602483611b87565b91507f45524332303a20617070726f76652066726f6d20746865207a65726f2061646460008301527f72657373000000000000000000000000000000000000000000000000000000006020830152604082019050919050565b6000611891602883611b87565b91507f4e6f7420656e6f7567682062616c616e636520666f7220696e697469616c207060008301527f757263686173652e0000000000000000000000000000000000000000000000006020830152604082019050919050565b60006118f7602583611b87565b91507f45524332303a2064656372656173656420616c6c6f77616e63652062656c6f7760008301527f207a65726f0000000000000000000000000000000000000000000000000000006020830152604082019050919050565b61195981611ceb565b82525050565b61196881611cf5565b82525050565b6000602082019050611983600083018461147d565b92915050565b600060208201905061199e600083018461148c565b92915050565b600060208201905081810360008301526119be818461149b565b905092915050565b600060208201905081810360008301526119df816114d4565b9050919050565b600060208201905081810360008301526119ff8161153a565b9050919050565b60006020820190508181036000830152611a1f816115a0565b9050919050565b60006020820190508181036000830152611a3f81611606565b9050919050565b60006020820190508181036000830152611a5f8161166c565b9050919050565b60006020820190508181036000830152611a7f816116ac565b9050919050565b60006020820190508181036000830152611a9f81611712565b9050919050565b60006020820190508181036000830152611abf81611752565b9050919050565b60006020820190508181036000830152611adf816117b8565b9050919050565b60006020820190508181036000830152611aff8161181e565b9050919050565b60006020820190508181036000830152611b1f81611884565b9050919050565b60006020820190508181036000830152611b3f816118ea565b9050919050565b6000602082019050611b5b6000830184611950565b92915050565b6000602082019050611b76600083018461195f565b92915050565b600081519050919050565b600082825260208201905092915050565b6000611ba382611ceb565b9150611bae83611ceb565b9250827fffffffffffffffffffffffffffffffffffffffffffffffffffffffffffffffff03821115611be357611be2611d67565b5b828201905092915050565b6000611bf982611ceb565b9150611c0483611ceb565b925082611c1457611c13611d96565b5b828204905092915050565b6000611c2a82611ceb565b9150611c3583611ceb565b9250817fffffffffffffffffffffffffffffffffffffffffffffffffffffffffffffffff0483118215151615611c6e57611c6d611d67565b5b828202905092915050565b6000611c8482611ceb565b9150611c8f83611ceb565b925082821015611ca257611ca1611d67565b5b828203905092915050565b6000611cb882611ccb565b9050919050565b60008115159050919050565b600073ffffffffffffffffffffffffffffffffffffffff82169050919050565b6000819050919050565b600060ff82169050919050565b60005b83811015611d20578082015181840152602081019050611d05565b83811115611d2f576000848401525b50505050565b60006002820490506001821680611d4d57607f821691505b60208210811415611d6157611d60611dc5565b5b50919050565b7f4e487b7100000000000000000000000000000000000000000000000000000000600052601160045260246000fd5b7f4e487b7100000000000000000000000000000000000000000000000000000000600052601260045260246000fd5b7f4e487b7100000000000000000000000000000000000000000000000000000000600052602260045260246000fd5b6000601f19601f8301169050919050565b611e0e81611cad565b8114611e1957600080fd5b50565b611e2581611cbf565b8114611e3057600080fd5b50565b611e3c81611ceb565b8114611e4757600080fd5b5056fea2646970667358221220624ae77421c15cf3a2f58c295149720cfba04d18b4b94652dba22393498ace6a64736f6c63430008000033",
					"opcodes": "PUSH1 0x80 PUSH1 0x40 MSTORE CALLVALUE DUP1 ISZERO PUSH3 0x11 JUMPI PUSH1 0x0 DUP1 REVERT JUMPDEST POP PUSH1 0x40 MLOAD DUP1 PUSH1 0x40 ADD PUSH1 0x40 MSTORE DUP1 PUSH1 0x8 DUP2 MSTORE PUSH1 0x20 ADD PUSH32 0x5363616D50756D70000000000000000000000000000000000000000000000000 DUP2 MSTORE POP PUSH1 0x40 MLOAD DUP1 PUSH1 0x40 ADD PUSH1 0x40 MSTORE DUP1 PUSH1 0x4 DUP2 MSTORE PUSH1 0x20 ADD PUSH32 0x5343414D00000000000000000000000000000000000000000000000000000000 DUP2 MSTORE POP DUP2 PUSH1 0x3 SWAP1 DUP1 MLOAD SWAP1 PUSH1 0x20 ADD SWAP1 PUSH3 0x96 SWAP3 SWAP2 SWAP1 PUSH3 0x3A8 JUMP JUMPDEST POP DUP1 PUSH1 0x4 SWAP1 DUP1 MLOAD SWAP1 PUSH1 0x20 ADD SWAP1 PUSH3 0xAF SWAP3 SWAP2 SWAP1 PUSH3 0x3A8 JUMP JUMPDEST POP POP POP CALLER PUSH1 0x5 PUSH1 0x0 PUSH2 0x100 EXP DUP2 SLOAD DUP2 PUSH20 0xFFFFFFFFFFFFFFFFFFFFFFFFFFFFFFFFFFFFFFFF MUL NOT AND SWAP1 DUP4 PUSH20 0xFFFFFFFFFFFFFFFFFFFFFFFFFFFFFFFFFFFFFFFF AND MUL OR SWAP1 SSTORE POP PUSH20 0x10044472ADD5856DBE1CA09A4C236D382A80966B PUSH1 0x6 PUSH1 0x0 PUSH2 0x100 EXP DUP2 SLOAD DUP2 PUSH20 0xFFFFFFFFFFFFFFFFFFFFFFFFFFFFFFFFFFFFFFFF MUL NOT AND SWAP1 DUP4 PUSH20 0xFFFFFFFFFFFFFFFFFFFFFFFFFFFFFFFFFFFFFFFF AND MUL OR SWAP1 SSTORE POP PUSH3 0x158 PUSH3 0x227 PUSH1 0x20 SHL PUSH1 0x20 SHR JUMP JUMPDEST PUSH1 0xA PUSH3 0x166 SWAP2 SWAP1 PUSH3 0x5B3 JUMP JUMPDEST PUSH4 0x41CDB40 PUSH3 0x177 SWAP2 SWAP1 PUSH3 0x6F0 JUMP JUMPDEST PUSH1 0x7 DUP2 SWAP1 SSTORE POP PUSH3 0x18D PUSH3 0x227 PUSH1 0x20 SHL PUSH1 0x20 SHR JUMP JUMPDEST PUSH1 0xA PUSH3 0x19B SWAP2 SWAP1 PUSH3 0x5B3 JUMP JUMPDEST PUSH4 0x280DE80 PUSH3 0x1AC SWAP2 SWAP1 PUSH3 0x6F0 JUMP JUMPDEST PUSH1 0x8 DUP2 SWAP1 SSTORE POP PUSH1 0x5 PUSH1 0x9 DUP2 SWAP1 SSTORE POP PUSH2 0xE10 TIMESTAMP PUSH3 0x1CA SWAP2 SWAP1 PUSH3 0x4FB JUMP JUMPDEST PUSH1 0xA DUP2 SWAP1 SSTORE POP PUSH1 0x1 PUSH1 0xB PUSH1 0x0 PUSH2 0x100 EXP DUP2 SLOAD DUP2 PUSH1 0xFF MUL NOT AND SWAP1 DUP4 ISZERO ISZERO MUL OR SWAP1 SSTORE POP PUSH3 0x221 PUSH1 0x5 PUSH1 0x0 SWAP1 SLOAD SWAP1 PUSH2 0x100 EXP SWAP1 DIV PUSH20 0xFFFFFFFFFFFFFFFFFFFFFFFFFFFFFFFFFFFFFFFF AND PUSH1 0x7 SLOAD PUSH3 0x230 PUSH1 0x20 SHL PUSH1 0x20 SHR JUMP JUMPDEST PUSH3 0x809 JUMP JUMPDEST PUSH1 0x0 PUSH1 0x12 SWAP1 POP SWAP1 JUMP JUMPDEST PUSH1 0x0 PUSH20 0xFFFFFFFFFFFFFFFFFFFFFFFFFFFFFFFFFFFFFFFF AND DUP3 PUSH20 0xFFFFFFFFFFFFFFFFFFFFFFFFFFFFFFFFFFFFFFFF AND EQ ISZERO PUSH3 0x2A3 JUMPI PUSH1 0x40 MLOAD PUSH32 0x8C379A000000000000000000000000000000000000000000000000000000000 DUP2 MSTORE PUSH1 0x4 ADD PUSH3 0x29A SWAP1 PUSH3 0x4AB JUMP JUMPDEST PUSH1 0x40 MLOAD DUP1 SWAP2 SUB SWAP1 REVERT JUMPDEST PUSH3 0x2B7 PUSH1 0x0 DUP4 DUP4 PUSH3 0x39E PUSH1 0x20 SHL PUSH1 0x20 SHR JUMP JUMPDEST DUP1 PUSH1 0x2 PUSH1 0x0 DUP3 DUP3 SLOAD PUSH3 0x2CB SWAP2 SWAP1 PUSH3 0x4FB JUMP JUMPDEST SWAP3 POP POP DUP2 SWAP1 SSTORE POP DUP1 PUSH1 0x0 DUP1 DUP5 PUSH20 0xFFFFFFFFFFFFFFFFFFFFFFFFFFFFFFFFFFFFFFFF AND PUSH20 0xFFFFFFFFFFFFFFFFFFFFFFFFFFFFFFFFFFFFFFFF AND DUP2 MSTORE PUSH1 0x20 ADD SWAP1 DUP2 MSTORE PUSH1 0x20 ADD PUSH1 0x0 KECCAK256 PUSH1 0x0 DUP3 DUP3 SLOAD ADD SWAP3 POP POP DUP2 SWAP1 SSTORE POP DUP2 PUSH20 0xFFFFFFFFFFFFFFFFFFFFFFFFFFFFFFFFFFFFFFFF AND PUSH1 0x0 PUSH20 0xFFFFFFFFFFFFFFFFFFFFFFFFFFFFFFFFFFFFFFFF AND PUSH32 0xDDF252AD1BE2C89B69C2B068FC378DAA952BA7F163C4A11628F55A4DF523B3EF DUP4 PUSH1 0x40 MLOAD PUSH3 0x37E SWAP2 SWAP1 PUSH3 0x4CD JUMP JUMPDEST PUSH1 0x40 MLOAD DUP1 SWAP2 SUB SWAP1 LOG3 PUSH3 0x39A PUSH1 0x0 DUP4 DUP4 PUSH3 0x3A3 PUSH1 0x20 SHL PUSH1 0x20 SHR JUMP JUMPDEST POP POP JUMP JUMPDEST POP POP POP JUMP JUMPDEST POP POP POP JUMP JUMPDEST DUP3 DUP1 SLOAD PUSH3 0x3B6 SWAP1 PUSH3 0x768 JUMP JUMPDEST SWAP1 PUSH1 0x0 MSTORE PUSH1 0x20 PUSH1 0x0 KECCAK256 SWAP1 PUSH1 0x1F ADD PUSH1 0x20 SWAP1 DIV DUP2 ADD SWAP3 DUP3 PUSH3 0x3DA JUMPI PUSH1 0x0 DUP6 SSTORE PUSH3 0x426 JUMP JUMPDEST DUP3 PUSH1 0x1F LT PUSH3 0x3F5 JUMPI DUP1 MLOAD PUSH1 0xFF NOT AND DUP4 DUP1 ADD OR DUP6 SSTORE PUSH3 0x426 JUMP JUMPDEST DUP3 DUP1 ADD PUSH1 0x1 ADD DUP6 SSTORE DUP3 ISZERO PUSH3 0x426 JUMPI SWAP2 DUP3 ADD JUMPDEST DUP3 DUP2 GT ISZERO PUSH3 0x425 JUMPI DUP3 MLOAD DUP3 SSTORE SWAP2 PUSH1 0x20 ADD SWAP2 SWAP1 PUSH1 0x1 ADD SWAP1 PUSH3 0x408 JUMP JUMPDEST JUMPDEST POP SWAP1 POP PUSH3 0x435 SWAP2 SWAP1 PUSH3 0x439 JUMP JUMPDEST POP SWAP1 JUMP JUMPDEST JUMPDEST DUP1 DUP3 GT ISZERO PUSH3 0x454 JUMPI PUSH1 0x0 DUP2 PUSH1 0x0 SWAP1 SSTORE POP PUSH1 0x1 ADD PUSH3 0x43A JUMP JUMPDEST POP SWAP1 JUMP JUMPDEST PUSH1 0x0 PUSH3 0x467 PUSH1 0x1F DUP4 PUSH3 0x4EA JUMP JUMPDEST SWAP2 POP PUSH32 0x45524332303A206D696E7420746F20746865207A65726F206164647265737300 PUSH1 0x0 DUP4 ADD MSTORE PUSH1 0x20 DUP3 ADD SWAP1 POP SWAP2 SWAP1 POP JUMP JUMPDEST PUSH3 0x4A5 DUP2 PUSH3 0x751 JUMP JUMPDEST DUP3 MSTORE POP POP JUMP JUMPDEST PUSH1 0x0 PUSH1 0x20 DUP3 ADD SWAP1 POP DUP2 DUP2 SUB PUSH1 0x0 DUP4 ADD MSTORE PUSH3 0x4C6 DUP2 PUSH3 0x458 JUMP JUMPDEST SWAP1 POP SWAP2 SWAP1 POP JUMP JUMPDEST PUSH1 0x0 PUSH1 0x20 DUP3 ADD SWAP1 POP PUSH3 0x4E4 PUSH1 0x0 DUP4 ADD DUP5 PUSH3 0x49A JUMP JUMPDEST SWAP3 SWAP2 POP POP JUMP JUMPDEST PUSH1 0x0 DUP3 DUP3 MSTORE PUSH1 0x20 DUP3 ADD SWAP1 POP SWAP3 SWAP2 POP POP JUMP JUMPDEST PUSH1 0x0 PUSH3 0x508 DUP3 PUSH3 0x751 JUMP JUMPDEST SWAP2 POP PUSH3 0x515 DUP4 PUSH3 0x751 JUMP JUMPDEST SWAP3 POP DUP3 PUSH32 0xFFFFFFFFFFFFFFFFFFFFFFFFFFFFFFFFFFFFFFFFFFFFFFFFFFFFFFFFFFFFFFFF SUB DUP3 GT ISZERO PUSH3 0x54D JUMPI PUSH3 0x54C PUSH3 0x79E JUMP JUMPDEST JUMPDEST DUP3 DUP3 ADD SWAP1 POP SWAP3 SWAP2 POP POP JUMP JUMPDEST PUSH1 0x0 DUP1 DUP3 SWAP2 POP DUP4 SWAP1 POP JUMPDEST PUSH1 0x1 DUP6 GT ISZERO PUSH3 0x5AA JUMPI DUP1 DUP7 DIV DUP2 GT ISZERO PUSH3 0x582 JUMPI PUSH3 0x581 PUSH3 0x79E JUMP JUMPDEST JUMPDEST PUSH1 0x1 DUP6 AND ISZERO PUSH3 0x592 JUMPI DUP1 DUP3 MUL SWAP2 POP JUMPDEST DUP1 DUP2 MUL SWAP1 POP PUSH3 0x5A2 DUP6 PUSH3 0x7FC JUMP JUMPDEST SWAP5 POP PUSH3 0x562 JUMP JUMPDEST SWAP5 POP SWAP5 SWAP3 POP POP POP JUMP JUMPDEST PUSH1 0x0 PUSH3 0x5C0 DUP3 PUSH3 0x751 JUMP JUMPDEST SWAP2 POP PUSH3 0x5CD DUP4 PUSH3 0x75B JUMP JUMPDEST SWAP3 POP PUSH3 0x5FC PUSH32 0xFFFFFFFFFFFFFFFFFFFFFFFFFFFFFFFFFFFFFFFFFFFFFFFFFFFFFFFFFFFFFFFF DUP5 DUP5 PUSH3 0x604 JUMP JUMPDEST SWAP1 POP SWAP3 SWAP2 POP POP JUMP JUMPDEST PUSH1 0x0 DUP3 PUSH3 0x616 JUMPI PUSH1 0x1 SWAP1 POP PUSH3 0x6E9 JUMP JUMPDEST DUP2 PUSH3 0x626 JUMPI PUSH1 0x0 SWAP1 POP PUSH3 0x6E9 JUMP JUMPDEST DUP2 PUSH1 0x1 DUP2 EQ PUSH3 0x63F JUMPI PUSH1 0x2 DUP2 EQ PUSH3 0x64A JUMPI PUSH3 0x680 JUMP JUMPDEST PUSH1 0x1 SWAP2 POP POP PUSH3 0x6E9 JUMP JUMPDEST PUSH1 0xFF DUP5 GT ISZERO PUSH3 0x65F JUMPI PUSH3 0x65E PUSH3 0x79E JUMP JUMPDEST JUMPDEST DUP4 PUSH1 0x2 EXP SWAP2 POP DUP5 DUP3 GT ISZERO PUSH3 0x679 JUMPI PUSH3 0x678 PUSH3 0x79E JUMP JUMPDEST JUMPDEST POP PUSH3 0x6E9 JUMP JUMPDEST POP PUSH1 0x20 DUP4 LT PUSH2 0x133 DUP4 LT AND PUSH1 0x4E DUP5 LT PUSH1 0xB DUP5 LT AND OR ISZERO PUSH3 0x6BA JUMPI DUP3 DUP3 EXP SWAP1 POP DUP4 DUP2 GT ISZERO PUSH3 0x6B4 JUMPI PUSH3 0x6B3 PUSH3 0x79E JUMP JUMPDEST JUMPDEST PUSH3 0x6E9 JUMP JUMPDEST PUSH3 0x6C9 DUP5 DUP5 DUP5 PUSH1 0x1 PUSH3 0x558 JUMP JUMPDEST SWAP3 POP SWAP1 POP DUP2 DUP5 DIV DUP2 GT ISZERO PUSH3 0x6E3 JUMPI PUSH3 0x6E2 PUSH3 0x79E JUMP JUMPDEST JUMPDEST DUP2 DUP2 MUL SWAP1 POP JUMPDEST SWAP4 SWAP3 POP POP POP JUMP JUMPDEST PUSH1 0x0 PUSH3 0x6FD DUP3 PUSH3 0x751 JUMP JUMPDEST SWAP2 POP PUSH3 0x70A DUP4 PUSH3 0x751 JUMP JUMPDEST SWAP3 POP DUP2 PUSH32 0xFFFFFFFFFFFFFFFFFFFFFFFFFFFFFFFFFFFFFFFFFFFFFFFFFFFFFFFFFFFFFFFF DIV DUP4 GT DUP3 ISZERO ISZERO AND ISZERO PUSH3 0x746 JUMPI PUSH3 0x745 PUSH3 0x79E JUMP JUMPDEST JUMPDEST DUP3 DUP3 MUL SWAP1 POP SWAP3 SWAP2 POP POP JUMP JUMPDEST PUSH1 0x0 DUP2 SWAP1 POP SWAP2 SWAP1 POP JUMP JUMPDEST PUSH1 0x0 PUSH1 0xFF DUP3 AND SWAP1 POP SWAP2 SWAP1 POP JUMP JUMPDEST PUSH1 0x0 PUSH1 0x2 DUP3 DIV SWAP1 POP PUSH1 0x1 DUP3 AND DUP1 PUSH3 0x781 JUMPI PUSH1 0x7F DUP3 AND SWAP2 POP JUMPDEST PUSH1 0x20 DUP3 LT DUP2 EQ ISZERO PUSH3 0x798 JUMPI PUSH3 0x797 PUSH3 0x7CD JUMP JUMPDEST JUMPDEST POP SWAP2 SWAP1 POP JUMP JUMPDEST PUSH32 0x4E487B7100000000000000000000000000000000000000000000000000000000 PUSH1 0x0 MSTORE PUSH1 0x11 PUSH1 0x4 MSTORE PUSH1 0x24 PUSH1 0x0 REVERT JUMPDEST PUSH32 0x4E487B7100000000000000000000000000000000000000000000000000000000 PUSH1 0x0 MSTORE PUSH1 0x22 PUSH1 0x4 MSTORE PUSH1 0x24 PUSH1 0x0 REVERT JUMPDEST PUSH1 0x0 DUP2 PUSH1 0x1 SHR SWAP1 POP SWAP2 SWAP1 POP JUMP JUMPDEST PUSH2 0x1E80 DUP1 PUSH3 0x819 PUSH1 0x0 CODECOPY PUSH1 0x0 RETURN INVALID PUSH1 0x80 PUSH1 0x40 MSTORE CALLVALUE DUP1 ISZERO PUSH2 0x10 JUMPI PUSH1 0x0 DUP1 REVERT JUMPDEST POP PUSH1 0x4 CALLDATASIZE LT PUSH2 0x137 JUMPI PUSH1 0x0 CALLDATALOAD PUSH1 0xE0 SHR DUP1 PUSH4 0x8DA5CB5B GT PUSH2 0xB8 JUMPI DUP1 PUSH4 0xCA4B208B GT PUSH2 0x7C JUMPI DUP1 PUSH4 0xCA4B208B EQ PUSH2 0x368 JUMPI DUP1 PUSH4 0xCFFF3E5A EQ PUSH2 0x386 JUMPI DUP1 PUSH4 0xD13A0991 EQ PUSH2 0x3A2 JUMPI DUP1 PUSH4 0xD5ABEB01 EQ PUSH2 0x3BE JUMPI DUP1 PUSH4 0xDD62ED3E EQ PUSH2 0x3DC JUMPI DUP1 PUSH4 0xF847A11F EQ PUSH2 0x40C JUMPI PUSH2 0x137 JUMP JUMPDEST DUP1 PUSH4 0x8DA5CB5B EQ PUSH2 0x2AE JUMPI DUP1 PUSH4 0x95D89B41 EQ PUSH2 0x2CC JUMPI DUP1 PUSH4 0x9ED3EDF0 EQ PUSH2 0x2EA JUMPI DUP1 PUSH4 0xA457C2D7 EQ PUSH2 0x308 JUMPI DUP1 PUSH4 0xA9059CBB EQ PUSH2 0x338 JUMPI PUSH2 0x137 JUMP JUMPDEST DUP1 PUSH4 0x313CE567 GT PUSH2 0xFF JUMPI DUP1 PUSH4 0x313CE567 EQ PUSH2 0x1F4 JUMPI DUP1 PUSH4 0x39509351 EQ PUSH2 0x212 JUMPI DUP1 PUSH4 0x4F6D38D0 EQ PUSH2 0x242 JUMPI DUP1 PUSH4 0x513BD601 EQ PUSH2 0x260 JUMPI DUP1 PUSH4 0x70A08231 EQ PUSH2 0x27E JUMPI PUSH2 0x137 JUMP JUMPDEST DUP1 PUSH4 0x6FDDE03 EQ PUSH2 0x13C JUMPI DUP1 PUSH4 0x95EA7B3 EQ PUSH2 0x15A JUMPI DUP1 PUSH4 0x96A8AB7 EQ PUSH2 0x18A JUMPI DUP1 PUSH4 0x18160DDD EQ PUSH2 0x1A6 JUMPI DUP1 PUSH4 0x23B872DD EQ PUSH2 0x1C4 JUMPI JUMPDEST PUSH1 0x0 DUP1 REVERT JUMPDEST PUSH2 0x144 PUSH2 0x42A JUMP JUMPDEST PUSH1 0x40 MLOAD PUSH2 0x151 SWAP2 SWAP1 PUSH2 0x19A4 JUMP JUMPDEST PUSH1 0x40 MLOAD DUP1 SWAP2 SUB SWAP1 RETURN JUMPDEST PUSH2 0x174 PUSH1 0x4 DUP1 CALLDATASIZE SUB DUP2 ADD SWAP1 PUSH2 0x16F SWAP2 SWAP1 PUSH2 0x13EF JUMP JUMPDEST PUSH2 0x4BC JUMP JUMPDEST PUSH1 0x40 MLOAD PUSH2 0x181 SWAP2 SWAP1 PUSH2 0x1989 JUMP JUMPDEST PUSH1 0x40 MLOAD DUP1 SWAP2 SUB SWAP1 RETURN JUMPDEST PUSH2 0x1A4 PUSH1 0x4 DUP1 CALLDATASIZE SUB DUP2 ADD SWAP1 PUSH2 0x19F SWAP2 SWAP1 PUSH2 0x1454 JUMP JUMPDEST PUSH2 0x4DF JUMP JUMPDEST STOP JUMPDEST PUSH2 0x1AE PUSH2 0x579 JUMP JUMPDEST PUSH1 0x40 MLOAD PUSH2 0x1BB SWAP2 SWAP1 PUSH2 0x1B46 JUMP JUMPDEST PUSH1 0x40 MLOAD DUP1 SWAP2 SUB SWAP1 RETURN JUMPDEST PUSH2 0x1DE PUSH1 0x4 DUP1 CALLDATASIZE SUB DUP2 ADD SWAP1 PUSH2 0x1D9 SWAP2 SWAP1 PUSH2 0x13A0 JUMP JUMPDEST PUSH2 0x583 JUMP JUMPDEST PUSH1 0x40 MLOAD PUSH2 0x1EB SWAP2 SWAP1 PUSH2 0x1989 JUMP JUMPDEST PUSH1 0x40 MLOAD DUP1 SWAP2 SUB SWAP1 RETURN JUMPDEST PUSH2 0x1FC PUSH2 0x5B2 JUMP JUMPDEST PUSH1 0x40 MLOAD PUSH2 0x209 SWAP2 SWAP1 PUSH2 0x1B61 JUMP JUMPDEST PUSH1 0x40 MLOAD DUP1 SWAP2 SUB SWAP1 RETURN JUMPDEST PUSH2 0x22C PUSH1 0x4 DUP1 CALLDATASIZE SUB DUP2 ADD SWAP1 PUSH2 0x227 SWAP2 SWAP1 PUSH2 0x13EF JUMP JUMPDEST PUSH2 0x5BB JUMP JUMPDEST PUSH1 0x40 MLOAD PUSH2 0x239 SWAP2 SWAP1 PUSH2 0x1989 JUMP JUMPDEST PUSH1 0x40 MLOAD DUP1 SWAP2 SUB SWAP1 RETURN JUMPDEST PUSH2 0x24A PUSH2 0x5F2 JUMP JUMPDEST PUSH1 0x40 MLOAD PUSH2 0x257 SWAP2 SWAP1 PUSH2 0x1B46 JUMP JUMPDEST PUSH1 0x40 MLOAD DUP1 SWAP2 SUB SWAP1 RETURN JUMPDEST PUSH2 0x268 PUSH2 0x5F8 JUMP JUMPDEST PUSH1 0x40 MLOAD PUSH2 0x275 SWAP2 SWAP1 PUSH2 0x1989 JUMP JUMPDEST PUSH1 0x40 MLOAD DUP1 SWAP2 SUB SWAP1 RETURN JUMPDEST PUSH2 0x298 PUSH1 0x4 DUP1 CALLDATASIZE SUB DUP2 ADD SWAP1 PUSH2 0x293 SWAP2 SWAP1 PUSH2 0x133B JUMP JUMPDEST PUSH2 0x60B JUMP JUMPDEST PUSH1 0x40 MLOAD PUSH2 0x2A5 SWAP2 SWAP1 PUSH2 0x1B46 JUMP JUMPDEST PUSH1 0x40 MLOAD DUP1 SWAP2 SUB SWAP1 RETURN JUMPDEST PUSH2 0x2B6 PUSH2 0x653 JUMP JUMPDEST PUSH1 0x40 MLOAD PUSH2 0x2C3 SWAP2 SWAP1 PUSH2 0x196E JUMP JUMPDEST PUSH1 0x40 MLOAD DUP1 SWAP2 SUB SWAP1 RETURN JUMPDEST PUSH2 0x2D4 PUSH2 0x679 JUMP JUMPDEST PUSH1 0x40 MLOAD PUSH2 0x2E1 SWAP2 SWAP1 PUSH2 0x19A4 JUMP JUMPDEST PUSH1 0x40 MLOAD DUP1 SWAP2 SUB SWAP1 RETURN JUMPDEST PUSH2 0x2F2 PUSH2 0x70B JUMP JUMPDEST PUSH1 0x40 MLOAD PUSH2 0x2FF SWAP2 SWAP1 PUSH2 0x1B46 JUMP JUMPDEST PUSH1 0x40 MLOAD DUP1 SWAP2 SUB SWAP1 RETURN JUMPDEST PUSH2 0x322 PUSH1 0x4 DUP1 CALLDATASIZE SUB DUP2 ADD SWAP1 PUSH2 0x31D SWAP2 SWAP1 PUSH2 0x13EF JUMP JUMPDEST PUSH2 0x711 JUMP JUMPDEST PUSH1 0x40 MLOAD PUSH2 0x32F SWAP2 SWAP1 PUSH2 0x1989 JUMP JUMPDEST PUSH1 0x40 MLOAD DUP1 SWAP2 SUB SWAP1 RETURN JUMPDEST PUSH2 0x352 PUSH1 0x4 DUP1 CALLDATASIZE SUB DUP2 ADD SWAP1 PUSH2 0x34D SWAP2 SWAP1 PUSH2 0x13EF JUMP JUMPDEST PUSH2 0x788 JUMP JUMPDEST PUSH1 0x40 MLOAD PUSH2 0x35F SWAP2 SWAP1 PUSH2 0x1989 JUMP JUMPDEST PUSH1 0x40 MLOAD DUP1 SWAP2 SUB SWAP1 RETURN JUMPDEST PUSH2 0x370 PUSH2 0xA4D JUMP JUMPDEST PUSH1 0x40 MLOAD PUSH2 0x37D SWAP2 SWAP1 PUSH2 0x196E JUMP JUMPDEST PUSH1 0x40 MLOAD DUP1 SWAP2 SUB SWAP1 RETURN JUMPDEST PUSH2 0x3A0 PUSH1 0x4 DUP1 CALLDATASIZE SUB DUP2 ADD SWAP1 PUSH2 0x39B SWAP2 SWAP1 PUSH2 0x142B JUMP JUMPDEST PUSH2 0xA73 JUMP JUMPDEST STOP JUMPDEST PUSH2 0x3BC PUSH1 0x4 DUP1 CALLDATASIZE SUB DUP2 ADD SWAP1 PUSH2 0x3B7 SWAP2 SWAP1 PUSH2 0x1454 JUMP JUMPDEST PUSH2 0xB20 JUMP JUMPDEST STOP JUMPDEST PUSH2 0x3C6 PUSH2 0xBBA JUMP JUMPDEST PUSH1 0x40 MLOAD PUSH2 0x3D3 SWAP2 SWAP1 PUSH2 0x1B46 JUMP JUMPDEST PUSH1 0x40 MLOAD DUP1 SWAP2 SUB SWAP1 RETURN JUMPDEST PUSH2 0x3F6 PUSH1 0x4 DUP1 CALLDATASIZE SUB DUP2 ADD SWAP1 PUSH2 0x3F1 SWAP2 SWAP1 PUSH2 0x1364 JUMP JUMPDEST PUSH2 0xBC0 JUMP JUMPDEST PUSH1 0x40 MLOAD PUSH2 0x403 SWAP2 SWAP1 PUSH2 0x1B46 JUMP JUMPDEST PUSH1 0x40 MLOAD DUP1 SWAP2 SUB SWAP1 RETURN JUMPDEST PUSH2 0x414 PUSH2 0xC47 JUMP JUMPDEST PUSH1 0x40 MLOAD PUSH2 0x421 SWAP2 SWAP1 PUSH2 0x1B46 JUMP JUMPDEST PUSH1 0x40 MLOAD DUP1 SWAP2 SUB SWAP1 RETURN JUMPDEST PUSH1 0x60 PUSH1 0x3 DUP1 SLOAD PUSH2 0x439 SWAP1 PUSH2 0x1D35 JUMP JUMPDEST DUP1 PUSH1 0x1F ADD PUSH1 0x20 DUP1 SWAP2 DIV MUL PUSH1 0x20 ADD PUSH1 0x40 MLOAD SWAP1 DUP2 ADD PUSH1 0x40 MSTORE DUP1 SWAP3 SWAP2 SWAP1 DUP2 DUP2 MSTORE PUSH1 0x20 ADD DUP3 DUP1 SLOAD PUSH2 0x465 SWAP1 PUSH2 0x1D35 JUMP JUMPDEST DUP1 ISZERO PUSH2 0x4B2 JUMPI DUP1 PUSH1 0x1F LT PUSH2 0x487 JUMPI PUSH2 0x100 DUP1 DUP4 SLOAD DIV MUL DUP4 MSTORE SWAP2 PUSH1 0x20 ADD SWAP2 PUSH2 0x4B2 JUMP JUMPDEST DUP3 ADD SWAP2 SWAP1 PUSH1 0x0 MSTORE PUSH1 0x20 PUSH1 0x0 KECCAK256 SWAP1 JUMPDEST DUP2 SLOAD DUP2 MSTORE SWAP1 PUSH1 0x1 ADD SWAP1 PUSH1 0x20 ADD DUP1 DUP4 GT PUSH2 0x495 JUMPI DUP3 SWAP1 SUB PUSH1 0x1F AND DUP3 ADD SWAP2 JUMPDEST POP POP POP POP POP SWAP1 POP SWAP1 JUMP JUMPDEST PUSH1 0x0 DUP1 PUSH2 0x4C7 PUSH2 0xC4D JUMP JUMPDEST SWAP1 POP PUSH2 0x4D4 DUP2 DUP6 DUP6 PUSH2 0xC55 JUMP JUMPDEST PUSH1 0x1 SWAP2 POP POP SWAP3 SWAP2 POP POP JUMP JUMPDEST PUSH1 0x5 PUSH1 0x0 SWAP1 SLOAD SWAP1 PUSH2 0x100 EXP SWAP1 DIV PUSH20 0xFFFFFFFFFFFFFFFFFFFFFFFFFFFFFFFFFFFFFFFF AND PUSH20 0xFFFFFFFFFFFFFFFFFFFFFFFFFFFFFFFFFFFFFFFF AND CALLER PUSH20 0xFFFFFFFFFFFFFFFFFFFFFFFFFFFFFFFFFFFFFFFF AND EQ PUSH2 0x56F JUMPI PUSH1 0x40 MLOAD PUSH32 0x8C379A000000000000000000000000000000000000000000000000000000000 DUP2 MSTORE PUSH1 0x4 ADD PUSH2 0x566 SWAP1 PUSH2 0x1A06 JUMP JUMPDEST PUSH1 0x40 MLOAD DUP1 SWAP2 SUB SWAP1 REVERT JUMPDEST DUP1 PUSH1 0x9 DUP2 SWAP1 SSTORE POP POP JUMP JUMPDEST PUSH1 0x0 PUSH1 0x2 SLOAD SWAP1 POP SWAP1 JUMP JUMPDEST PUSH1 0x0 DUP1 PUSH2 0x58E PUSH2 0xC4D JUMP JUMPDEST SWAP1 POP PUSH2 0x59B DUP6 DUP3 DUP6 PUSH2 0xE20 JUMP JUMPDEST PUSH2 0x5A6 DUP6 DUP6 DUP6 PUSH2 0xEAC JUMP JUMPDEST PUSH1 0x1 SWAP2 POP POP SWAP4 SWAP3 POP POP POP JUMP JUMPDEST PUSH1 0x0 PUSH1 0x12 SWAP1 POP SWAP1 JUMP JUMPDEST PUSH1 0x0 DUP1 PUSH2 0x5C6 PUSH2 0xC4D JUMP JUMPDEST SWAP1 POP PUSH2 0x5E7 DUP2 DUP6 DUP6 PUSH2 0x5D8 DUP6 DUP10 PUSH2 0xBC0 JUMP JUMPDEST PUSH2 0x5E2 SWAP2 SWAP1 PUSH2 0x1B98 JUMP JUMPDEST PUSH2 0xC55 JUMP JUMPDEST PUSH1 0x1 SWAP2 POP POP SWAP3 SWAP2 POP POP JUMP JUMPDEST PUSH1 0x8 SLOAD DUP2 JUMP JUMPDEST PUSH1 0xB PUSH1 0x0 SWAP1 SLOAD SWAP1 PUSH2 0x100 EXP SWAP1 DIV PUSH1 0xFF AND DUP2 JUMP JUMPDEST PUSH1 0x0 DUP1 PUSH1 0x0 DUP4 PUSH20 0xFFFFFFFFFFFFFFFFFFFFFFFFFFFFFFFFFFFFFFFF AND PUSH20 0xFFFFFFFFFFFFFFFFFFFFFFFFFFFFFFFFFFFFFFFF AND DUP2 MSTORE PUSH1 0x20 ADD SWAP1 DUP2 MSTORE PUSH1 0x20 ADD PUSH1 0x0 KECCAK256 SLOAD SWAP1 POP SWAP2 SWAP1 POP JUMP JUMPDEST PUSH1 0x5 PUSH1 0x0 SWAP1 SLOAD SWAP1 PUSH2 0x100 EXP SWAP1 DIV PUSH20 0xFFFFFFFFFFFFFFFFFFFFFFFFFFFFFFFFFFFFFFFF AND DUP2 JUMP JUMPDEST PUSH1 0x60 PUSH1 0x4 DUP1 SLOAD PUSH2 0x688 SWAP1 PUSH2 0x1D35 JUMP JUMPDEST DUP1 PUSH1 0x1F ADD PUSH1 0x20 DUP1 SWAP2 DIV MUL PUSH1 0x20 ADD PUSH1 0x40 MLOAD SWAP1 DUP2 ADD PUSH1 0x40 MSTORE DUP1 SWAP3 SWAP2 SWAP1 DUP2 DUP2 MSTORE PUSH1 0x20 ADD DUP3 DUP1 SLOAD PUSH2 0x6B4 SWAP1 PUSH2 0x1D35 JUMP JUMPDEST DUP1 ISZERO PUSH2 0x701 JUMPI DUP1 PUSH1 0x1F LT PUSH2 0x6D6 JUMPI PUSH2 0x100 DUP1 DUP4 SLOAD DIV MUL DUP4 MSTORE SWAP2 PUSH1 0x20 ADD SWAP2 PUSH2 0x701 JUMP JUMPDEST DUP3 ADD SWAP2 SWAP1 PUSH1 0x0 MSTORE PUSH1 0x20 PUSH1 0x0 KECCAK256 SWAP1 JUMPDEST DUP2 SLOAD DUP2 MSTORE SWAP1 PUSH1 0x1 ADD SWAP1 PUSH1 0x20 ADD DUP1 DUP4 GT PUSH2 0x6E4 JUMPI DUP3 SWAP1 SUB PUSH1 0x1F AND DUP3 ADD SWAP2 JUMPDEST POP POP POP POP POP SWAP1 POP SWAP1 JUMP JUMPDEST PUSH1 0x9 SLOAD DUP2 JUMP JUMPDEST PUSH1 0x0 DUP1 PUSH2 0x71C PUSH2 0xC4D JUMP JUMPDEST SWAP1 POP PUSH1 0x0 PUSH2 0x72A DUP3 DUP7 PUSH2 0xBC0 JUMP JUMPDEST SWAP1 POP DUP4 DUP2 LT ISZERO PUSH2 0x76F JUMPI PUSH1 0x40 MLOAD PUSH32 0x8C379A000000000000000000000000000000000000000000000000000000000 DUP2 MSTORE PUSH1 0x4 ADD PUSH2 0x766 SWAP1 PUSH2 0x1B26 JUMP JUMPDEST PUSH1 0x40 MLOAD DUP1 SWAP2 SUB SWAP1 REVERT JUMPDEST PUSH2 0x77C DUP3 DUP7 DUP7 DUP5 SUB PUSH2 0xC55 JUMP JUMPDEST PUSH1 0x1 SWAP3 POP POP POP SWAP3 SWAP2 POP POP JUMP JUMPDEST PUSH1 0x0 DUP1 PUSH1 0x0 SWAP1 POP PUSH1 0xB PUSH1 0x0 SWAP1 SLOAD SWAP1 PUSH2 0x100 EXP SWAP1 DIV PUSH1 0xFF AND DUP1 ISZERO PUSH2 0x7F8 JUMPI POP PUSH1 0x5 PUSH1 0x0 SWAP1 SLOAD SWAP1 PUSH2 0x100 EXP SWAP1 DIV PUSH20 0xFFFFFFFFFFFFFFFFFFFFFFFFFFFFFFFFFFFFFFFF AND PUSH20 0xFFFFFFFFFFFFFFFFFFFFFFFFFFFFFFFFFFFFFFFF AND CALLER PUSH20 0xFFFFFFFFFFFFFFFFFFFFFFFFFFFFFFFFFFFFFFFF AND EQ JUMPDEST DUP1 ISZERO PUSH2 0x806 JUMPI POP PUSH1 0xA SLOAD TIMESTAMP GT ISZERO JUMPDEST ISZERO PUSH2 0x94C JUMPI PUSH2 0x836 PUSH1 0x5 PUSH1 0x0 SWAP1 SLOAD SWAP1 PUSH2 0x100 EXP SWAP1 DIV PUSH20 0xFFFFFFFFFFFFFFFFFFFFFFFFFFFFFFFFFFFFFFFF AND PUSH2 0x60B JUMP JUMPDEST DUP4 GT ISZERO PUSH2 0x878 JUMPI PUSH1 0x40 MLOAD PUSH32 0x8C379A000000000000000000000000000000000000000000000000000000000 DUP2 MSTORE PUSH1 0x4 ADD PUSH2 0x86F SWAP1 PUSH2 0x1B06 JUMP JUMPDEST PUSH1 0x40 MLOAD DUP1 SWAP2 SUB SWAP1 REVERT JUMPDEST PUSH1 0x5 PUSH1 0x0 SWAP1 SLOAD SWAP1 PUSH2 0x100 EXP SWAP1 DIV PUSH20 0xFFFFFFFFFFFFFFFFFFFFFFFFFFFFFFFFFFFFFFFF AND PUSH20 0xFFFFFFFFFFFFFFFFFFFFFFFFFFFFFFFFFFFFFFFF AND DUP5 PUSH20 0xFFFFFFFFFFFFFFFFFFFFFFFFFFFFFFFFFFFFFFFF AND EQ PUSH2 0x947 JUMPI PUSH1 0x64 PUSH1 0x9 SLOAD DUP5 PUSH2 0x8DD SWAP2 SWAP1 PUSH2 0x1C1F JUMP JUMPDEST PUSH2 0x8E7 SWAP2 SWAP1 PUSH2 0x1BEE JUMP JUMPDEST SWAP1 POP PUSH2 0x938 PUSH1 0x5 PUSH1 0x0 SWAP1 SLOAD SWAP1 PUSH2 0x100 EXP SWAP1 DIV PUSH20 0xFFFFFFFFFFFFFFFFFFFFFFFFFFFFFFFFFFFFFFFF AND PUSH1 0x6 PUSH1 0x0 SWAP1 SLOAD SWAP1 PUSH2 0x100 EXP SWAP1 DIV PUSH20 0xFFFFFFFFFFFFFFFFFFFFFFFFFFFFFFFFFFFFFFFF AND DUP4 PUSH2 0xEAC JUMP JUMPDEST DUP1 DUP4 PUSH2 0x944 SWAP2 SWAP1 PUSH2 0x1C79 JUMP JUMPDEST SWAP3 POP JUMPDEST PUSH2 0x9EF JUMP JUMPDEST PUSH2 0x955 CALLER PUSH2 0x60B JUMP JUMPDEST DUP4 GT ISZERO PUSH2 0x997 JUMPI PUSH1 0x40 MLOAD PUSH32 0x8C379A000000000000000000000000000000000000000000000000000000000 DUP2 MSTORE PUSH1 0x4 ADD PUSH2 0x98E SWAP1 PUSH2 0x1A86 JUMP JUMPDEST PUSH1 0x40 MLOAD DUP1 SWAP2 SUB SWAP1 REVERT JUMPDEST PUSH1 0x64 PUSH1 0x9 SLOAD DUP5 PUSH2 0x9A7 SWAP2 SWAP1 PUSH2 0x1C1F JUMP JUMPDEST PUSH2 0x9B1 SWAP2 SWAP1 PUSH2 0x1BEE JUMP JUMPDEST SWAP1 POP PUSH2 0x9E0 CALLER PUSH1 0x6 PUSH1 0x0 SWAP1 SLOAD SWAP1 PUSH2 0x100 EXP SWAP1 DIV PUSH20 0xFFFFFFFFFFFFFFFFFFFFFFFFFFFFFFFFFFFFFFFF AND DUP4 PUSH2 0xEAC JUMP JUMPDEST DUP1 DUP4 PUSH2 0x9EC SWAP2 SWAP1 PUSH2 0x1C79 JUMP JUMPDEST SWAP3 POP JUMPDEST PUSH1 0x8 SLOAD PUSH2 0x9FA PUSH2 0x579 JUMP JUMPDEST GT ISZERO PUSH2 0xA37 JUMPI PUSH1 0x0 PUSH1 0x64 PUSH1 0x5 DUP6 PUSH2 0xA11 SWAP2 SWAP1 PUSH2 0x1C1F JUMP JUMPDEST PUSH2 0xA1B SWAP2 SWAP1 PUSH2 0x1BEE JUMP JUMPDEST SWAP1 POP DUP1 DUP5 PUSH2 0xA29 SWAP2 SWAP1 PUSH2 0x1C79 JUMP JUMPDEST SWAP4 POP PUSH2 0xA35 CALLER DUP3 PUSH2 0x1124 JUMP JUMPDEST POP JUMPDEST PUSH2 0xA42 CALLER DUP6 DUP6 PUSH2 0xEAC JUMP JUMPDEST PUSH1 0x1 SWAP2 POP POP SWAP3 SWAP2 POP POP JUMP JUMPDEST PUSH1 0x6 PUSH1 0x0 SWAP1 SLOAD SWAP1 PUSH2 0x100 EXP SWAP1 DIV PUSH20 0xFFFFFFFFFFFFFFFFFFFFFFFFFFFFFFFFFFFFFFFF AND DUP2 JUMP JUMPDEST PUSH1 0x5 PUSH1 0x0 SWAP1 SLOAD SWAP1 PUSH2 0x100 EXP SWAP1 DIV PUSH20 0xFFFFFFFFFFFFFFFFFFFFFFFFFFFFFFFFFFFFFFFF AND PUSH20 0xFFFFFFFFFFFFFFFFFFFFFFFFFFFFFFFFFFFFFFFF AND CALLER PUSH20 0xFFFFFFFFFFFFFFFFFFFFFFFFFFFFFFFFFFFFFFFF AND EQ PUSH2 0xB03 JUMPI PUSH1 0x40 MLOAD PUSH32 0x8C379A000000000000000000000000000000000000000000000000000000000 DUP2 MSTORE PUSH1 0x4 ADD PUSH2 0xAFA SWAP1 PUSH2 0x1A06 JUMP JUMPDEST PUSH1 0x40 MLOAD DUP1 SWAP2 SUB SWAP1 REVERT JUMPDEST DUP1 PUSH1 0xB PUSH1 0x0 PUSH2 0x100 EXP DUP2 SLOAD DUP2 PUSH1 0xFF MUL NOT AND SWAP1 DUP4 ISZERO ISZERO MUL OR SWAP1 SSTORE POP POP JUMP JUMPDEST PUSH1 0x5 PUSH1 0x0 SWAP1 SLOAD SWAP1 PUSH2 0x100 EXP SWAP1 DIV PUSH20 0xFFFFFFFFFFFFFFFFFFFFFFFFFFFFFFFFFFFFFFFF AND PUSH20 0xFFFFFFFFFFFFFFFFFFFFFFFFFFFFFFFFFFFFFFFF AND CALLER PUSH20 0xFFFFFFFFFFFFFFFFFFFFFFFFFFFFFFFFFFFFFFFF AND EQ PUSH2 0xBB0 JUMPI PUSH1 0x40 MLOAD PUSH32 0x8C379A000000000000000000000000000000000000000000000000000000000 DUP2 MSTORE PUSH1 0x4 ADD PUSH2 0xBA7 SWAP1 PUSH2 0x1A06 JUMP JUMPDEST PUSH1 0x40 MLOAD DUP1 SWAP2 SUB SWAP1 REVERT JUMPDEST DUP1 PUSH1 0xA DUP2 SWAP1 SSTORE POP POP JUMP JUMPDEST PUSH1 0x7 SLOAD DUP2 JUMP JUMPDEST PUSH1 0x0 PUSH1 0x1 PUSH1 0x0 DUP5 PUSH20 0xFFFFFFFFFFFFFFFFFFFFFFFFFFFFFFFFFFFFFFFF AND PUSH20 0xFFFFFFFFFFFFFFFFFFFFFFFFFFFFFFFFFFFFFFFF AND DUP2 MSTORE PUSH1 0x20 ADD SWAP1 DUP2 MSTORE PUSH1 0x20 ADD PUSH1 0x0 KECCAK256 PUSH1 0x0 DUP4 PUSH20 0xFFFFFFFFFFFFFFFFFFFFFFFFFFFFFFFFFFFFFFFF AND PUSH20 0xFFFFFFFFFFFFFFFFFFFFFFFFFFFFFFFFFFFFFFFF AND DUP2 MSTORE PUSH1 0x20 ADD SWAP1 DUP2 MSTORE PUSH1 0x20 ADD PUSH1 0x0 KECCAK256 SLOAD SWAP1 POP SWAP3 SWAP2 POP POP JUMP JUMPDEST PUSH1 0xA SLOAD DUP2 JUMP JUMPDEST PUSH1 0x0 CALLER SWAP1 POP SWAP1 JUMP JUMPDEST PUSH1 0x0 PUSH20 0xFFFFFFFFFFFFFFFFFFFFFFFFFFFFFFFFFFFFFFFF AND DUP4 PUSH20 0xFFFFFFFFFFFFFFFFFFFFFFFFFFFFFFFFFFFFFFFF AND EQ ISZERO PUSH2 0xCC5 JUMPI PUSH1 0x40 MLOAD PUSH32 0x8C379A000000000000000000000000000000000000000000000000000000000 DUP2 MSTORE PUSH1 0x4 ADD PUSH2 0xCBC SWAP1 PUSH2 0x1AE6 JUMP JUMPDEST PUSH1 0x40 MLOAD DUP1 SWAP2 SUB SWAP1 REVERT JUMPDEST PUSH1 0x0 PUSH20 0xFFFFFFFFFFFFFFFFFFFFFFFFFFFFFFFFFFFFFFFF AND DUP3 PUSH20 0xFFFFFFFFFFFFFFFFFFFFFFFFFFFFFFFFFFFFFFFF AND EQ ISZERO PUSH2 0xD35 JUMPI PUSH1 0x40 MLOAD PUSH32 0x8C379A000000000000000000000000000000000000000000000000000000000 DUP2 MSTORE PUSH1 0x4 ADD PUSH2 0xD2C SWAP1 PUSH2 0x1A26 JUMP JUMPDEST PUSH1 0x40 MLOAD DUP1 SWAP2 SUB SWAP1 REVERT JUMPDEST DUP1 PUSH1 0x1 PUSH1 0x0 DUP6 PUSH20 0xFFFFFFFFFFFFFFFFFFFFFFFFFFFFFFFFFFFFFFFF AND PUSH20 0xFFFFFFFFFFFFFFFFFFFFFFFFFFFFFFFFFFFFFFFF AND DUP2 MSTORE PUSH1 0x20 ADD SWAP1 DUP2 MSTORE PUSH1 0x20 ADD PUSH1 0x0 KECCAK256 PUSH1 0x0 DUP5 PUSH20 0xFFFFFFFFFFFFFFFFFFFFFFFFFFFFFFFFFFFFFFFF AND PUSH20 0xFFFFFFFFFFFFFFFFFFFFFFFFFFFFFFFFFFFFFFFF AND DUP2 MSTORE PUSH1 0x20 ADD SWAP1 DUP2 MSTORE PUSH1 0x20 ADD PUSH1 0x0 KECCAK256 DUP2 SWAP1 SSTORE POP DUP2 PUSH20 0xFFFFFFFFFFFFFFFFFFFFFFFFFFFFFFFFFFFFFFFF AND DUP4 PUSH20 0xFFFFFFFFFFFFFFFFFFFFFFFFFFFFFFFFFFFFFFFF AND PUSH32 0x8C5BE1E5EBEC7D5BD14F71427D1E84F3DD0314C0F7B2291E5B200AC8C7C3B925 DUP4 PUSH1 0x40 MLOAD PUSH2 0xE13 SWAP2 SWAP1 PUSH2 0x1B46 JUMP JUMPDEST PUSH1 0x40 MLOAD DUP1 SWAP2 SUB SWAP1 LOG3 POP POP POP JUMP JUMPDEST PUSH1 0x0 PUSH2 0xE2C DUP5 DUP5 PUSH2 0xBC0 JUMP JUMPDEST SWAP1 POP PUSH32 0xFFFFFFFFFFFFFFFFFFFFFFFFFFFFFFFFFFFFFFFFFFFFFFFFFFFFFFFFFFFFFFFF DUP2 EQ PUSH2 0xEA6 JUMPI DUP2 DUP2 LT ISZERO PUSH2 0xE98 JUMPI PUSH1 0x40 MLOAD PUSH32 0x8C379A000000000000000000000000000000000000000000000000000000000 DUP2 MSTORE PUSH1 0x4 ADD PUSH2 0xE8F SWAP1 PUSH2 0x1A46 JUMP JUMPDEST PUSH1 0x40 MLOAD DUP1 SWAP2 SUB SWAP1 REVERT JUMPDEST PUSH2 0xEA5 DUP5 DUP5 DUP5 DUP5 SUB PUSH2 0xC55 JUMP JUMPDEST JUMPDEST POP POP POP POP JUMP JUMPDEST PUSH1 0x0 PUSH20 0xFFFFFFFFFFFFFFFFFFFFFFFFFFFFFFFFFFFFFFFF AND DUP4 PUSH20 0xFFFFFFFFFFFFFFFFFFFFFFFFFFFFFFFFFFFFFFFF AND EQ ISZERO PUSH2 0xF1C JUMPI PUSH1 0x40 MLOAD PUSH32 0x8C379A000000000000000000000000000000000000000000000000000000000 DUP2 MSTORE PUSH1 0x4 ADD PUSH2 0xF13 SWAP1 PUSH2 0x1AC6 JUMP JUMPDEST PUSH1 0x40 MLOAD DUP1 SWAP2 SUB SWAP1 REVERT JUMPDEST PUSH1 0x0 PUSH20 0xFFFFFFFFFFFFFFFFFFFFFFFFFFFFFFFFFFFFFFFF AND DUP3 PUSH20 0xFFFFFFFFFFFFFFFFFFFFFFFFFFFFFFFFFFFFFFFF AND EQ ISZERO PUSH2 0xF8C JUMPI PUSH1 0x40 MLOAD PUSH32 0x8C379A000000000000000000000000000000000000000000000000000000000 DUP2 MSTORE PUSH1 0x4 ADD PUSH2 0xF83 SWAP1 PUSH2 0x19C6 JUMP JUMPDEST PUSH1 0x40 MLOAD DUP1 SWAP2 SUB SWAP1 REVERT JUMPDEST PUSH2 0xF97 DUP4 DUP4 DUP4 PUSH2 0x12F2 JUMP JUMPDEST PUSH1 0x0 DUP1 PUSH1 0x0 DUP6 PUSH20 0xFFFFFFFFFFFFFFFFFFFFFFFFFFFFFFFFFFFFFFFF AND PUSH20 0xFFFFFFFFFFFFFFFFFFFFFFFFFFFFFFFFFFFFFFFF AND DUP2 MSTORE PUSH1 0x20 ADD SWAP1 DUP2 MSTORE PUSH1 0x20 ADD PUSH1 0x0 KECCAK256 SLOAD SWAP1 POP DUP2 DUP2 LT ISZERO PUSH2 0x101D JUMPI PUSH1 0x40 MLOAD PUSH32 0x8C379A000000000000000000000000000000000000000000000000000000000 DUP2 MSTORE PUSH1 0x4 ADD PUSH2 0x1014 SWAP1 PUSH2 0x1A66 JUMP JUMPDEST PUSH1 0x40 MLOAD DUP1 SWAP2 SUB SWAP1 REVERT JUMPDEST DUP2 DUP2 SUB PUSH1 0x0 DUP1 DUP7 PUSH20 0xFFFFFFFFFFFFFFFFFFFFFFFFFFFFFFFFFFFFFFFF AND PUSH20 0xFFFFFFFFFFFFFFFFFFFFFFFFFFFFFFFFFFFFFFFF AND DUP2 MSTORE PUSH1 0x20 ADD SWAP1 DUP2 MSTORE PUSH1 0x20 ADD PUSH1 0x0 KECCAK256 DUP2 SWAP1 SSTORE POP DUP2 PUSH1 0x0 DUP1 DUP6 PUSH20 0xFFFFFFFFFFFFFFFFFFFFFFFFFFFFFFFFFFFFFFFF AND PUSH20 0xFFFFFFFFFFFFFFFFFFFFFFFFFFFFFFFFFFFFFFFF AND DUP2 MSTORE PUSH1 0x20 ADD SWAP1 DUP2 MSTORE PUSH1 0x20 ADD PUSH1 0x0 KECCAK256 PUSH1 0x0 DUP3 DUP3 SLOAD ADD SWAP3 POP POP DUP2 SWAP1 SSTORE POP DUP3 PUSH20 0xFFFFFFFFFFFFFFFFFFFFFFFFFFFFFFFFFFFFFFFF AND DUP5 PUSH20 0xFFFFFFFFFFFFFFFFFFFFFFFFFFFFFFFFFFFFFFFF AND PUSH32 0xDDF252AD1BE2C89B69C2B068FC378DAA952BA7F163C4A11628F55A4DF523B3EF DUP5 PUSH1 0x40 MLOAD PUSH2 0x110B SWAP2 SWAP1 PUSH2 0x1B46 JUMP JUMPDEST PUSH1 0x40 MLOAD DUP1 SWAP2 SUB SWAP1 LOG3 PUSH2 0x111E DUP5 DUP5 DUP5 PUSH2 0x12F7 JUMP JUMPDEST POP POP POP POP JUMP JUMPDEST PUSH1 0x0 PUSH20 0xFFFFFFFFFFFFFFFFFFFFFFFFFFFFFFFFFFFFFFFF AND DUP3 PUSH20 0xFFFFFFFFFFFFFFFFFFFFFFFFFFFFFFFFFFFFFFFF AND EQ ISZERO PUSH2 0x1194 JUMPI PUSH1 0x40 MLOAD PUSH32 0x8C379A000000000000000000000000000000000000000000000000000000000 DUP2 MSTORE PUSH1 0x4 ADD PUSH2 0x118B SWAP1 PUSH2 0x1AA6 JUMP JUMPDEST PUSH1 0x40 MLOAD DUP1 SWAP2 SUB SWAP1 REVERT JUMPDEST PUSH2 0x11A0 DUP3 PUSH1 0x0 DUP4 PUSH2 0x12F2 JUMP JUMPDEST PUSH1 0x0 DUP1 PUSH1 0x0 DUP5 PUSH20 0xFFFFFFFFFFFFFFFFFFFFFFFFFFFFFFFFFFFFFFFF AND PUSH20 0xFFFFFFFFFFFFFFFFFFFFFFFFFFFFFFFFFFFFFFFF AND DUP2 MSTORE PUSH1 0x20 ADD SWAP1 DUP2 MSTORE PUSH1 0x20 ADD PUSH1 0x0 KECCAK256 SLOAD SWAP1 POP DUP2 DUP2 LT ISZERO PUSH2 0x1226 JUMPI PUSH1 0x40 MLOAD PUSH32 0x8C379A000000000000000000000000000000000000000000000000000000000 DUP2 MSTORE PUSH1 0x4 ADD PUSH2 0x121D SWAP1 PUSH2 0x19E6 JUMP JUMPDEST PUSH1 0x40 MLOAD DUP1 SWAP2 SUB SWAP1 REVERT JUMPDEST DUP2 DUP2 SUB PUSH1 0x0 DUP1 DUP6 PUSH20 0xFFFFFFFFFFFFFFFFFFFFFFFFFFFFFFFFFFFFFFFF AND PUSH20 0xFFFFFFFFFFFFFFFFFFFFFFFFFFFFFFFFFFFFFFFF AND DUP2 MSTORE PUSH1 0x20 ADD SWAP1 DUP2 MSTORE PUSH1 0x20 ADD PUSH1 0x0 KECCAK256 DUP2 SWAP1 SSTORE POP DUP2 PUSH1 0x2 PUSH1 0x0 DUP3 DUP3 SLOAD SUB SWAP3 POP POP DUP2 SWAP1 SSTORE POP PUSH1 0x0 PUSH20 0xFFFFFFFFFFFFFFFFFFFFFFFFFFFFFFFFFFFFFFFF AND DUP4 PUSH20 0xFFFFFFFFFFFFFFFFFFFFFFFFFFFFFFFFFFFFFFFF AND PUSH32 0xDDF252AD1BE2C89B69C2B068FC378DAA952BA7F163C4A11628F55A4DF523B3EF DUP5 PUSH1 0x40 MLOAD PUSH2 0x12D9 SWAP2 SWAP1 PUSH2 0x1B46 JUMP JUMPDEST PUSH1 0x40 MLOAD DUP1 SWAP2 SUB SWAP1 LOG3 PUSH2 0x12ED DUP4 PUSH1 0x0 DUP5 PUSH2 0x12F7 JUMP JUMPDEST POP POP POP JUMP JUMPDEST POP POP POP JUMP JUMPDEST POP POP POP JUMP JUMPDEST PUSH1 0x0 DUP2 CALLDATALOAD SWAP1 POP PUSH2 0x130B DUP2 PUSH2 0x1E05 JUMP JUMPDEST SWAP3 SWAP2 POP POP JUMP JUMPDEST PUSH1 0x0 DUP2 CALLDATALOAD SWAP1 POP PUSH2 0x1320 DUP2 PUSH2 0x1E1C JUMP JUMPDEST SWAP3 SWAP2 POP POP JUMP JUMPDEST PUSH1 0x0 DUP2 CALLDATALOAD SWAP1 POP PUSH2 0x1335 DUP2 PUSH2 0x1E33 JUMP JUMPDEST SWAP3 SWAP2 POP POP JUMP JUMPDEST PUSH1 0x0 PUSH1 0x20 DUP3 DUP5 SUB SLT ISZERO PUSH2 0x134D JUMPI PUSH1 0x0 DUP1 REVERT JUMPDEST PUSH1 0x0 PUSH2 0x135B DUP5 DUP3 DUP6 ADD PUSH2 0x12FC JUMP JUMPDEST SWAP2 POP POP SWAP3 SWAP2 POP POP JUMP JUMPDEST PUSH1 0x0 DUP1 PUSH1 0x40 DUP4 DUP6 SUB SLT ISZERO PUSH2 0x1377 JUMPI PUSH1 0x0 DUP1 REVERT JUMPDEST PUSH1 0x0 PUSH2 0x1385 DUP6 DUP3 DUP7 ADD PUSH2 0x12FC JUMP JUMPDEST SWAP3 POP POP PUSH1 0x20 PUSH2 0x1396 DUP6 DUP3 DUP7 ADD PUSH2 0x12FC JUMP JUMPDEST SWAP2 POP POP SWAP3 POP SWAP3 SWAP1 POP JUMP JUMPDEST PUSH1 0x0 DUP1 PUSH1 0x0 PUSH1 0x60 DUP5 DUP7 SUB SLT ISZERO PUSH2 0x13B5 JUMPI PUSH1 0x0 DUP1 REVERT JUMPDEST PUSH1 0x0 PUSH2 0x13C3 DUP7 DUP3 DUP8 ADD PUSH2 0x12FC JUMP JUMPDEST SWAP4 POP POP PUSH1 0x20 PUSH2 0x13D4 DUP7 DUP3 DUP8 ADD PUSH2 0x12FC JUMP JUMPDEST SWAP3 POP POP PUSH1 0x40 PUSH2 0x13E5 DUP7 DUP3 DUP8 ADD PUSH2 0x1326 JUMP JUMPDEST SWAP2 POP POP SWAP3 POP SWAP3 POP SWAP3 JUMP JUMPDEST PUSH1 0x0 DUP1 PUSH1 0x40 DUP4 DUP6 SUB SLT ISZERO PUSH2 0x1402 JUMPI PUSH1 0x0 DUP1 REVERT JUMPDEST PUSH1 0x0 PUSH2 0x1410 DUP6 DUP3 DUP7 ADD PUSH2 0x12FC JUMP JUMPDEST SWAP3 POP POP PUSH1 0x20 PUSH2 0x1421 DUP6 DUP3 DUP7 ADD PUSH2 0x1326 JUMP JUMPDEST SWAP2 POP POP SWAP3 POP SWAP3 SWAP1 POP JUMP JUMPDEST PUSH1 0x0 PUSH1 0x20 DUP3 DUP5 SUB SLT ISZERO PUSH2 0x143D JUMPI PUSH1 0x0 DUP1 REVERT JUMPDEST PUSH1 0x0 PUSH2 0x144B DUP5 DUP3 DUP6 ADD PUSH2 0x1311 JUMP JUMPDEST SWAP2 POP POP SWAP3 SWAP2 POP POP JUMP JUMPDEST PUSH1 0x0 PUSH1 0x20 DUP3 DUP5 SUB SLT ISZERO PUSH2 0x1466 JUMPI PUSH1 0x0 DUP1 REVERT JUMPDEST PUSH1 0x0 PUSH2 0x1474 DUP5 DUP3 DUP6 ADD PUSH2 0x1326 JUMP JUMPDEST SWAP2 POP POP SWAP3 SWAP2 POP POP JUMP JUMPDEST PUSH2 0x1486 DUP2 PUSH2 0x1CAD JUMP JUMPDEST DUP3 MSTORE POP POP JUMP JUMPDEST PUSH2 0x1495 DUP2 PUSH2 0x1CBF JUMP JUMPDEST DUP3 MSTORE POP POP JUMP JUMPDEST PUSH1 0x0 PUSH2 0x14A6 DUP3 PUSH2 0x1B7C JUMP JUMPDEST PUSH2 0x14B0 DUP2 DUP6 PUSH2 0x1B87 JUMP JUMPDEST SWAP4 POP PUSH2 0x14C0 DUP2 DUP6 PUSH1 0x20 DUP7 ADD PUSH2 0x1D02 JUMP JUMPDEST PUSH2 0x14C9 DUP2 PUSH2 0x1DF4 JUMP JUMPDEST DUP5 ADD SWAP2 POP POP SWAP3 SWAP2 POP POP JUMP JUMPDEST PUSH1 0x0 PUSH2 0x14E1 PUSH1 0x23 DUP4 PUSH2 0x1B87 JUMP JUMPDEST SWAP2 POP PUSH32 0x45524332303A207472616E7366657220746F20746865207A65726F2061646472 PUSH1 0x0 DUP4 ADD MSTORE PUSH32 0x6573730000000000000000000000000000000000000000000000000000000000 PUSH1 0x20 DUP4 ADD MSTORE PUSH1 0x40 DUP3 ADD SWAP1 POP SWAP2 SWAP1 POP JUMP JUMPDEST PUSH1 0x0 PUSH2 0x1547 PUSH1 0x22 DUP4 PUSH2 0x1B87 JUMP JUMPDEST SWAP2 POP PUSH32 0x45524332303A206275726E20616D6F756E7420657863656564732062616C616E PUSH1 0x0 DUP4 ADD MSTORE PUSH32 0x6365000000000000000000000000000000000000000000000000000000000000 PUSH1 0x20 DUP4 ADD MSTORE PUSH1 0x40 DUP3 ADD SWAP1 POP SWAP2 SWAP1 POP JUMP JUMPDEST PUSH1 0x0 PUSH2 0x15AD PUSH1 0x26 DUP4 PUSH2 0x1B87 JUMP JUMPDEST SWAP2 POP PUSH32 0x4F6E6C7920746865206F776E65722063616E2063616C6C20746869732066756E PUSH1 0x0 DUP4 ADD MSTORE PUSH32 0x6374696F6E2E0000000000000000000000000000000000000000000000000000 PUSH1 0x20 DUP4 ADD MSTORE PUSH1 0x40 DUP3 ADD SWAP1 POP SWAP2 SWAP1 POP JUMP JUMPDEST PUSH1 0x0 PUSH2 0x1613 PUSH1 0x22 DUP4 PUSH2 0x1B87 JUMP JUMPDEST SWAP2 POP PUSH32 0x45524332303A20617070726F766520746F20746865207A65726F206164647265 PUSH1 0x0 DUP4 ADD MSTORE PUSH32 0x7373000000000000000000000000000000000000000000000000000000000000 PUSH1 0x20 DUP4 ADD MSTORE PUSH1 0x40 DUP3 ADD SWAP1 POP SWAP2 SWAP1 POP JUMP JUMPDEST PUSH1 0x0 PUSH2 0x1679 PUSH1 0x1D DUP4 PUSH2 0x1B87 JUMP JUMPDEST SWAP2 POP PUSH32 0x45524332303A20696E73756666696369656E7420616C6C6F77616E6365000000 PUSH1 0x0 DUP4 ADD MSTORE PUSH1 0x20 DUP3 ADD SWAP1 POP SWAP2 SWAP1 POP JUMP JUMPDEST PUSH1 0x0 PUSH2 0x16B9 PUSH1 0x26 DUP4 PUSH2 0x1B87 JUMP JUMPDEST SWAP2 POP PUSH32 0x45524332303A207472616E7366657220616D6F756E7420657863656564732062 PUSH1 0x0 DUP4 ADD MSTORE PUSH32 0x616C616E63650000000000000000000000000000000000000000000000000000 PUSH1 0x20 DUP4 ADD MSTORE PUSH1 0x40 DUP3 ADD SWAP1 POP SWAP2 SWAP1 POP JUMP JUMPDEST PUSH1 0x0 PUSH2 0x171F PUSH1 0x20 DUP4 PUSH2 0x1B87 JUMP JUMPDEST SWAP2 POP PUSH32 0x4E6F7420656E6F7567682062616C616E636520666F72207472616E736665722E PUSH1 0x0 DUP4 ADD MSTORE PUSH1 0x20 DUP3 ADD SWAP1 POP SWAP2 SWAP1 POP JUMP JUMPDEST PUSH1 0x0 PUSH2 0x175F PUSH1 0x21 DUP4 PUSH2 0x1B87 JUMP JUMPDEST SWAP2 POP PUSH32 0x45524332303A206275726E2066726F6D20746865207A65726F20616464726573 PUSH1 0x0 DUP4 ADD MSTORE PUSH32 0x7300000000000000000000000000000000000000000000000000000000000000 PUSH1 0x20 DUP4 ADD MSTORE PUSH1 0x40 DUP3 ADD SWAP1 POP SWAP2 SWAP1 POP JUMP JUMPDEST PUSH1 0x0 PUSH2 0x17C5 PUSH1 0x25 DUP4 PUSH2 0x1B87 JUMP JUMPDEST SWAP2 POP PUSH32 0x45524332303A207472616E736665722066726F6D20746865207A65726F206164 PUSH1 0x0 DUP4 ADD MSTORE PUSH32 0x6472657373000000000000000000000000000000000000000000000000000000 PUSH1 0x20 DUP4 ADD MSTORE PUSH1 0x40 DUP3 ADD SWAP1 POP SWAP2 SWAP1 POP JUMP JUMPDEST PUSH1 0x0 PUSH2 0x182B PUSH1 0x24 DUP4 PUSH2 0x1B87 JUMP JUMPDEST SWAP2 POP PUSH32 0x45524332303A20617070726F76652066726F6D20746865207A65726F20616464 PUSH1 0x0 DUP4 ADD MSTORE PUSH32 0x7265737300000000000000000000000000000000000000000000000000000000 PUSH1 0x20 DUP4 ADD MSTORE PUSH1 0x40 DUP3 ADD SWAP1 POP SWAP2 SWAP1 POP JUMP JUMPDEST PUSH1 0x0 PUSH2 0x1891 PUSH1 0x28 DUP4 PUSH2 0x1B87 JUMP JUMPDEST SWAP2 POP PUSH32 0x4E6F7420656E6F7567682062616C616E636520666F7220696E697469616C2070 PUSH1 0x0 DUP4 ADD MSTORE PUSH32 0x757263686173652E000000000000000000000000000000000000000000000000 PUSH1 0x20 DUP4 ADD MSTORE PUSH1 0x40 DUP3 ADD SWAP1 POP SWAP2 SWAP1 POP JUMP JUMPDEST PUSH1 0x0 PUSH2 0x18F7 PUSH1 0x25 DUP4 PUSH2 0x1B87 JUMP JUMPDEST SWAP2 POP PUSH32 0x45524332303A2064656372656173656420616C6C6F77616E63652062656C6F77 PUSH1 0x0 DUP4 ADD MSTORE PUSH32 0x207A65726F000000000000000000000000000000000000000000000000000000 PUSH1 0x20 DUP4 ADD MSTORE PUSH1 0x40 DUP3 ADD SWAP1 POP SWAP2 SWAP1 POP JUMP JUMPDEST PUSH2 0x1959 DUP2 PUSH2 0x1CEB JUMP JUMPDEST DUP3 MSTORE POP POP JUMP JUMPDEST PUSH2 0x1968 DUP2 PUSH2 0x1CF5 JUMP JUMPDEST DUP3 MSTORE POP POP JUMP JUMPDEST PUSH1 0x0 PUSH1 0x20 DUP3 ADD SWAP1 POP PUSH2 0x1983 PUSH1 0x0 DUP4 ADD DUP5 PUSH2 0x147D JUMP JUMPDEST SWAP3 SWAP2 POP POP JUMP JUMPDEST PUSH1 0x0 PUSH1 0x20 DUP3 ADD SWAP1 POP PUSH2 0x199E PUSH1 0x0 DUP4 ADD DUP5 PUSH2 0x148C JUMP JUMPDEST SWAP3 SWAP2 POP POP JUMP JUMPDEST PUSH1 0x0 PUSH1 0x20 DUP3 ADD SWAP1 POP DUP2 DUP2 SUB PUSH1 0x0 DUP4 ADD MSTORE PUSH2 0x19BE DUP2 DUP5 PUSH2 0x149B JUMP JUMPDEST SWAP1 POP SWAP3 SWAP2 POP POP JUMP JUMPDEST PUSH1 0x0 PUSH1 0x20 DUP3 ADD SWAP1 POP DUP2 DUP2 SUB PUSH1 0x0 DUP4 ADD MSTORE PUSH2 0x19DF DUP2 PUSH2 0x14D4 JUMP JUMPDEST SWAP1 POP SWAP2 SWAP1 POP JUMP JUMPDEST PUSH1 0x0 PUSH1 0x20 DUP3 ADD SWAP1 POP DUP2 DUP2 SUB PUSH1 0x0 DUP4 ADD MSTORE PUSH2 0x19FF DUP2 PUSH2 0x153A JUMP JUMPDEST SWAP1 POP SWAP2 SWAP1 POP JUMP JUMPDEST PUSH1 0x0 PUSH1 0x20 DUP3 ADD SWAP1 POP DUP2 DUP2 SUB PUSH1 0x0 DUP4 ADD MSTORE PUSH2 0x1A1F DUP2 PUSH2 0x15A0 JUMP JUMPDEST SWAP1 POP SWAP2 SWAP1 POP JUMP JUMPDEST PUSH1 0x0 PUSH1 0x20 DUP3 ADD SWAP1 POP DUP2 DUP2 SUB PUSH1 0x0 DUP4 ADD MSTORE PUSH2 0x1A3F DUP2 PUSH2 0x1606 JUMP JUMPDEST SWAP1 POP SWAP2 SWAP1 POP JUMP JUMPDEST PUSH1 0x0 PUSH1 0x20 DUP3 ADD SWAP1 POP DUP2 DUP2 SUB PUSH1 0x0 DUP4 ADD MSTORE PUSH2 0x1A5F DUP2 PUSH2 0x166C JUMP JUMPDEST SWAP1 POP SWAP2 SWAP1 POP JUMP JUMPDEST PUSH1 0x0 PUSH1 0x20 DUP3 ADD SWAP1 POP DUP2 DUP2 SUB PUSH1 0x0 DUP4 ADD MSTORE PUSH2 0x1A7F DUP2 PUSH2 0x16AC JUMP JUMPDEST SWAP1 POP SWAP2 SWAP1 POP JUMP JUMPDEST PUSH1 0x0 PUSH1 0x20 DUP3 ADD SWAP1 POP DUP2 DUP2 SUB PUSH1 0x0 DUP4 ADD MSTORE PUSH2 0x1A9F DUP2 PUSH2 0x1712 JUMP JUMPDEST SWAP1 POP SWAP2 SWAP1 POP JUMP JUMPDEST PUSH1 0x0 PUSH1 0x20 DUP3 ADD SWAP1 POP DUP2 DUP2 SUB PUSH1 0x0 DUP4 ADD MSTORE PUSH2 0x1ABF DUP2 PUSH2 0x1752 JUMP JUMPDEST SWAP1 POP SWAP2 SWAP1 POP JUMP JUMPDEST PUSH1 0x0 PUSH1 0x20 DUP3 ADD SWAP1 POP DUP2 DUP2 SUB PUSH1 0x0 DUP4 ADD MSTORE PUSH2 0x1ADF DUP2 PUSH2 0x17B8 JUMP JUMPDEST SWAP1 POP SWAP2 SWAP1 POP JUMP JUMPDEST PUSH1 0x0 PUSH1 0x20 DUP3 ADD SWAP1 POP DUP2 DUP2 SUB PUSH1 0x0 DUP4 ADD MSTORE PUSH2 0x1AFF DUP2 PUSH2 0x181E JUMP JUMPDEST SWAP1 POP SWAP2 SWAP1 POP JUMP JUMPDEST PUSH1 0x0 PUSH1 0x20 DUP3 ADD SWAP1 POP DUP2 DUP2 SUB PUSH1 0x0 DUP4 ADD MSTORE PUSH2 0x1B1F DUP2 PUSH2 0x1884 JUMP JUMPDEST SWAP1 POP SWAP2 SWAP1 POP JUMP JUMPDEST PUSH1 0x0 PUSH1 0x20 DUP3 ADD SWAP1 POP DUP2 DUP2 SUB PUSH1 0x0 DUP4 ADD MSTORE PUSH2 0x1B3F DUP2 PUSH2 0x18EA JUMP JUMPDEST SWAP1 POP SWAP2 SWAP1 POP JUMP JUMPDEST PUSH1 0x0 PUSH1 0x20 DUP3 ADD SWAP1 POP PUSH2 0x1B5B PUSH1 0x0 DUP4 ADD DUP5 PUSH2 0x1950 JUMP JUMPDEST SWAP3 SWAP2 POP POP JUMP JUMPDEST PUSH1 0x0 PUSH1 0x20 DUP3 ADD SWAP1 POP PUSH2 0x1B76 PUSH1 0x0 DUP4 ADD DUP5 PUSH2 0x195F JUMP JUMPDEST SWAP3 SWAP2 POP POP JUMP JUMPDEST PUSH1 0x0 DUP2 MLOAD SWAP1 POP SWAP2 SWAP1 POP JUMP JUMPDEST PUSH1 0x0 DUP3 DUP3 MSTORE PUSH1 0x20 DUP3 ADD SWAP1 POP SWAP3 SWAP2 POP POP JUMP JUMPDEST PUSH1 0x0 PUSH2 0x1BA3 DUP3 PUSH2 0x1CEB JUMP JUMPDEST SWAP2 POP PUSH2 0x1BAE DUP4 PUSH2 0x1CEB JUMP JUMPDEST SWAP3 POP DUP3 PUSH32 0xFFFFFFFFFFFFFFFFFFFFFFFFFFFFFFFFFFFFFFFFFFFFFFFFFFFFFFFFFFFFFFFF SUB DUP3 GT ISZERO PUSH2 0x1BE3 JUMPI PUSH2 0x1BE2 PUSH2 0x1D67 JUMP JUMPDEST JUMPDEST DUP3 DUP3 ADD SWAP1 POP SWAP3 SWAP2 POP POP JUMP JUMPDEST PUSH1 0x0 PUSH2 0x1BF9 DUP3 PUSH2 0x1CEB JUMP JUMPDEST SWAP2 POP PUSH2 0x1C04 DUP4 PUSH2 0x1CEB JUMP JUMPDEST SWAP3 POP DUP3 PUSH2 0x1C14 JUMPI PUSH2 0x1C13 PUSH2 0x1D96 JUMP JUMPDEST JUMPDEST DUP3 DUP3 DIV SWAP1 POP SWAP3 SWAP2 POP POP JUMP JUMPDEST PUSH1 0x0 PUSH2 0x1C2A DUP3 PUSH2 0x1CEB JUMP JUMPDEST SWAP2 POP PUSH2 0x1C35 DUP4 PUSH2 0x1CEB JUMP JUMPDEST SWAP3 POP DUP2 PUSH32 0xFFFFFFFFFFFFFFFFFFFFFFFFFFFFFFFFFFFFFFFFFFFFFFFFFFFFFFFFFFFFFFFF DIV DUP4 GT DUP3 ISZERO ISZERO AND ISZERO PUSH2 0x1C6E JUMPI PUSH2 0x1C6D PUSH2 0x1D67 JUMP JUMPDEST JUMPDEST DUP3 DUP3 MUL SWAP1 POP SWAP3 SWAP2 POP POP JUMP JUMPDEST PUSH1 0x0 PUSH2 0x1C84 DUP3 PUSH2 0x1CEB JUMP JUMPDEST SWAP2 POP PUSH2 0x1C8F DUP4 PUSH2 0x1CEB JUMP JUMPDEST SWAP3 POP DUP3 DUP3 LT ISZERO PUSH2 0x1CA2 JUMPI PUSH2 0x1CA1 PUSH2 0x1D67 JUMP JUMPDEST JUMPDEST DUP3 DUP3 SUB SWAP1 POP SWAP3 SWAP2 POP POP JUMP JUMPDEST PUSH1 0x0 PUSH2 0x1CB8 DUP3 PUSH2 0x1CCB JUMP JUMPDEST SWAP1 POP SWAP2 SWAP1 POP JUMP JUMPDEST PUSH1 0x0 DUP2 ISZERO ISZERO SWAP1 POP SWAP2 SWAP1 POP JUMP JUMPDEST PUSH1 0x0 PUSH20 0xFFFFFFFFFFFFFFFFFFFFFFFFFFFFFFFFFFFFFFFF DUP3 AND SWAP1 POP SWAP2 SWAP1 POP JUMP JUMPDEST PUSH1 0x0 DUP2 SWAP1 POP SWAP2 SWAP1 POP JUMP JUMPDEST PUSH1 0x0 PUSH1 0xFF DUP3 AND SWAP1 POP SWAP2 SWAP1 POP JUMP JUMPDEST PUSH1 0x0 JUMPDEST DUP4 DUP2 LT ISZERO PUSH2 0x1D20 JUMPI DUP1 DUP3 ADD MLOAD DUP2 DUP5 ADD MSTORE PUSH1 0x20 DUP2 ADD SWAP1 POP PUSH2 0x1D05 JUMP JUMPDEST DUP4 DUP2 GT ISZERO PUSH2 0x1D2F JUMPI PUSH1 0x0 DUP5 DUP5 ADD MSTORE JUMPDEST POP POP POP POP JUMP JUMPDEST PUSH1 0x0 PUSH1 0x2 DUP3 DIV SWAP1 POP PUSH1 0x1 DUP3 AND DUP1 PUSH2 0x1D4D JUMPI PUSH1 0x7F DUP3 AND SWAP2 POP JUMPDEST PUSH1 0x20 DUP3 LT DUP2 EQ ISZERO PUSH2 0x1D61 JUMPI PUSH2 0x1D60 PUSH2 0x1DC5 JUMP JUMPDEST JUMPDEST POP SWAP2 SWAP1 POP JUMP JUMPDEST PUSH32 0x4E487B7100000000000000000000000000000000000000000000000000000000 PUSH1 0x0 MSTORE PUSH1 0x11 PUSH1 0x4 MSTORE PUSH1 0x24 PUSH1 0x0 REVERT JUMPDEST PUSH32 0x4E487B7100000000000000000000000000000000000000000000000000000000 PUSH1 0x0 MSTORE PUSH1 0x12 PUSH1 0x4 MSTORE PUSH1 0x24 PUSH1 0x0 REVERT JUMPDEST PUSH32 0x4E487B7100000000000000000000000000000000000000000000000000000000 PUSH1 0x0 MSTORE PUSH1 0x22 PUSH1 0x4 MSTORE PUSH1 0x24 PUSH1 0x0 REVERT JUMPDEST PUSH1 0x0 PUSH1 0x1F NOT PUSH1 0x1F DUP4 ADD AND SWAP1 POP SWAP2 SWAP1 POP JUMP JUMPDEST PUSH2 0x1E0E DUP2 PUSH2 0x1CAD JUMP JUMPDEST DUP2 EQ PUSH2 0x1E19 JUMPI PUSH1 0x0 DUP1 REVERT JUMPDEST POP JUMP JUMPDEST PUSH2 0x1E25 DUP2 PUSH2 0x1CBF JUMP JUMPDEST DUP2 EQ PUSH2 0x1E30 JUMPI PUSH1 0x0 DUP1 REVERT JUMPDEST POP JUMP JUMPDEST PUSH2 0x1E3C DUP2 PUSH2 0x1CEB JUMP JUMPDEST DUP2 EQ PUSH2 0x1E47 JUMPI PUSH1 0x0 DUP1 REVERT JUMPDEST POP JUMP INVALID LOG2 PUSH5 0x6970667358 0x22 SLT KECCAK256 PUSH3 0x4AE774 0x21 0xC1 0x5C RETURN LOG2 CREATE2 DUP13 0x29 MLOAD 0x49 PUSH19 0xCFBA04D18B4B94652DBA22393498ACE6A6473 PUSH16 0x6C634300080000330000000000000000 "
				},
				"gasEstimates": {
					"creation": {
						"codeDepositCost": "1561600",
						"executionCost": "infinite",
						"totalCost": "infinite"
					},
					"external": {
						"allowance(address,address)": "infinite",
						"approve(address,uint256)": "infinite",
						"balanceOf(address)": "1652",
						"burnThreshold()": "1196",
						"decimals()": "366",
						"decreaseAllowance(address,uint256)": "infinite",
						"developer()": "1236",
						"increaseAllowance(address,uint256)": "infinite",
						"initialPurchaseActive()": "1260",
						"initialPurchaseTime()": "1261",
						"maxSupply()": "1217",
						"name()": "infinite",
						"owner()": "1237",
						"setInitialPurchaseActive(bool)": "22193",
						"setInitialPurchaseTime(uint256)": "21356",
						"setTransactionFee(uint256)": "21358",
						"symbol()": "infinite",
						"totalSupply()": "1227",
						"transactionFee()": "1196",
						"transfer(address,uint256)": "infinite",
						"transferFrom(address,address,uint256)": "infinite"
					}
				},
				"methodIdentifiers": {
					"allowance(address,address)": "dd62ed3e",
					"approve(address,uint256)": "095ea7b3",
					"balanceOf(address)": "70a08231",
					"burnThreshold()": "4f6d38d0",
					"decimals()": "313ce567",
					"decreaseAllowance(address,uint256)": "a457c2d7",
					"developer()": "ca4b208b",
					"increaseAllowance(address,uint256)": "39509351",
					"initialPurchaseActive()": "513bd601",
					"initialPurchaseTime()": "f847a11f",
					"maxSupply()": "d5abeb01",
					"name()": "06fdde03",
					"owner()": "8da5cb5b",
					"setInitialPurchaseActive(bool)": "cfff3e5a",
					"setInitialPurchaseTime(uint256)": "d13a0991",
					"setTransactionFee(uint256)": "096a8ab7",
					"symbol()": "95d89b41",
					"totalSupply()": "18160ddd",
					"transactionFee()": "9ed3edf0",
					"transfer(address,uint256)": "a9059cbb",
					"transferFrom(address,address,uint256)": "23b872dd"
				}
			},
			"storageLayout": {
				"storage": [
					{
						"astId": 261,
						"contract": "contracts/MyToken.sol:ScamPump",
						"label": "_balances",
						"offset": 0,
						"slot": "0",
						"type": "t_mapping(t_address,t_uint256)"
					},
					{
						"astId": 267,
						"contract": "contracts/MyToken.sol:ScamPump",
						"label": "_allowances",
						"offset": 0,
						"slot": "1",
						"type": "t_mapping(t_address,t_mapping(t_address,t_uint256))"
					},
					{
						"astId": 269,
						"contract": "contracts/MyToken.sol:ScamPump",
						"label": "_totalSupply",
						"offset": 0,
						"slot": "2",
						"type": "t_uint256"
					},
					{
						"astId": 271,
						"contract": "contracts/MyToken.sol:ScamPump",
						"label": "_name",
						"offset": 0,
						"slot": "3",
						"type": "t_string_storage"
					},
					{
						"astId": 273,
						"contract": "contracts/MyToken.sol:ScamPump",
						"label": "_symbol",
						"offset": 0,
						"slot": "4",
						"type": "t_string_storage"
					},
					{
						"astId": 6,
						"contract": "contracts/MyToken.sol:ScamPump",
						"label": "owner",
						"offset": 0,
						"slot": "5",
						"type": "t_address"
					},
					{
						"astId": 8,
						"contract": "contracts/MyToken.sol:ScamPump",
						"label": "developer",
						"offset": 0,
						"slot": "6",
						"type": "t_address"
					},
					{
						"astId": 10,
						"contract": "contracts/MyToken.sol:ScamPump",
						"label": "maxSupply",
						"offset": 0,
						"slot": "7",
						"type": "t_uint256"
					},
					{
						"astId": 12,
						"contract": "contracts/MyToken.sol:ScamPump",
						"label": "burnThreshold",
						"offset": 0,
						"slot": "8",
						"type": "t_uint256"
					},
					{
						"astId": 14,
						"contract": "contracts/MyToken.sol:ScamPump",
						"label": "transactionFee",
						"offset": 0,
						"slot": "9",
						"type": "t_uint256"
					},
					{
						"astId": 16,
						"contract": "contracts/MyToken.sol:ScamPump",
						"label": "initialPurchaseTime",
						"offset": 0,
						"slot": "10",
						"type": "t_uint256"
					},
					{
						"astId": 18,
						"contract": "contracts/MyToken.sol:ScamPump",
						"label": "initialPurchaseActive",
						"offset": 0,
						"slot": "11",
						"type": "t_bool"
					}
				],
				"types": {
					"t_address": {
						"encoding": "inplace",
						"label": "address",
						"numberOfBytes": "20"
					},
					"t_bool": {
						"encoding": "inplace",
						"label": "bool",
						"numberOfBytes": "1"
					},
					"t_mapping(t_address,t_mapping(t_address,t_uint256))": {
						"encoding": "mapping",
						"key": "t_address",
						"label": "mapping(address => mapping(address => uint256))",
						"numberOfBytes": "32",
						"value": "t_mapping(t_address,t_uint256)"
					},
					"t_mapping(t_address,t_uint256)": {
						"encoding": "mapping",
						"key": "t_address",
						"label": "mapping(address => uint256)",
						"numberOfBytes": "32",
						"value": "t_uint256"
					},
					"t_string_storage": {
						"encoding": "bytes",
						"label": "string",
						"numberOfBytes": "32"
					},
					"t_uint256": {
						"encoding": "inplace",
						"label": "uint256",
						"numberOfBytes": "32"
					}
				}
			},
			"userdoc": {
				"kind": "user",
				"methods": {},
				"version": 1
			}
		}
	}
}